:04000000A2EF00F07B
:0E0008004782FACF99F0FBCF9AF083ED14F007
:100018004780D8CF08F0E8CF09F0E0CF0AF0FACF50
:100028000BF0FBCF0CF0E9CF0DF0EACF0EF0E1CFEB
:100038000FF0E2CF10F0D9CF11F0DACF12F0F3CFF2
:1000480013F0F4CF14F0F6CF15F0F7CF16F0F8CF81
:1000580017F0F5CF18F09EAA40D0360E026E000EAB
:10006800036E080E046E35EC16F0AA0E3618D8A4E6
:1000780033D0AA0E3C18D8A42FD08CA202D0010EDF
:1000880001D0000EFF0A076E07468C500718FD0BBB
:1000980007188C6E8CC06BF03EC060F03FC061F0FA
:1000A8007CC06AF03704D8A402D0000E406E020E5D
:1000B8003718D8A402D0010E406E39C03EF038C0BF
:1000C8003FF0800E3F18D8A402D0000E3F6E3AC011
:1000D8008CF03BC07CF046869E9AA1A20BD0010E04
:1000E8002D26000E2E222F223022630EB36EC00E54
:1000F800B26EA19218C0F5FF17C0F8FF16C0F7FF3F
:1001080015C0F6FF14C0F4FF13C0F3FF12C0DAFFE6
:1001180011C0D9FF10C0E2FF0FC0E1FF0EC0EAFF17
:100128000DC0E9FF0CC0FBFF0BC0FAFF0AC0E0FFDF
:1001380009C0E8FF08C0D8FF47901000D9EF15F0B4
:100148000001B16F0001B1510001D8A458D00001DD
:10015800AC29D8A454D00F010197A8C0ADF0A9C00C
:10016800AEF0AAC0AFF0ABC0B0F0040E06D00001EC
:10017800D890B033AF33AE33AD33E82EF8D7ADC037
:10018800B2F0AEC0B3F0AFC0B4F0B0C0B5F000018B
:10019800B2510001B26FB36BB46BB56BB2C000FF64
:1001A800070E0001A8150001B26F000E0001A91585
:1001B8000001B36F000E0001AA150001B46F000E14
:1001C8000001AB150001B56FB2C0ADF0B3C0AEF021
:1001D800B4C0AFF0B5C0B0F0050ED8900001AD378F
:1001E800AE37AF37B037E82EF8D7ADC0B2F0AEC0F3
:1001F800B3F0AFC0B4F0B0C0B5F0B2C001FF0001B9
:10020800B105D8A458D00001AC29D8A454D00F0106
:100218000597A8C0ADF0A9C0AEF0AAC0AFF0ABC0BA
:10022800B0F0040E06D00001D890B033AF33AE332F
:10023800AD33E82EF8D7ADC0B2F0AEC0B3F0AFC062
:10024800B4F0B0C0B5F00001B2510001B26FB36BA9
:10025800B46BB56BB2C004FF070E0001A81500010E
:10026800B26F000E0001A9150001B36F000E000166
:10027800AA150001B46F000E0001AB150001B56F9F
:10028800B2C0ADF0B3C0AEF0B4C0AFF0B5C0B0F01E
:10029800050ED8900001AD37AE37AF37B037E82E2E
:1002A800F8D7ADC0B2F0AEC0B3F0AFC0B4F0B0C0D4
:1002B800B5F0B2C005FF020E0001B119D8A458D09C
:1002C8000001AC29D8A454D00F010997A8C0ADF0FB
:1002D800A9C0AEF0AAC0AFF0ABC0B0F0040E06D013
:1002E8000001D890B033AF33AE33AD33E82EF8D732
:1002F800ADC0B2F0AEC0B3F0AFC0B4F0B0C0B5F0AE
:100308000001B2510001B26FB36BB46BB56BB2C0F0
:1003180008FF070E0001A8150001B26F000E0001CA
:10032800A9150001B36F000E0001AA150001B46FF2
:10033800000E0001AB150001B56FB2C0ADF0B3C03F
:10034800AEF0B4C0AFF0B5C0B0F0050ED890000163
:10035800AD37AE37AF37B037E82EF8D7ADC0B2F00B
:10036800AEC0B3F0AFC0B4F0B0C0B5F0B2C009FFD2
:10037800030E0001B119D8A458D00001AC29D8A4A3
:1003880054D00F010D97A8C0ADF0A9C0AEF0AAC017
:10039800AFF0ABC0B0F0040E06D00001D890B03377
:1003A800AF33AE33AD33E82EF8D7ADC0B2F0AEC040
:1003B800B3F0AFC0B4F0B0C0B5F00001B251000165
:1003C800B26FB36BB46BB56BB2C00CFF070E000114
:1003D800A8150001B26F000E0001A9150001B36F46
:1003E800000E0001AA150001B46F000E0001AB1544
:1003F8000001B56FB2C0ADF0B3C0AEF0B4C0AFF09D
:10040800B5C0B0F0050ED8900001AD37AE37AF37A4
:10041800B037E82EF8D7ADC0B2F0AEC0B3F0AFC079
:10042800B4F0B0C0B5F0B2C00DFF040E0001B119B0
:10043800D8A458D00001AC29D8A454D00F011197E2
:10044800A8C0ADF0A9C0AEF0AAC0AFF0ABC0B0F084
:10045800040E06D00001D890B033AF33AE33AD33BD
:10046800E82EF8D7ADC0B2F0AEC0B3F0AFC0B4F06C
:10047800B0C0B5F00001B2510001B26FB36BB46BFC
:10048800B56BB2C010FF070E0001A8150001B26FCE
:10049800000E0001A9150001B36F000E0001AA1596
:1004A8000001B46F000E0001AB150001B56FB2C0BA
:1004B800ADF0B3C0AEF0B4C0AFF0B5C0B0F0050E4B
:1004C800D8900001AD37AE37AF37B037E82EF8D740
:1004D800ADC0B2F0AEC0B3F0AFC0B4F0B0C0B5F0CC
:1004E800B2C011FF050E0001B119D8A458D00001FF
:1004F800AC29D8A454D00F011597A8C0ADF0A9C055
:10050800AEF0AAC0AFF0ABC0B0F0040E06D0000148
:10051800D890B033AF33AE33AD33E82EF8D7ADC093
:10052800B2F0AEC0B3F0AFC0B4F0B0C0B5F00001E7
:10053800B2510001B26FB36BB46BB56BB2C014FFAC
:10054800070E0001A8150001B26F000E0001A915E1
:100558000001B36F000E0001AA150001B46F000E70
:100568000001AB150001B56FB2C0ADF0B3C0AEF07D
:10057800B4C0AFF0B5C0B0F0050ED8900001AD37EB
:10058800AE37AF37B037E82EF8D7ADC0B2F0AEC04F
:10059800B3F0AFC0B4F0B0C0B5F0B2C015FF000101
:1005A800B1510001D8A489D0F70E0001AC19D8A424
:1005B80084D00F0101870001A8510001B26FB36B0D
:1005C800B46BB56BB2C003FF000E0001A8150001A3
:1005D800B26FFF0E0001A9150001B36F000E0001F4
:1005E800AA150001B46F000E0001AB150001B56F2C
:1005F800B2C0ADF0B3C0AEF0B4C0AFF0B5C0B0F0AB
:10060800AEC0ADF0AFC0AEF0B0C0AFF00001B06B9F
:10061800ADC0B2F0AEC0B3F0AFC0B4F0B0C0B5F08A
:10062800B2C002FF0001AAA103D00F01018102D0CC
:100638000F0101910001AAA303D00F01018302D089
:100648000F0101930001AAA503D00F01018B02D06D
:100658000F01019B0001AAA703D00F01018D02D051
:100668000F01019D0001AAA903D00F01018F02D03B
:100678000F01019FA8C0ADF0A9C0AEF0AAC0AFF0AD
:10068800ABC0B0F0160E06D00001D890B033AF332F
:10069800AE33AD33E82EF8D7ADC0B2F0AEC0B3F08C
:1006A800AFC0B4F0B0C0B5F00001B2510001B26FF4
:1006B800B36BB46BB56BB2C000FF0001B105D8A431
:1006C80089D0F70E0001AC19D8A484D00F01058792
:1006D8000001A8510001B26FB36BB46BB56BB2C027
:1006E80007FF000E0001A8150001B26FFF0E000100
:1006F800A9150001B36F000E0001AA150001B46F1F
:10070800000E0001AB150001B56FB2C0ADF0B3C06B
:10071800AEF0B4C0AFF0B5C0B0F0AEC0ADF0AFC091
:10072800AEF0B0C0AFF00001B06BADC0B2F0AEC07B
:10073800B3F0AFC0B4F0B0C0B5F0B2C006FF00016E
:10074800AAA103D00F01058102D00F010591000174
:10075800AAA303D00F01058302D00F01059300015E
:10076800AAA503D00F01058B02D00F01059B00013C
:10077800AAA703D00F01058D02D00F01059D000126
:10078800AAA903D00F01058F02D00F01059FA8C0A9
:10079800ADF0A9C0AEF0AAC0AFF0ABC0B0F0160E75
:1007A80006D00001D890B033AF33AE33AD33E82E66
:1007B800F8D7ADC0B2F0AEC0B3F0AFC0B4F0B0C0BF
:1007C800B5F00001B2510001B26FB36BB46BB56BF9
:1007D800B2C004FF020E0001B119D8A489D0F70EE7
:1007E8000001AC19D8A484D00F0109870001A851D1
:1007F8000001B26FB36BB46BB56BB2C00BFF000EE8
:100808000001A8150001B26FFF0E0001A915000133
:10081800B36F000E0001AA150001B46F000E0001AD
:10082800AB150001B56FB2C0ADF0B3C0AEF0B4C047
:10083800AFF0B5C0B0F0AEC0ADF0AFC0AEF0B0C074
:10084800AFF00001B06BADC0B2F0AEC0B3F0AFC056
:10085800B4F0B0C0B5F0B2C00AFF0001AAA103D03D
:100868000F01098102D00F0109910001AAA303D049
:100878000F01098302D00F0109930001AAA503D033
:100888000F01098B02D00F01099B0001AAA703D011
:100898000F01098D02D00F01099D0001AAA903D0FB
:1008A8000F01098F02D00F01099FA8C0ADF0A9C0A0
:1008B800AEF0AAC0AFF0ABC0B0F0160E06D0000183
:1008C800D890B033AF33AE33AD33E82EF8D7ADC0E0
:1008D800B2F0AEC0B3F0AFC0B4F0B0C0B5F0000134
:1008E800B2510001B26FB36BB46BB56BB2C008FF05
:1008F800030E0001B119D8A489D0F70E0001AC1974
:10090800D8A484D00F010D870001A8510001B26F4F
:10091800B36BB46BB56BB2C00FFF000E0001A81526
:100928000001B26FFF0E0001A9150001B36F000EA0
:100938000001AA150001B46F000E0001AB150001FB
:10094800B56FB2C0ADF0B3C0AEF0B4C0AFF0B5C0D3
:10095800B0F0AEC0ADF0AFC0AEF0B0C0AFF00001C7
:10096800B06BADC0B2F0AEC0B3F0AFC0B4F0B0C0C1
:10097800B5F0B2C00EFF0001AAA103D00F010D818E
:1009880002D00F010D910001AAA303D00F010D831E
:1009980002D00F010D930001AAA503D00F010D8B02
:1009A80002D00F010D9B0001AAA703D00F010D8DE6
:1009B80002D00F010D9D0001AAA903D00F010D8FD0
:1009C80002D00F010D9FA8C0ADF0A9C0AEF0AAC01B
:1009D800AFF0ABC0B0F0160E06D00001D890B0331F
:1009E800AF33AE33AD33E82EF8D7ADC0B2F0AEC0FA
:1009F800B3F0AFC0B4F0B0C0B5F00001B25100011F
:100A0800B26FB36BB46BB56BB2C00CFF040E0001D0
:100A1800B119D8A489D0F70E0001AC19D8A484D094
:100A28000F0111870001A8510001B26FB36BB46BBD
:100A3800B56BB2C013FF000E0001A8150001B26F1C
:100A4800FF0E0001A9150001B36F000E0001AA15E1
:100A58000001B46F000E0001AB150001B56FB2C004
:100A6800ADF0B3C0AEF0B4C0AFF0B5C0B0F0AEC03A
:100A7800ADF0AFC0AEF0B0C0AFF00001B06BADC02C
:100A8800B2F0AEC0B3F0AFC0B4F0B0C0B5F0B2C011
:100A980012FF0001AAA103D00F01118102D00F019A
:100AA80011910001AAA303D00F01118302D00F01F5
:100AB80011930001AAA503D00F01118B02D00F01D9
:100AC800119B0001AAA703D00F01118D02D00F01BD
:100AD800119D0001AAA903D00F01118F02D00F01A7
:100AE800119FA8C0ADF0A9C0AEF0AAC0AFF0ABC0CE
:100AF800B0F0160E06D00001D890B033AF33AE3345
:100B0800AD33E82EF8D7ADC0B2F0AEC0B3F0AFC089
:100B1800B4F0B0C0B5F00001B2510001B26FB36BD0
:100B2800B46BB56BB2C010FF050E0001B119D8A4A3
:100B38001200F70E0001AC19D8A412000F01158796
:100B48000001A8510001B26FB36BB46BB56BB2C0B2
:100B580017FF000E0001A8150001B26FFF0E00017B
:100B6800A9150001B36F000E0001AA150001B46FAA
:100B7800000E0001AB150001B56FB2C0ADF0B3C0F7
:100B8800AEF0B4C0AFF0B5C0B0F0AEC0ADF0AFC01D
:100B9800AEF0B0C0AFF00001B06BADC0B2F0AEC007
:100BA800B3F0AFC0B4F0B0C0B5F0B2C016FF0001EA
:100BB800AAA103D00F01158102D00F0115910001E0
:100BC800AAA303D00F01158302D00F0115930001CA
:100BD800AAA503D00F01158B02D00F01159B0001A8
:100BE800AAA703D00F01158D02D00F01159D000192
:100BF800AAA903D00F01158F02D00F01159FA8C015
:100C0800ADF0A9C0AEF0AAC0AFF0ABC0B0F0160E00
:100C180006D00001D890B033AF33AE33AD33E82EF1
:100C2800F8D7ADC0B2F0AEC0B3F0AFC0B4F0B0C04A
:100C3800B5F00001B2510001B26FB36BB46BB56B84
:100C4800B2C014FF12000F0140B73FD1AEC045FF3C
:100C58000001AFAD03D00F01458D02D00F01459DB6
:100C68000001AFA779D00001A8510001B46FB56B9E
:100C7800B66BB76BB4C044FF000E0001A8150001A5
:100C8800B46FFF0E0001A9150001B56F000E000139
:100C9800AA150001B66F000E0001AB150001B76F71
:100CA800B4C0B0F0B5C0B1F0B6C0B2F0B7C0B3F0E0
:100CB800B1C0B0F0B2C0B1F0B3C0B2F00001B36BD4
:100CC800B0C0B4F0B1C0B5F0B2C0B6F0B3C0B7F0C0
:100CD800B4C043FF000E0F01426F0F0142870001AD
:100CE800AAA102D00F0142810001AAA302D00F01DC
:100CF80042830001AAA502D00F01428B0001AAA7D6
:100D080002D00F01428D0001AAA902D00F01428F23
:100D1800A8C0B0F0A9C0B1F0AAC0B2F0ABC0B3F09F
:100D2800160E06D00001D890B333B233B133B033C6
:100D3800E82EF8D7B0C0B4F0B1C0B5F0B2C0B6F084
:100D4800B3C0B7F00001B4510001B46FB56BB66B16
:100D5800B76BB4C041FF59D00F014297A8C0B0F09B
:100D6800A9C0B1F0AAC0B2F0ABC0B3F0040E06D06F
:100D78000001D890B333B233B133B033E82EF8D78B
:100D8800B0C0B4F0B1C0B5F0B2C0B6F0B3C0B7F0FF
:100D98000001B4510001B46FB56BB66BB76BB4C04A
:100DA80041FF070E0001A8150001B46F000E0001F5
:100DB800A9150001B56F000E0001AA150001B66F54
:100DC800000E0001AB150001B76FB4C0B0F0B5C09C
:100DD800B1F0B6C0B2F0B7C0B3F0050ED8900001BC
:100DE800B037B137B237B337E82EF8D7B0C0B4F060
:100DF800B1C0B5F0B2C0B6F0B3C0B7F00F01425100
:100E08001F0B0F01426FB4C042FF0001AFA103D016
:100E18000F01408102D00F0140910001AFA303D020
:100E28000F01408302D00F014093ACC0D9FFADC081
:100E3800DAFFDF500F01466F000120EE01F0AC51E0
:100E4800D926AD51DA22DF500F01476F000120EE9D
:100E580002F0AC51D926AD51DA22DF500F01486FAC
:100E6800000120EE03F0AC51D926AD51DA22DF5053
:100E78000F01496F000120EE04F0AC51D926AD51A5
:100E8800DA22DF500F014A6F000120EE05F0AC5165
:100E9800D926AD51DA22DF500F014B6F000120EE49
:100EA80006F0AC51D926AD51DA22DF500F014C6F54
:100EB800000120EE07F0AC51D926AD51DA22DF50FF
:100EC8000F014D6F0F01408712000F0130B73FD15E
:100ED800AEC035FF0001AFAD03D00F01358D02D094
:100EE8000F01359D0001AFA779D00001A85100017D
:100EF800B46FB56BB66BB76BB4C034FF000E0001AE
:100F0800A8150001B46FFF0E0001A9150001B56F07
:100F1800000E0001AA150001B66F000E0001AB1506
:100F28000001B76FB4C0B0F0B5C0B1F0B6C0B2F050
:100F3800B7C0B3F0B1C0B0F0B2C0B1F0B3C0B2F056
:100F48000001B36BB0C0B4F0B1C0B5F0B2C0B6F038
:100F5800B3C0B7F0B4C033FF000E0F01326F0F01FA
:100F680032870001AAA102D00F0132810001AAA391
:100F780002D00F0132830001AAA502D00F01328BE3
:100F88000001AAA702D00F01328D0001AAA902D040
:100F98000F01328FA8C0B0F0A9C0B1F0AAC0B2F05A
:100FA800ABC0B3F0160E06D00001D890B333B233FD
:100FB800B133B033E82EF8D7B0C0B4F0B1C0B5F053
:100FC800B2C0B6F0B3C0B7F00001B4510001B46FBD
:100FD800B56BB66BB76BB4C031FF59D00F01329700
:100FE800A8C0B0F0A9C0B1F0AAC0B2F0ABC0B3F0CD
:100FF800040E06D00001D890B333B233B133B03306
:10100800E82EF8D7B0C0B4F0B1C0B5F0B2C0B6F0B1
:10101800B3C0B7F00001B4510001B46FB56BB66B43
:10102800B76BB4C031FF070E0001A8150001B46FFB
:10103800000E0001A9150001B56F000E0001AA15E8
:101048000001B66F000E0001AB150001B76FB4C008
:10105800B0F0B5C0B1F0B6C0B2F0B7C0B3F0050E8D
:10106800D8900001B037B137B237B337E82EF8D788
:10107800B0C0B4F0B1C0B5F0B2C0B6F0B3C0B7F00C
:101088000F0132511F0B0F01326FB4C032FF000144
:10109800AFA103D00F01308102D00F0130910001C0
:1010A800AFA303D00F01308302D00F013093ACC03F
:1010B800D9FFADC0DAFFDF500F01366F000120EE17
:1010C80001F0AC51D926AD51DA22DF500F01376F4C
:1010D800000120EE02F0AC51D926AD51DA22DF50E2
:1010E8000F01386F000120EE03F0AC51D926AD5145
:1010F800DA22DF500F01396F000120EE04F0AC5105
:10110800D926AD51DA22DF500F013A6F000120EEE7
:1011180005F0AC51D926AD51DA22DF500F013B6FF3
:10112800000120EE06F0AC51D926AD51DA22DF508D
:101138000F013C6F000120EE07F0AC51D926AD51EC
:10114800DA22DF500F013D6F0F01308712000F01C7
:1011580020B71200AEC025FF0001AFAD03D00F01CC
:10116800258D02D00F01259D0001AFA779D0000180
:10117800A8510001B46FB56BB66BB76BB4C024FF50
:10118800000E0001A8150001B46FFF0E0001A9159B
:101198000001B56F000E0001AA150001B66F000E20
:1011A8000001AB150001B76FB4C0B0F0B5C0B1F025
:1011B800B6C0B2F0B7C0B3F0B1C0B0F0B2C0B1F0D1
:1011C800B3C0B2F00001B36BB0C0B4F0B1C0B5F0B9
:1011D800B2C0B6F0B3C0B7F0B4C023FF000E0F0121
:1011E800226F0F0122870001AAA102D00F012281DC
:1011F8000001AAA302D00F0122830001AAA502D0F0
:101208000F01228B0001AAA702D00F01228D000135
:10121800AAA902D00F01228FA8C0B0F0A9C0B1F0CE
:10122800AAC0B2F0ABC0B3F0160E06D00001D89039
:10123800B333B233B133B033E82EF8D7B0C0B4F01B
:10124800B1C0B5F0B2C0B6F0B3C0B7F00001B45148
:101258000001B46FB56BB66BB76BB4C021FF59D042
:101268000F012297A8C0B0F0A9C0B1F0AAC0B2F08F
:10127800ABC0B3F0040E06D00001D890B333B2333C
:10128800B133B033E82EF8D7B0C0B4F0B1C0B5F080
:10129800B2C0B6F0B3C0B7F00001B4510001B46FEA
:1012A800B56BB66BB76BB4C021FF070E0001A8156C
:1012B8000001B46F000E0001A9150001B56F000E02
:1012C8000001AA150001B66F000E0001AB15000160
:1012D800B76FB4C0B0F0B5C0B1F0B6C0B2F0B7C027
:1012E800B3F0050ED8900001B037B137B237B33735
:1012F800E82EF8D7B0C0B4F0B1C0B5F0B2C0B6F0BF
:10130800B3C0B7F00F0122511F0B0F01226FB4C0F9
:1013180022FF0001AFA103D00F01208102D00F01ED
:1013280020910001AFA303D00F01208302D00F0149
:101338002093ACC0D9FFADC0DAFFDF500F01266F94
:10134800000120EE01F0AC51D926AD51DA22DF5070
:101358000F01276F000120EE02F0AC51D926AD51E4
:10136800DA22DF500F01286F000120EE03F0AC51A4
:10137800D926AD51DA22DF500F01296F000120EE86
:1013880004F0AC51D926AD51DA22DF500F012A6F93
:10139800000120EE05F0AC51D926AD51DA22DF501C
:1013A8000F012B6F000120EE06F0AC51D926AD518C
:1013B800DA22DF500F012C6F000120EE07F0AC514C
:1013C800D926AD51DA22DF500F012D6F0F0120878A
:1013D80012000F0140B722D11FC045FF20AC03D037
:1013E8000F01458D02D00F01459D20A66DD01950E3
:1013F8000001946F956B966B976B94C044FF000E39
:1014080019140001946FFF0E1A140001956F000E55
:101418001B140001966F000E1C140001976F94C0F6
:1014280021F095C022F096C023F097C024F022C086
:1014380021F023C022F024C023F0246A21C094F0B4
:1014480022C095F023C096F024C097F094C043FFC3
:10145800000E0F01426F0F0142871BA002D00F013F
:1014680042811BA202D00F0142831BA402D00F01AC
:10147800428B1BA602D00F01428D1BA802D00F0180
:10148800428F19C021F01AC022F01BC023F01CC0E3
:1014980024F0160E05D0D89024322332223221327D
:1014A800E82EF9D721C094F022C095F023C096F019
:1014B80024C097F0000194510001946F956B966BCE
:1014C800976B94C041FF53D00F01429719C021F088
:1014D8001AC022F01BC023F01CC024F0040E05D053
:1014E800D8902432233222322132E82EF9D721C073
:1014F80094F022C095F023C096F024C097F0000124
:1015080094510001946F956B966B976B94C041FF53
:10151800070E19140001946F000E1A140001956F3C
:10152800000E1B140001966F000E1C140001976F2B
:1015380094C021F095C022F096C023F097C024F003
:10154800050ED8902136223623362436E82EF9D7D0
:1015580021C094F022C095F023C096F024C097F0E3
:101568000F0142511F0B0F01426F94C042FF20A090
:1015780003D00F01408102D00F01409120A203D077
:101588000F01408302D00F0140931DC0D9FF1EC038
:10159800DAFFDF500F01466F20EE01F01D50D9260B
:1015A8001E50DA22DF500F01476F20EE02F01D5067
:1015B800D9261E50DA22DF500F01486F20EE03F0C3
:1015C8001D50D9261E50DA22DF500F01496F20EE38
:1015D80004F01D50D9261E50DA22DF500F014A6F41
:1015E80020EE05F01D50D9261E50DA22DF500F01DB
:1015F8004B6F20EE06F01D50D9261E50DA22DF5020
:101608000F014C6F20EE07F01D50D9261E50DA222C
:10161800DF500F014D6F0F01408712000F0130B7E7
:1016280022D11FC035FF20AC03D00F01358D02D069
:101638000F01359D20A66DD019500001946F956B50
:10164800966B976B94C034FF000E19140001946FC9
:10165800FF0E1A140001956F000E1B140001966FFF
:10166800000E1C140001976F94C021F095C022F061
:1016780096C023F097C024F022C021F023C022F0A6
:1016880024C023F0246A21C094F022C095F023C01E
:1016980096F024C097F094C033FF000E0F01326F0C
:1016A8000F0132871BA002D00F0132811BA202D08A
:1016B8000F0132831BA402D00F01328B1BA602D06C
:1016C8000F01328D1BA802D00F01328F19C021F0F3
:1016D8001AC022F01BC023F01CC024F0160E05D03F
:1016E800D8902432233222322132E82EF9D721C071
:1016F80094F022C095F023C096F024C097F0000122
:1017080094510001946F956B966B976B94C031FF61
:1017180053D00F01329719C021F01AC022F01BC014
:1017280023F01CC024F0040E05D0D89024322332B4
:1017380022322132E82EF9D721C094F022C095F048
:1017480023C096F024C097F0000194510001946FD3
:10175800956B966B976B94C031FF070E19140001B7
:10176800946F000E1A140001956F000E1B140001EF
:10177800966F000E1C140001976F94C021F095C05D
:1017880022F096C023F097C024F0050ED890213699
:10179800223623362436E82EF9D721C094F022C009
:1017A80095F023C096F024C097F00F0132511F0B1B
:1017B8000F01326F94C032FF20A003D00F01308197
:1017C80002D00F01309120A203D00F01308302D044
:1017D8000F0130931DC0D9FF1EC0DAFFDF500F0183
:1017E800366F20EE01F01D50D9261E50DA22DF5048
:1017F8000F01376F20EE02F01D50D9261E50DA2255
:10180800DF500F01386F20EE03F01D50D9261E500F
:10181800DA22DF500F01396F20EE04F01D50D9266F
:101828001E50DA22DF500F013A6F20EE05F01D50EE
:10183800D9261E50DA22DF500F013B6F20EE06F04A
:101848001D50D9261E50DA22DF500F013C6F20EEC2
:1018580007F01D50D9261E50DA22DF500F013D6FC8
:101868000F01308712000F0120B712001FC025FF9B
:1018780020AC03D00F01258D02D00F01259D20A695
:101888006DD019500001946F956B966B976B94C04F
:1018980024FF000E19140001946FFF0E1A140001A2
:1018A800956F000E1B140001966F000E1C140001AA
:1018B800976F94C021F095C022F096C023F097C08E
:1018C80024F022C021F023C022F024C023F0246A8F
:1018D80021C094F022C095F023C096F024C097F060
:1018E80094C023FF000E0F01226F0F0122871BA057
:1018F80002D00F0122811BA202D00F0122831BA458
:1019080002D00F01228B1BA602D00F01228D1BA82B
:1019180002D00F01228F19C021F01AC022F01BC07B
:1019280023F01CC024F0160E05D0D89024322332A0
:1019380022322132E82EF9D721C094F022C095F046
:1019480023C096F024C097F0000194510001946FD1
:10195800956B966B976B94C021FF53D00F0122971C
:1019680019C021F01AC022F01BC023F01CC024F0BB
:10197800040E05D0D8902432233222322132E82EA8
:10198800F9D721C094F022C095F023C096F024C066
:1019980097F0000194510001946F956B966B976BCB
:1019A80094C021FF070E19140001946F000E1A1439
:1019B8000001956F000E1B140001966F000E1C1499
:1019C8000001976F94C021F095C022F096C023F0D3
:1019D80097C024F0050ED8902136223623362436B7
:1019E800E82EF9D721C094F022C095F023C096F0D4
:1019F80024C097F00F0122511F0B0F01226F94C0D2
:101A080022FF20A003D00F01208102D00F012091D6
:101A180020A203D00F01208302D00F0120931DC004
:101A2800D9FF1EC0DAFFDF500F01266F20EE01F04C
:101A38001D50D9261E50DA22DF500F01276F20EEE5
:101A480002F01D50D9261E50DA22DF500F01286FF0
:101A580020EE03F01D50D9261E50DA22DF500F0168
:101A6800296F20EE04F01D50D9261E50DA22DF50CF
:101A78000F012A6F20EE05F01D50D9261E50DA22DC
:101A8800DF500F012B6F20EE06F01D50D9261E5097
:101A9800DA22DF500F012C6F20EE07F01D50D926F7
:101AA8001E50DA22DF500F012D6F0F012087120020
:101AB800000E236E74BE238074BC23820F0150AFC6
:101AC80043D119C0D9FF1AC0DAFFDE6ADE6ADE6ABE
:101AD800DD6A20EE04F01950D9261A50DA2256CFC2
:101AE800DFFF20EE05F01950D9261A50DA2257CF19
:101AF800DFFF20EE06F01950D9261A50DA2258CF07
:101B0800DFFF20EE07F01950D9261A50DA2259CFF4
:101B1800DFFF20EE08F01950D9261A50DA225ACFE2
:101B2800DFFF20EE09F01950D9261A50DA225BCFD0
:101B3800DFFF20EE0AF01950D9261A50DA225CCFBE
:101B4800DFFF20EE0BF01950D9261A50DA225DCFAC
:101B5800DFFF20EE0EF01950D9261A50DA220F01B5
:101B680055AD02D0010E01D0000EDF6E20EE0DF053
:101B78001950D9261A50DA220F0155510F0BDF6E72
:101B880020EE0CF01950D9261A50DA220F0152A76C
:101B980002D0010E01D0000EDF6E0F0152B744D003
:101BA80051CF1BF01C6A1D6A1E6A030ED8901B36A3
:101BB8001C361D361E36E82EF9D719C0D9FF1AC0B3
:101BC800DAFF1BC0DEFF1CC0DEFF1DC0DEFF1EC02B
:101BD800DEFF0F015239E842070B070B246E19C0CC
:101BE800D9FF1AC0DAFFDECF1BF0DECF1CF0DECF44
:101BF8001DF0DECF1EF024501B241F6E000E1C208B
:101C0800206E000E1D20216E000E1E20226E19C0AF
:101C1800D9FF1AC0DAFF1FC0DEFF20C0DEFF21C0D7
:101C2800DEFF22C0DEFF8DD054CF1BF01C6A1D6A78
:101C38001E6A19C0D9FF1AC0DAFF1BC0DEFF1CC01C
:101C4800DEFF1DC0DEFF1EC0DEFF53CF1BF01C6A87
:101C58001D6A1E6A1DC01EF01CC01DF01BC01CF0B2
:101C68001B6A19C0D9FF1AC0DAFF1B50DE261C50A8
:101C7800DE221D50DE221E50DE220F0152A10CD0A2
:101C880019C0D9FF1AC0DAFF000EDE12000EDE12EC
:101C9800010EDE12000EDE120F0152A30CD019C085
:101CA800D9FF1AC0DAFF000EDE12000EDE12020E95
:101CB800DE12000EDE120F0152AB0CD019C0D9FF94
:101CC8001AC0DAFF000EDE12000EDE12040EDE125B
:101CD800000EDE120F0152AD0CD019C0D9FF1AC088
:101CE800DAFF000EDE12000EDE12080EDE12000E03
:101CF800DE120F0152AF0CD019C0D9FF1AC0DAFF9B
:101D0800000EDE12000EDE12100EDE12000EDE12C3
:101D180051CF1BF01C6A1D6A1E6A150ED8901B361F
:101D28001C361D361E36E82EF9D719C0D9FF1AC041
:101D3800DAFF1B50DE121C50DE121D50DE121E5040
:101D4800DE120F01509F120060AE120019C0D9FFB9
:101D58001AC0DAFFDE6ADE6ADE6ADD6A20EE04F0A7
:101D68001950D9261A50DA2266CFDFFF20EE05F087
:101D78001950D9261A50DA2267CFDFFF20EE06F075
:101D88001950D9261A50DA2268CFDFFF20EE07F063
:101D98001950D9261A50DA2269CFDFFF20EE08F051
:101DA8001950D9261A50DA226ACFDFFF20EE09F03F
:101DB8001950D9261A50DA226BCFDFFF20EE0AF02D
:101DC8001950D9261A50DA226CCFDFFF20EE0BF01B
:101DD8001950D9261A50DA226DCFDFFF20EE0EF007
:101DE8001950D9261A50DA2265AC02D0010E01D05A
:101DF800000EDF6E20EE0DF01950D9261A50DA22A7
:101E080065500F0BDF6E20EE0CF01950D9261A50D2
:101E1800DA2262A602D0010E01D0000EDF6E62B691
:101E280043D061CF1BF01C6A1D6A1E6A030ED8904E
:101E38001B361C361D361E36E82EF9D719C0D9FFB9
:101E48001AC0DAFF1BC0DEFF1CC0DEFF1DC0DEFFAC
:101E58001EC0DEFF6238E842070B070B246E19C06C
:101E6800D9FF1AC0DAFFDECF1BF0DECF1CF0DECFC1
:101E78001DF0DECF1EF024501B241F6E000E1C2008
:101E8800206E000E1D20216E000E1E20226E19C02D
:101E9800D9FF1AC0DAFF1FC0DEFF20C0DEFF21C055
:101EA800DEFF22C0DEFF88D064CF1BF01C6A1D6AEB
:101EB8001E6A19C0D9FF1AC0DAFF1BC0DEFF1CC09A
:101EC800DEFF1DC0DEFF1EC0DEFF63CF1BF01C6AF5
:101ED8001D6A1E6A1DC01EF01CC01DF01BC01CF030
:101EE8001B6A19C0D9FF1AC0DAFF1B50DE261C5026
:101EF800DE221D50DE221E50DE2262A00CD019C048
:101F0800D9FF1AC0DAFF000EDE12000EDE12010E33
:101F1800DE12000EDE1262A20CD019C0D9FF1AC060
:101F2800DAFF000EDE12000EDE12020EDE12000EC6
:101F3800DE1262AA0CD019C0D9FF1AC0DAFF000E4F
:101F4800DE12000EDE12040EDE12000EDE1262AC8D
:101F58000CD019C0D9FF1AC0DAFF000EDE12000E2D
:101F6800DE12080EDE12000EDE1262AE0CD019C0B0
:101F7800D9FF1AC0DAFF000EDE12000EDE12100EB4
:101F8800DE12000EDE1261CF1BF01C6A1D6A1E6A8B
:101F9800150ED8901B361C361D361E36E82EF9D77E
:101FA80019C0D9FF1AC0DAFF1B50DE121C50DE120E
:101FB8001D50DE121E50DE12609E12000001B16F2D
:101FC8000001B105D8A456D00001AC29D8A452D03C
:101FD800A8C0ADF0A9C0AEF0AAC0AFF0ABC0B0F0D9
:101FE800040E06D00001D890B033AF33AE33AD3312
:101FF800E82EF8D7ADC0B2F0AEC0B3F0AFC0B4F0C1
:10200800B0C0B5F00001B2510001B26FB36BB46B50
:10201800B56BB2C018FF070E0001A8150001B26F1A
:10202800000E0001A9150001B36F000E0001AA15EA
:102038000001B46F000E0001AB150001B56FB2C00E
:10204800ADF0B3C0AEF0B4C0AFF0B5C0B0F0050E9F
:10205800D8900001AD37AE37AF37B037E82EF8D794
:10206800ADC0B2F0AEC0B3F0AFC0B4F0B0C0B5F020
:10207800B2C019FF020E0001B119D8A456D0000150
:10208800AC29D8A452D0A8C0ADF0A9C0AEF0AAC05F
:10209800AFF0ABC0B0F0040E06D00001D890B0335A
:1020A800AF33AE33AD33E82EF8D7ADC0B2F0AEC023
:1020B800B3F0AFC0B4F0B0C0B5F00001B251000148
:1020C800B26FB36BB46BB56BB2C01CFF070E0001E7
:1020D800A8150001B26F000E0001A9150001B36F29
:1020E800000E0001AA150001B46F000E0001AB1527
:1020F8000001B56FB2C0ADF0B3C0AEF0B4C0AFF080
:10210800B5C0B0F0050ED8900001AD37AE37AF3787
:10211800B037E82EF8D7ADC0B2F0AEC0B3F0AFC05C
:10212800B4F0B0C0B5F0B2C01DFF0001B105D8A42D
:1021380087D0F70E0001AC19D8A482D00001A851AD
:102148000001B26FB36BB46BB56BB2C01BFF000E6E
:102158000001A8150001B26FFF0E0001A9150001CA
:10216800B36F000E0001AA150001B46F000E000144
:10217800AB150001B56FB2C0ADF0B3C0AEF0B4C0DE
:10218800AFF0B5C0B0F0AEC0ADF0AFC0AEF0B0C00B
:10219800AFF00001B06BADC0B2F0AEC0B3F0AFC0ED
:1021A800B4F0B0C0B5F0B2C01AFF0001AAA103D0C4
:1021B8000F01198102D00F0119910001AAA303D0C0
:1021C8000F01198302D00F0119930001AAA503D0AA
:1021D8000F01198B02D00F01199B0001AAA703D088
:1021E8000F01198D02D00F01199D0001AAA903D072
:1021F8000F01198F02D00F01199FA8C0ADF0A9C017
:10220800AEF0AAC0AFF0ABC0B0F0160E06D0000119
:10221800D890B033AF33AE33AD33E82EF8D7ADC076
:10222800B2F0AEC0B3F0AFC0B4F0B0C0B5F00001CA
:10223800B2510001B26FB36BB46BB56BB2C018FF8B
:10224800020E0001B119D8A41200F70E0001AC1952
:10225800D8A412000001A8510001B26FB36BB46B8F
:10226800B56BB2C01FFF000E0001A8150001B26FC8
:10227800FF0E0001A9150001B36F000E0001AA1599
:102288000001B46F000E0001AB150001B56FB2C0BC
:10229800ADF0B3C0AEF0B4C0AFF0B5C0B0F0AEC0F2
:1022A800ADF0AFC0AEF0B0C0AFF00001B06BADC0E4
:1022B800B2F0AEC0B3F0AFC0B4F0B0C0B5F0B2C0C9
:1022C8001EFF0001AAA103D00F011D8102D00F013A
:1022D8001D910001AAA303D00F011D8302D00F0195
:1022E8001D930001AAA503D00F011D8B02D00F0179
:1022F8001D9B0001AAA703D00F011D8D02D00F015D
:102308001D9D0001AAA903D00F011D8F02D00F0146
:102318001D9FA8C0ADF0A9C0AEF0AAC0AFF0ABC079
:10232800B0F0160E06D00001D890B033AF33AE33FC
:10233800AD33E82EF8D7ADC0B2F0AEC0B3F0AFC041
:10234800B4F0B0C0B5F00001B2510001B26FB36B88
:10235800B46BB56BB2C01CFF120051EC15F08C8445
:102368008C868C808C828C888C8C8C8A010E0001E7
:10237800AF6FF40EAE6FFDEC15F08C948C968C90CC
:102388008C928C988C9C8C9A46A485D0A5EC13F0E2
:10239800AA0E0001CF6FAA0E0001D56F000E000132
:1023A800D66F000E0001C56F050E0001C56501D08E
:1023B8002ED00001C551010DCF0EF324D96E000EA9
:1023C800F420DA6EDF50D8A41FD00001C551010DEA
:1023D800CF0EF324D96E000EF420DA6E010EDF6EF4
:1023E8000001C551010DCF0EF324D96E000EF42063
:1023F800DA6E0001C551010DC60EF324E16E000E20
:10240800F420E26EDFCFE7FF0001C52BCDD7000E29
:1024180000016C6F010E0001C46F050E0001C46558
:1024280001D01BD00001C451010DC60EF324D96E92
:10243800000EF420DA6E0001C451010DCF0EF32412
:10244800E16E000EF420E26EDE50E618D8A402D049
:1024580000016C2B0001C42BE0D7ACA21BD0050EE9
:1024680000016C19D8B416D08CA002D0010E01D08E
:10247800000EFF0A0001C26F8C500001C219FE0B4A
:10248800C2198C6ECF0E0001A96F000E0001AA6F51
:102498004BEC16F0469446A677D78CA402D0010ED2
:1024A80001D0000EFF0A0001C26F0001C247C247F7
:1024B8008C500001C219FB0BC2198C6E00016B51C4
:1024C80000018C19D8B417D0050E0001A86F000EB2
:1024D800A96F000EAA6F000EAB6F8C0E0001AC6FD7
:1024E800000E0001AD6F080E0001AE6FBC0E0001BA
:1024F800AF6F27EC06F03E5000016019D8B41CD02D
:102508003F5000016119D8B417D0030E0001A86F1D
:10251800000EA96F000EAA6F000EAB6F3E0E0001F1
:10252800AC6F000E0001AD6F080E0001AE6FBC0E5F
:102538000001AF6F27EC06F000016A5100017C1919
:10254800D8B41AD0010E00017D6F040E0001A86FE7
:10255800000EA96F000EAA6F000EAB6F7C0E000173
:10256800AC6F000E0001AD6F080E0001AE6FBC0E1F
:102578000001AF6F27EC06F0469606D70001BF6F43
:10258800800E7DEC16F0000E706E000E716E000E5F
:10259800726E0001B841E842C00B0001B86F00013B
:1025A800B85170120001B95170120001BF51711277
:1025B8000001B639E842F80B0001B66F0001B651C8
:1025C80071120001BAA5718C0001BAB1718E0001B7
:1025D800B75172120001BAB3728C0001BA51600B84
:1025E800606E0001BA51100BFF0AD8B4608460CF46
:1025F80050FF000E0001A86F000EA96F000EAA6F11
:10260800000EAB6FF70E0001AC6F010EE2EC0FF09D
:10261800000E0001A86F000EA96F000EAA6F000E31
:10262800AB6FF70E0001AC6F020EE2EC0FF00FD0AB
:10263800F70E0001C06F07D00001C0690001C16931
:1026480028D00001C069F70E0001C16F22D09F0E8B
:102658000001BB6FFF0E0001BC6F0001BA51600B97
:102668000001BD6FBE6B0001BB510001BD1300012D
:10267800BC510001BE130001BE51000AD8A4E1D725
:102688000001BD51BF0AD8B4D7D7600AD8B4D0D793
:10269800D8D7000E0001A86F000EA96F000EAA6F10
:1026A800000EAB6FC0C0ACF0000EA4EC00F0000E42
:1026B8000001A86F000EA96F000EAA6F000EAB6F85
:1026C800C0C0ACF0010EA4EC00F0000E0001A86F31
:1026D800000EA96F000EAA6F000EAB6FC1C0ACF060
:1026E800020EA4EC00F0000E0001A86F000EA96F06
:1026F800000EAA6F000EAB6FC1C0ACF0030EA4ECC5
:1027080000F0000E0001A86F000EA96F000EAA6F5E
:10271800000EAB6FC1C0ACF0040EA4EC00F0000ECC
:102728000001A86F000EA96F000EAA6F000EAB6F14
:10273800C1C0ACF0050EA4EC00F0000E7DEC16F064
:102748001200020E2518261027102810D8A47AD0B7
:1027580046A00DD02DC029F02EC02AF02FC02BF096
:1027680030C02CF08C888C9A8C9C8C840DD0000105
:102778008405D8A402D08C8A829A020E000184199A
:10278800D8A402D08C8C82982DC0A8F02EC0A9F0B5
:102798002FC0AAF030C0ABF00001A81FA91FAA1FC4
:1027A800AB1FA82B000EA923AA23AB232950000195
:1027B800A8250001AC6F2A500001A9210001AD6FC6
:1027C8002B500001AA210001AE6F2C500001AB2153
:1027D8000001AF6F0001AF510001AE1108E1C30E57
:1027E8000001AC5D010E0001AD59D8A02BD0000E40
:1027F8008CBC010E0001D36F8CAA04D00001A86B19
:10280800A82B02D00001A86B0001D451D8A402D093
:10281800010E01D0000E0001A8110001D36F8CA891
:1028280004D00001A86BA82B02D00001A86B0001FE
:10283800D451D8A402D0010E01D0000E0001A81175
:102848000001D36F060E2518261027102810D8B4BB
:1028580046B04BD085C031F0326A31500001A86FC4
:1028680000018451316EA8C032F087C033F0346A59
:1028780033500001A86F00018651336EA8C034F0B0
:10288800335031240001A86F345032200001A96F61
:10289800D8900001A9310001AB6F0001A8310001F7
:1028A800AA6F0001AA510001D26F335031240001F0
:1028B800A86F345032200001A96FD8900001A931C7
:1028C8000001AB6F0001A8310001AA6FABC0AAF0EC
:1028D8000001AB6B0001AA510001D16F0001D15179
:1028E800D8A403D0800E0001D16F090E2518261038
:1028F80027102810D8A4120084C0D4F012000600B3
:10290800E9CF9BF0EACF9CF0E1CF9DF0E2CF9EF0BB
:10291800D9CF9FF0DACFA0F0F3CFA1F0F4CFA2F097
:10292800F6CFA3F0F7CFA4F0F8CFA5F0F5CFA6F037
:10293800A4A0A4B201D093D08CA602D0010E01D0DD
:10294800000EFF0A0001986F0001984798479847C2
:102958008C5000019819F70B98198C6E88EC16F0BA
:102968000009D8B47AD06D0E196E000E1A6E5CECA0
:102978000DF0020E00016D1900016E1100016F11BA
:1029880000017011D8A43BD000017B05D8A437D032
:102998008CA402D0010E01D0000EFF0A0001986F2E
:1029A8000001984798478C5000019819FB0B98191B
:1029B8008C6E2DC029F02EC02AF02FC02BF030C00D
:1029C8002CF0030E0001846F6EEC16F0E806D8A414
:1029D800FBD7020E196E000E1A6E000E1B6E000E4B
:1029E8001C6E840E1D6E000E1E6E080E1F6EBC0E31
:1029F800206EEDEC09F08C888C9A8C9C8C840001FC
:102A08007BA102D0468001D046906DC025F06EC0F3
:102A180026F06FC027F070C028F04684000E000131
:102A2800A76F070E0001A76501D017D00001A751B5
:102A3800010D710EF324D96E000EF420DA6E000138
:102A4800A751010D840EF324E16E000EF420E26E0E
:102A5800DFCFE7FF0001A72BE4D7A490A492A6C07C
:102A6800F5FFA5C0F8FFA4C0F7FFA3C0F6FFA2C0FA
:102A7800F4FFA1C0F3FFA0C0DAFF9FC0D9FF9EC03A
:102A8800E2FF9DC0E1FF9CC0EAFF9BC0E9FF9AC03E
:102A9800FBFF99C0FAFF479211004F0EAB16AC9A94
:102AA800CF0E9D16060E0001B66F050E0001B76F1A
:102AB800010E0001B86F030E0001B96F9D0E0001F1
:102AC800BA6F040EC2EC12F0000E0001A96F670E77
:102AD800A86F7C0E9FEC15F0AB8ED08EA492A490BC
:102AE8009E9AA582A5809F9AA382A3809D8A000EA4
:102AF800896E7D0E926E000E8A6EFB0E936E000E2E
:102B08008B6EBF0E946E000E8C6E000E956E000ECE
:102B18008D6E040E966EC180C182C184C186010E7D
:102B2800B16EA192A292630EB36EC00EB26EA08275
:102B3800F28EF28C12000001AA6F000EAC6E000E2D
:102B4800AB6E0001AAB1AC880001AAA302D0AC8C7C
:102B5800AB8C0001AAB5AC8E0001AAA702D0AB8845
:102B680001D0AB8A0001AAB9AC849E980001AABB27
:102B7800AB860001AAAD02D09D8A01D09D9A9E9A8B
:102B88000001AAAF02D09D8801D09D98A8C0AFFFD0
:102B98000001A951B06EAC8AAB8E949C948EACA8FF
:102BA8001200ACBE1200948C120000EE60F0340EDD
:102BB800EE6AE806FDE1466A00EE25F0210EEE6AAF
:102BC800E806FDE13A0EF66E2D0EF76E000EF86E71
:102BD80000EEC6F010EE11F00900F5CFEEFFE5505B
:102BE800E150FAE147904792000EF86E0001B1EF0C
:102BF80011F0CEC0A8F00001A96BAEC0AAF0AFC01A
:102C0800ABF01AEC16F0A8C068F0A9C069F007D0BC
:102C1800500EE82EFED700016807D8A0690700010A
:102C2800685100016911D8B41200F2D70001A85107
:102C38000001AA03F3CFACF0F4CFADF00001A85126
:102C48000001AB03F3500001AD270001A9510001B9
:102C5800AA03F3500001AD27ACC0A8F0ADC0A9F09D
:102C68001200000E066E0ED09EAAFED75FEC16F07C
:102C7800056E02C0D9FF03C0DAFF05C0DFFF024AB4
:102C8800032A062A0450065CD8B01200EDD7ACA27D
:102C9800FED7A9C0D9FFAAC0DAFFDF5093EC16F01F
:102CA800A9C0D9FFAAC0DAFF0001A94BAA2BDF509F
:102CB800D8B41200ECD7F20E3516ABAC03D0359071
:102CC800ABB03580ABB43584ABB23586AECF01F04E
:102CD80001501200010E196E0F0140A708D00F0114
:102CE80030A705D00F0120A702D0000E196E195089
:102CF80012000001A86FA8C06FFF6E50E00B000122
:102D0800A819D8B41200F9D7010E196E60BE05D003
:102D18000F0150BF02D0000E196E195012000001A9
:102D2800A86FACAC03D0AC9035B2AC80A8C0ADFFF6
:102D38001200AA0000000000AA0010AA000000006B
:042D480000AA0000DD
:020000040020DA
:08000000FFFFFFFFFFFFFFFF00
:020000040030CA
:0E000000FF021F0EFF8281FF0FC00FE00F40B6
:00000001FF
