:04000000AAEF00F073
:0E0008004A82FACF67F0FBCF68F027ED11F0C7
:100018004A80D8CF37F0E8CF38F0E0CF39F0FACFC0
:100028003AF0FBCF3BF0E9CF3CF0EACF3DF0E1CF2F
:100038003EF0E2CF3FF0D9CF40F0DACF41F0F3CF36
:1000480042F0F4CF43F0F6CF44F0F7CF45F0F8CFC5
:1000580046F0F5CF47F0A4A0A4B201D045D08CA6B5
:1000680002D0010E01D0000EFF0A366E3646364623
:1000780036468C503618F70B36188C6ED8EC12F0C2
:100088000009D8B42FD0A60E2A6E000E2B6EF5EC00
:1000980009F00001B4A102D0498001D04990A6C05E
:1000A80092F0A7C093F0A8C094F0A9C095F0498435
:1000B800000E486E070E486401D014D04850010D58
:1000C800AA0EF324D96E000EF420DA6E4850010D02
:1000D8001A0EF324E16E000EF420E26EDFCFE7FF84
:1000E800482AE8D7A490A492A1A20CD0010E00013E
:1000F8009A27000E9B239C239D23630EB36EC00E8C
:10010800B26EA19247C0F5FF46C0F8FF45C0F7FFA1
:1001180044C0F6FF43C0F4FF42C0F3FF41C0DAFF1A
:1001280040C0D9FF3FC0E2FF3EC0E1FF3DC0EAFF4B
:100138003CC0E9FF3BC0FBFF3AC0FAFF39C0E0FF13
:1001480038C0E8FF37C0D8FF4A9010001FEF12F000
:1001580000017E6F00017E510001D8A458D0000133
:100168007929D8A454D00F01019775C07AF076C0C8
:100178007BF077C07CF078C07DF0040E06D00001DB
:10018800D8907D337C337B337A33E82EF8D77AC026
:100198007FF07BC080F07CC081F07DC082F00001E0
:1001A8007F5100017F6F806B816B826B7FC000FF86
:1001B800070E0001751500017F6F000E000176150E
:1001C8000001806F000E000177150001816F000E9D
:1001D800000178150001826F7FC07AF080C07BF043
:1001E80081C07CF082C07DF0050ED89000017A377E
:1001F8007B377C377D37E82EF8D77AC07FF07BC015
:1002080080F07CC081F07DC082F07FC001FF0001DA
:100218007E05D8A458D000017929D8A454D00F015C
:10022800059775C07AF076C07BF077C07CF078C00F
:100238007DF0040E06D00001D8907D337C337B33EB
:100248007A33E82EF8D77AC07FF07BC080F07CC084
:1002580081F07DC082F000017F5100017F6F806BCB
:10026800816B826B7FC004FF070E000175150001CA
:100278007F6F000E000176150001806F000E0001EF
:1002880077150001816F000E000178150001826F5B
:100298007FC07AF080C07BF081C07CF082C07DF0A6
:1002A800050ED89000017A377B377C377D37E82EEA
:1002B800F8D77AC07FF07BC080F07CC081F07DC029
:1002C80082F07FC005FF020E00017E19D8A458D025
:1002D80000017929D8A454D00F01099775C07AF084
:1002E80076C07BF077C07CF078C07DF0040E06D035
:1002F8000001D8907D337C337B337A33E82EF8D7EE
:100308007AC07FF07BC080F07CC081F07DC082F035
:1003180000017F5100017F6F806B816B826B7FC012
:1003280008FF070E0001751500017F6F000E000120
:1003380076150001806F000E000177150001816FAE
:10034800000E000178150001826F7FC07AF080C02E
:100358007BF081C07CF082C07DF0050ED890000152
:100368007A377B377C377D37E82EF8D77AC07FF02D
:100378007BC080F07CC081F07DC082F07FC009FF27
:10038800030E00017E19D8A458D000017929D8A4F9
:1003980054D00F010D9775C07AF076C07BF077C006
:1003A8007CF078C07DF0040E06D00001D8907D3333
:1003B8007C337B337A33E82EF8D77AC07FF07BC062
:1003C80080F07CC081F07DC082F000017F51000187
:1003D8007F6F806B816B826B7FC00CFF070E000103
:1003E800751500017F6F000E000176150001806F02
:1003F800000E000177150001816F000E00017815CD
:100408000001826F7FC07AF080C07BF081C07CF0F1
:1004180082C07DF0050ED89000017A377B377C3793
:100428007D37E82EF8D77AC07FF07BC080F07CC09B
:1004380081F07DC082F07FC00DFF040E00017E199F
:10044800D8A458D000017929D8A454D00F01119705
:1004580075C07AF076C07BF077C07CF078C07DF00C
:10046800040E06D00001D8907D337C337B337A3379
:10047800E82EF8D77AC07FF07BC080F07CC081F08E
:100488007DC082F000017F5100017F6F806B816B1E
:10049800826B7FC010FF070E0001751500017F6F8A
:1004A800000E000176150001806F000E000177151F
:1004B8000001816F000E000178150001826F7FC076
:1004C8007AF080C07BF081C07CF082C07DF0050EA0
:1004D800D89000017A377B377C377D37E82EF8D7FC
:1004E8007AC07FF07BC080F07CC081F07DC082F054
:1004F8007FC011FF050E00017E19D8A458D0000155
:100508007929D8A454D00F01159775C07AF076C010
:100518007BF077C07CF078C07DF0040E06D0000137
:10052800D8907D337C337B337A33E82EF8D77AC082
:100538007FF07BC080F07CC081F07DC082F000013C
:100548007F5100017F6F806B816B826B7FC014FFCE
:10055800070E0001751500017F6F000E000176156A
:100568000001806F000E000177150001816F000EF9
:10057800000178150001826F7FC07AF080C07BF09F
:1005880081C07CF082C07DF0050ED89000017A37DA
:100598007B377C377D37E82EF8D77AC07FF07BC071
:1005A80080F07CC081F07DC082F07FC015FF000123
:1005B8007E510001D8A489D0F70E00017919D8A47A
:1005C80084D00F0101870001755100017F6F806B96
:1005D800816B826B7FC003FF000E0001751500015F
:1005E8007F6FFF0E000176150001806F000E00017D
:1005F80077150001816F000E000178150001826FE8
:100608007FC07AF080C07BF081C07CF082C07DF032
:100618007BC07AF07CC07BF07DC07CF000017D6BF4
:100628007AC07FF07BC080F07CC081F07DC082F012
:100638007FC002FF000177A103D00F01018102D022
:100648000F010191000177A303D00F01018302D0AC
:100658000F010193000177A503D00F01018B02D090
:100668000F01019B000177A703D00F01018D02D074
:100678000F01019D000177A903D00F01018F02D05E
:100688000F01019F75C07AF076C07BF077C07CF0CF
:1006980078C07DF0160E06D00001D8907D337C33EB
:1006A8007B337A33E82EF8D77AC07FF07BC080F0AE
:1006B8007CC081F07DC082F000017F5100017F6F16
:1006C800806B816B826B7FC000FF00017E05D8A420
:1006D80089D0F70E00017919D8A484D00F010587B5
:1006E8000001755100017F6F806B816B826B7FC049
:1006F80007FF000E0001751500017F6FFF0E000156
:1007080076150001806F000E000177150001816FDA
:10071800000E000178150001826F7FC07AF080C05A
:100728007BF081C07CF082C07DF07BC07AF07CC019
:100738007BF07DC07CF000017D6B7AC07FF07BC0D0
:1007480080F07CC081F07DC082F07FC006FF000190
:1007580077A103D00F01058102D00F010591000197
:1007680077A303D00F01058302D00F010593000181
:1007780077A503D00F01058B02D00F01059B00015F
:1007880077A703D00F01058D02D00F01059D000149
:1007980077A903D00F01058F02D00F01059F75C0FF
:1007A8007AF076C07BF077C07CF078C07DF0160ECA
:1007B80006D00001D8907D337C337B337A33E82E22
:1007C800F8D77AC07FF07BC080F07CC081F07DC014
:1007D80082F000017F5100017F6F806B816B826B1B
:1007E8007FC004FF020E00017E19D8A489D0F70E3D
:1007F80000017919D8A484D00F0109870001755127
:1008080000017F6F806B816B826B7FC00BFF000ED6
:100818000001751500017F6FFF0E000176150001BC
:10082800806F000E000177150001816F000E000136
:1008380078150001826F7FC07AF080C07BF081C09C
:100848007CF082C07DF07BC07AF07CC07BF07DC0FC
:100858007CF000017D6B7AC07FF07BC080F07CC0AB
:1008680081F07DC082F07FC00AFF000177A103D02C
:100878000F01098102D00F010991000177A303D06C
:100888000F01098302D00F010993000177A503D056
:100898000F01098B02D00F01099B000177A703D034
:1008A8000F01098D02D00F01099D000177A903D01E
:1008B8000F01098F02D00F01099F75C07AF076C029
:1008C8007BF077C07CF078C07DF0160E06D0000172
:1008D800D8907D337C337B337A33E82EF8D77AC0CF
:1008E8007FF07BC080F07CC081F07DC082F0000189
:1008F8007F5100017F6F806B816B826B7FC008FF27
:10090800030E00017E19D8A489D0F70E00017919C9
:10091800D8A484D00F010D870001755100017F6FA5
:10092800806B816B826B7FC00FFF000E0001751515
:1009380000017F6FFF0E000176150001806F000E29
:10094800000177150001816F000E00017815000184
:10095800826F7FC07AF080C07BF081C07CF082C05B
:100968007DF07BC07AF07CC07BF07DC07CF000011C
:100978007D6B7AC07FF07BC080F07CC081F07DC049
:1009880082F07FC00EFF000177A103D00F010D8117
:1009980002D00F010D91000177A303D00F010D8341
:1009A80002D00F010D93000177A503D00F010D8B25
:1009B80002D00F010D9B000177A703D00F010D8D09
:1009C80002D00F010D9D000177A903D00F010D8FF3
:1009D80002D00F010D9F75C07AF076C07BF077C00A
:1009E8007CF078C07DF0160E06D00001D8907D33DB
:1009F8007C337B337A33E82EF8D77AC07FF07BC01C
:100A080080F07CC081F07DC082F000017F51000140
:100A18007F6F806B816B826B7FC00CFF040E0001BF
:100A28007E19D8A489D0F70E00017919D8A484D0EA
:100A38000F0111870001755100017F6F806B816B79
:100A4800826B7FC013FF000E0001751500017F6FD8
:100A5800FF0E000176150001806F000E000177156A
:100A68000001816F000E000178150001826F7FC0C0
:100A78007AF080C07BF081C07CF082C07DF07BC0C2
:100A88007AF07CC07BF07DC07CF000017D6B7AC081
:100A98007FF07BC080F07CC081F07DC082F07FC099
:100AA80012FF000177A103D00F01118102D00F01BD
:100AB8001191000177A303D00F01118302D00F0118
:100AC8001193000177A503D00F01118B02D00F01FC
:100AD800119B000177A703D00F01118D02D00F01E0
:100AE800119D000177A903D00F01118F02D00F01CA
:100AF800119F75C07AF076C07BF077C07CF078C023
:100B08007DF0160E06D00001D8907D337C337B3300
:100B18007A33E82EF8D77AC07FF07BC080F07CC0AB
:100B280081F07DC082F000017F5100017F6F806BF2
:100B3800816B826B7FC010FF050E00017E19D8A45F
:100B48001200F70E00017919D8A412000F011587B9
:100B58000001755100017F6F806B816B826B7FC0D4
:100B680017FF000E0001751500017F6FFF0E0001D1
:100B780076150001806F000E000177150001816F66
:100B8800000E000178150001826F7FC07AF080C0E6
:100B98007BF081C07CF082C07DF07BC07AF07CC0A5
:100BA8007BF07DC07CF000017D6B7AC07FF07BC05C
:100BB80080F07CC081F07DC082F07FC016FF00010C
:100BC80077A103D00F01158102D00F011591000103
:100BD80077A303D00F01158302D00F0115930001ED
:100BE80077A503D00F01158B02D00F01159B0001CB
:100BF80077A703D00F01158D02D00F01159D0001B5
:100C080077A903D00F01158F02D00F01159F75C06A
:100C18007AF076C07BF077C07CF078C07DF0160E55
:100C280006D00001D8907D337C337B337A33E82EAD
:100C3800F8D77AC07FF07BC080F07CC081F07DC09F
:100C480082F000017F5100017F6F806B816B826BA6
:100C58007FC014FF12000F0140B73FD17BC045FF92
:100C680000017CAD03D00F01458D02D00F01459DD9
:100C780000017CA779D0000175510001816F826B5A
:100C8800836B846B81C044FF000E00017515000161
:100C9800816FFF0E000176150001826F000E0001C2
:100CA80077150001836F000E000178150001846F2D
:100CB80081C07DF082C07EF083C07FF084C080F068
:100CC8007EC07DF07FC07EF080C07FF00001806B29
:100CD8007DC081F07EC082F07FC083F080C084F048
:100CE80081C043FF000E0F01426F0F0142870001D0
:100CF80077A102D00F014281000177A302D00F0132
:100D08004283000177A502D00F01428B000177A72B
:100D180002D00F01428D000177A902D00F01428F46
:100D280075C07DF076C07EF077C07FF078C080F027
:100D3800160E06D00001D89080337F337E337D3382
:100D4800E82EF8D77DC081F07EC082F07FC083F0A6
:100D580080C084F0000181510001816F826B836B38
:100D6800846B81C041FF59D00F01429775C07DF057
:100D780076C07EF077C07FF078C080F0040E06D091
:100D88000001D89080337F337E337D33E82EF8D747
:100D98007DC081F07EC082F07FC083F080C084F087
:100DA800000181510001816F826B836B846B81C06C
:100DB80041FF070E000175150001816F000E00014B
:100DC80076150001826F000E000177150001836F10
:100DD800000E000178150001846F81C07DF082C08B
:100DE8007EF083C07FF084C080F0050ED8900001AB
:100DF8007D377E377F378037E82EF8D77DC081F082
:100E08007EC082F07FC083F080C084F00F01425121
:100E18001F0B0F01426F81C042FF00017CA103D06C
:100E28000F01408102D00F01409100017CA303D043
:100E38000F01408302D00F01409379C0D9FF7AC0D7
:100E4800DAFFDF500F01466F000120EE01F0795103
:100E5800D9267A51DA22DF500F01476F000120EEC0
:100E680002F07951D9267A51DA22DF500F01486F02
:100E7800000120EE03F07951D9267A51DA22DF50A9
:100E88000F01496F000120EE04F07951D9267A51FB
:100E9800DA22DF500F014A6F000120EE05F0795188
:100EA800D9267A51DA22DF500F014B6F000120EE6C
:100EB80006F07951D9267A51DA22DF500F014C6FAA
:100EC800000120EE07F07951D9267A51DA22DF5055
:100ED8000F014D6F0F01408712000F0130B73FD14E
:100EE8007BC035FF00017CAD03D00F01358D02D0EA
:100EF8000F01359D00017CA779D0000175510001D3
:100F0800816F826B836B846B81C034FF000E00019C
:100F180075150001816FFF0E000176150001826FC3
:100F2800000E000177150001836F000E000178158F
:100F38000001846F81C07DF082C07EF083C07FF0A5
:100F480084C080F07EC07DF07FC07EF080C07FF0DE
:100F58000001806B7DC081F07EC082F07FC083F08D
:100F680080C084F081C033FF000E0F01326F0F0183
:100F78003287000177A102D00F013281000177A3E7
:100F880002D00F013283000177A502D00F01328B06
:100F9800000177A702D00F01328D000177A902D096
:100FA8000F01328F75C07DF076C07EF077C07FF07C
:100FB80078C080F0160E06D00001D89080337F33B9
:100FC8007E337D33E82EF8D77DC081F07EC082F075
:100FD8007FC083F080C084F0000181510001816FDF
:100FE800826B836B846B81C031FF59D00F013297BC
:100FF80075C07DF076C07EF077C07FF078C080F055
:10100800040E06D00001D89080337F337E337D33C1
:10101800E82EF8D77DC081F07EC082F07FC083F0D3
:1010280080C084F0000181510001816F826B836B65
:10103800846B81C031FF070E000175150001816FB7
:10104800000E000176150001826F000E0001771571
:101058000001836F000E000178150001846F81C0C4
:101068007DF082C07EF083C07FF084C080F0050EE2
:10107800D89000017D377E377F378037E82EF8D744
:101088007DC081F07EC082F07FC083F080C084F094
:101098000F0132511F0B0F01326F81C032FF000167
:1010A8007CA103D00F01308102D00F0130910001E3
:1010B8007CA303D00F01308302D00F01309379C095
:1010C800D9FF7AC0DAFFDF500F01366F000120EE3A
:1010D80001F07951D9267A51DA22DF500F01376FA2
:1010E800000120EE02F07951D9267A51DA22DF5038
:1010F8000F01386F000120EE03F07951D9267A519B
:10110800DA22DF500F01396F000120EE04F0795127
:10111800D9267A51DA22DF500F013A6F000120EE0A
:1011280005F07951D9267A51DA22DF500F013B6F49
:10113800000120EE06F07951D9267A51DA22DF50E3
:101148000F013C6F000120EE07F07951D9267A5142
:10115800DA22DF500F013D6F0F01308712000F01B7
:1011680020B712007BC025FF00017CAD03D00F0122
:10117800258D02D00F01259D00017CA779D00001A3
:1011880075510001816F826B836B846B81C024FF72
:10119800000E000175150001816FFF0E0001761524
:1011A8000001826F000E000177150001836F000EA9
:1011B800000178150001846F81C07DF082C07EF047
:1011C80083C07FF084C080F07EC07DF07FC07EF059
:1011D80080C07FF00001806B7DC081F07EC082F00E
:1011E8007FC083F080C084F081C023FF000E0F0110
:1011F800226F0F012287000177A102D00F012281FF
:10120800000177A302D00F012283000177A502D045
:101218000F01228B000177A702D00F01228D000158
:1012280077A902D00F01228F75C07DF076C07EF0BD
:1012380077C07FF078C080F0160E06D00001D890F5
:1012480080337F337E337D33E82EF8D77DC081F03D
:101258007EC082F07FC083F080C084F0000181519D
:101268000001816F826B836B846B81C021FF59D031
:101278000F01229775C07DF076C07EF077C07FF0B1
:1012880078C080F0040E06D00001D89080337F33F8
:101298007E337D33E82EF8D77DC081F07EC082F0A2
:1012A8007FC083F080C084F0000181510001816F0C
:1012B800826B836B846B81C021FF070E000175155B
:1012C8000001816F000E000176150001826F000E8B
:1012D800000177150001836F000E000178150001E9
:1012E800846F81C07DF082C07EF083C07FF084C0AF
:1012F80080F0050ED89000017D377E377F37803724
:10130800E82EF8D77DC081F07EC082F07FC083F0E0
:1013180080C084F00F0122511F0B0F01226F81C082
:1013280022FF00017CA103D00F01208102D00F0110
:10133800209100017CA303D00F01208302D00F016C
:10134800209379C0D9FF7AC0DAFFDF500F01266FEA
:10135800000120EE01F07951D9267A51DA22DF50C6
:101368000F01276F000120EE02F07951D9267A513A
:10137800DA22DF500F01286F000120EE03F07951C7
:10138800D9267A51DA22DF500F01296F000120EEA9
:1013980004F07951D9267A51DA22DF500F012A6FE9
:1013A800000120EE05F07951D9267A51DA22DF5072
:1013B8000F012B6F000120EE06F07951D9267A51E2
:1013C800DA22DF500F012C6F000120EE07F079516F
:1013D800D9267A51DA22DF500F012D6F0F012087AD
:1013E8001200000E346E74BE348074BC34820F0157
:1013F80050AF43D12AC0D9FF2BC0DAFFDE6ADE6ABC
:10140800DE6ADD6A20EE04F02A50D9262B50DA2253
:1014180056CFDFFF20EE05F02A50D9262B50DA22CE
:1014280057CFDFFF20EE06F02A50D9262B50DA22BC
:1014380058CFDFFF20EE07F02A50D9262B50DA22AA
:1014480059CFDFFF20EE08F02A50D9262B50DA2298
:101458005ACFDFFF20EE09F02A50D9262B50DA2286
:101468005BCFDFFF20EE0AF02A50D9262B50DA2274
:101478005CCFDFFF20EE0BF02A50D9262B50DA2262
:101488005DCFDFFF20EE0EF02A50D9262B50DA224E
:101498000F0155AD02D0010E01D0000EDF6E20EE17
:1014A8000DF02A50D9262B50DA220F0155510F0B77
:1014B800DF6E20EE0CF02A50D9262B50DA220F01CD
:1014C80052A702D0010E01D0000EDF6E0F0152B7F5
:1014D80044D051CF2CF02D6A2E6A2F6A030ED89073
:1014E8002C362D362E362F36E82EF9D72AC0D9FFBE
:1014F8002BC0DAFF2CC0DEFF2DC0DEFF2EC0DEFFC2
:101508002FC0DEFF0F015239E842070B070B356E7B
:101518002AC0D9FF2BC0DAFFDECF2CF0DECF2DF0AA
:10152800DECF2EF0DECF2FF035502C24306E000E9B
:101538002D20316E000E2E20326E000E2F20336EBD
:101548002AC0D9FF2BC0DAFF30C0DEFF31C0DEFF72
:1015580032C0DEFF33C0DEFF8DD054CF2CF02D6AB1
:101568002E6A2F6A2AC0D9FF2BC0DAFF2CC0DEFFF3
:101578002DC0DEFF2EC0DEFF2FC0DEFF53CF2CF0C4
:101588002D6A2E6A2F6A2EC02FF02DC02EF02CC087
:101598002DF02C6A2AC0D9FF2BC0DAFF2C50DE268A
:1015A8002D50DE222E50DE222F50DE220F0152A1B6
:1015B8000CD02AC0D9FF2BC0DAFF000EDE12000EB5
:1015C800DE12010EDE12000EDE120F0152A30CD045
:1015D8002AC0D9FF2BC0DAFF000EDE12000EDE1281
:1015E800020EDE12000EDE120F0152AB0CD02AC022
:1015F800D9FF2BC0DAFF000EDE12000EDE12040E39
:10160800DE12000EDE120F0152AD0CD02AC0D9FF37
:101618002BC0DAFF000EDE12000EDE12080EDE12FC
:10162800000EDE120F0152AF0CD02AC0D9FF2BC01A
:10163800DAFF000EDE12000EDE12100EDE12000EB1
:10164800DE1251CF2CF02D6A2E6A2F6A150ED89013
:101658002C362D362E362F36E82EF9D72AC0D9FF4C
:101668002BC0DAFF2C50DE122D50DE122E50DE1267
:101678002F50DE120F01509F120060AE12002AC0D8
:10168800D9FF2BC0DAFFDE6ADE6ADE6ADD6A20EE89
:1016980004F02A50D9262B50DA2266CFDFFF20EE3D
:1016A80005F02A50D9262B50DA2267CFDFFF20EE2B
:1016B80006F02A50D9262B50DA2268CFDFFF20EE19
:1016C80007F02A50D9262B50DA2269CFDFFF20EE07
:1016D80008F02A50D9262B50DA226ACFDFFF20EEF5
:1016E80009F02A50D9262B50DA226BCFDFFF20EEE3
:1016F8000AF02A50D9262B50DA226CCFDFFF20EED1
:101708000BF02A50D9262B50DA226DCFDFFF20EEBE
:101718000EF02A50D9262B50DA2265AC02D0010EE1
:1017280001D0000EDF6E20EE0DF02A50D9262B5086
:10173800DA2265500F0BDF6E20EE0CF02A50D92606
:101748002B50DA2262A602D0010E01D0000EDF6E05
:1017580062B643D061CF2CF02D6A2E6A2F6A030E31
:10176800D8902C362D362E362F36E82EF9D72AC0AB
:10177800D9FF2BC0DAFF2CC0DEFF2DC0DEFF2EC044
:10178800DEFF2FC0DEFF6238E842070B070B356E1D
:101798002AC0D9FF2BC0DAFFDECF2CF0DECF2DF028
:1017A800DECF2EF0DECF2FF035502C24306E000E19
:1017B8002D20316E000E2E20326E000E2F20336E3B
:1017C8002AC0D9FF2BC0DAFF30C0DEFF31C0DEFFF0
:1017D80032C0DEFF33C0DEFF88D064CF2CF02D6A24
:1017E8002E6A2F6A2AC0D9FF2BC0DAFF2CC0DEFF71
:1017F8002DC0DEFF2EC0DEFF2FC0DEFF63CF2CF032
:101808002D6A2E6A2F6A2EC02FF02DC02EF02CC004
:101818002DF02C6A2AC0D9FF2BC0DAFF2C50DE2607
:101828002D50DE222E50DE222F50DE2262A00CD058
:101838002AC0D9FF2BC0DAFF000EDE12000EDE121E
:10184800010EDE12000EDE1262A20CD02AC0D9FFF1
:101858002BC0DAFF000EDE12000EDE12020EDE12C0
:10186800000EDE1262AA0CD02AC0D9FF2BC0DAFF04
:10187800000EDE12000EDE12040EDE12000EDE1264
:1018880062AC0CD02AC0D9FF2BC0DAFF000EDE12E2
:10189800000EDE12080EDE12000EDE1262AE0CD052
:1018A8002AC0D9FF2BC0DAFF000EDE12000EDE12AE
:1018B800100EDE12000EDE1261CF2CF02D6A2E6A99
:1018C8002F6A150ED8902C362D362E362F36E82E48
:1018D800F9D72AC0D9FF2BC0DAFF2C50DE122D50C1
:1018E800DE122E50DE122F50DE12609E1200000112
:1018F8007E6F00017E05D8A456D000017929D8A4AE
:1019080052D075C07AF076C07BF077C07CF078C092
:101918007DF0040E06D00001D8907D337C337B33F4
:101928007A33E82EF8D77AC07FF07BC080F07CC08D
:1019380081F07DC082F000017F5100017F6F806BD4
:10194800816B826B7FC018FF070E000175150001BF
:101958007F6F000E000176150001806F000E0001F8
:1019680077150001816F000E000178150001826F64
:101978007FC07AF080C07BF081C07CF082C07DF0AF
:10198800050ED89000017A377B377C377D37E82EF3
:10199800F8D77AC07FF07BC080F07CC081F07DC032
:1019A80082F07FC019FF020E00017E19D8A456D01C
:1019B80000017929D8A452D075C07AF076C07BF09E
:1019C80077C07CF078C07DF0040E06D00001D89076
:1019D8007D337C337B337A33E82EF8D77AC07FF0B7
:1019E8007BC080F07CC081F07DC082F000017F5117
:1019F80000017F6F806B816B826B7FC01CFF070EBD
:101A08000001751500017F6F000E000176150001B9
:101A1800806F000E000177150001816F000E000134
:101A280078150001826F7FC07AF080C07BF081C09A
:101A38007CF082C07DF0050ED89000017A377B37A4
:101A48007C377D37E82EF8D77AC07FF07BC080F0EE
:101A58007CC081F07DC082F07FC01DFF00017E0543
:101A6800D8A487D0F70E00017919D8A482D0000134
:101A7800755100017F6F806B816B826B7FC01BFF8C
:101A8800000E0001751500017F6FFF0E000176152D
:101A98000001806F000E000177150001816F000EB4
:101AA800000178150001826F7FC07AF080C07BF05A
:101AB80081C07CF082C07DF07BC07AF07CC07BF076
:101AC8007DC07CF000017D6B7AC07FF07BC080F028
:101AD8007CC081F07DC082F07FC01AFF000177A131
:101AE80003D00F01198102D00F011991000177A3CA
:101AF80003D00F01198302D00F011993000177A5B4
:101B080003D00F01198B02D00F01199B000177A791
:101B180003D00F01198D02D00F01199D000177A97B
:101B280003D00F01198F02D00F01199F75C07AF0E9
:101B380076C07BF077C07CF078C07DF0160E06D0BA
:101B48000001D8907D337C337B337A33E82EF8D785
:101B58007AC07FF07BC080F07CC081F07DC082F0CD
:101B680000017F5100017F6F806B816B826B7FC0AA
:101B780018FF020E00017E19D8A41200F70E00010A
:101B88007919D8A412000001755100017F6F806B8C
:101B9800816B826B7FC01FFF000E0001751500016D
:101BA8007F6FFF0E000176150001806F000E0001A7
:101BB80077150001816F000E000178150001826F12
:101BC8007FC07AF080C07BF081C07CF082C07DF05D
:101BD8007BC07AF07CC07BF07DC07CF000017D6B1F
:101BE8007AC07FF07BC080F07CC081F07DC082F03D
:101BF8007FC01EFF000177A103D00F011D8102D015
:101C08000F011D91000177A303D00F011D8302D09E
:101C18000F011D93000177A503D00F011D8B02D082
:101C28000F011D9B000177A703D00F011D8D02D066
:101C38000F011D9D000177A903D00F011D8F02D050
:101C48000F011D9F75C07AF076C07BF077C07CF0DD
:101C580078C07DF0160E06D00001D8907D337C3315
:101C68007B337A33E82EF8D77AC07FF07BC080F0D8
:101C78007CC081F07DC082F000017F5100017F6F40
:101C8800806B816B826B7FC01CFF1200020E00010B
:101C98009219000193110001941100019511D8A423
:101CA8009BD0899249A02BD09AC096F09BC097F000
:101CB8009CC098F09DC099F0030E1A6EABEC12F020
:101CC800E806D8A4FBD7020E0001756F000E766FE8
:101CD800000E776F000E786F1A0E0001796F000EF4
:101CE80000017A6F080E00017B6FBC0E00017C6F4B
:101CF8002FEC06F08C888C9A8C9C8C840BD01A0460
:101D0800D8A402D08C8A829A020E1A18D8A402D0BB
:101D18008C8C82989AC085F09BC086F09CC087F016
:101D28009DC088F00001851F861F871F881F852B8F
:101D3800000E8623872388230001965100018525FC
:101D48000001896F000197510001862100018A6F07
:101D5800000198510001872100018B6F0001995102
:101D68000001882100018C6F00018C5100018B114A
:101D780008E1C30E0001895D010E00018A59D8A04F
:101D88002BD0000E8CBC010E0001CA6F8CAA04D0A7
:101D98000001856B852B02D00001856B0001CB51BA
:101DA800D8A402D0010E01D0000E00018511000157
:101DB800CA6F8CA804D00001856B852B02D0000166
:101DC800856B0001CB51D8A402D0010E01D0000EC2
:101DD800000185110001CA6F060E00019219000169
:101DE80093110001941100019511D8B449B050D055
:101DF8001BC0A0F00001A16B0001A0510001856F7C
:101E08001A500001A06F85C0A1F01DC0A2F000010A
:101E1800A36B0001A2510001856F1C500001A26F45
:101E280085C0A3F00001A2510001A0250001856F23
:101E38000001A3510001A1210001866FD890000183
:101E480086310001886F000185310001876F00012C
:101E580087510001C96F0001A2510001A0250001AE
:101E6800856F0001A3510001A1210001866FD89060
:101E7800000186310001886F000185310001876FFC
:101E880088C087F00001886B000187510001C86F86
:101E9800090E00019219000193110001941100012B
:101EA8009511D8A412001AC0CBF0120097EC11F0CB
:101EB8008C848C868C808C828C888C8C8C8A010E8D
:101EC80000017C6FF40E7B6F43EC12F08C948C96BF
:101ED8008C908C928C988C9C8C9A49A462D04AECF9
:101EE8000EF0AA0E0001C66FAA0E0001CC6F000EFC
:101EF8000001CD6F000E0001916F050E0001916584
:101F080001D044D000019151010DC60EF324D96EC1
:101F1800000EF420DA6EDF50D8A435D000019151BC
:101F2800010DC60EF324D96E000EF420DA6E010EF0
:101F3800DF6E00019151010DBD0EF324D96E000E24
:101F4800F420DA6E00019151010DC60EF324E16E02
:101F5800000EF420E26EDE50E618D8B4499800016D
:101F68009151010DC60EF324D96E000EF420DA6EDD
:101F780000019151010DBD0EF324E16E000EF42015
:101F8800E26EDFCFE7FF0001912BB7D749A808D051
:101F9800C60E0001766F000E0001776F97EC12F005
:101FA800499449A69AD78CA402D0010E01D0000EFC
:101FB800FF0A00018F6F00018F478F478C50000187
:101FC8008F19FB0B8F198C6E0001A5510001B519F3
:101FD800D8B417D0050E0001756F000E766F000E8D
:101FE800776F000E786FB50E0001796F000E000153
:101FF8007A6F080E00017B6FBC0E00017C6F2FEC1E
:1020080006F022500118D8B41BD023500218D8B4B7
:1020180017D0030E0001756F000E766F000E776FF4
:10202800000E786F220E0001796F000E00017A6FA2
:10203800080E00017B6FBC0E00017C6F2FEC06F0D0
:102048000001A4511218D8B419D0010E136E040E51
:102058000001756F000E766F000E776F000E786FB7
:10206800120E0001796F000E00017A6F080E000150
:102078007B6FBC0E00017C6F2FEC06F049962DD7C4
:1020880000018C6F800ECDEC12F0000E706E000E09
:10209800716E000E726E00018541E842C00B0001AE
:1020A800856F000185517012000186517012000180
:1020B8008C51711200018339E842F80B0001836FDB
:1020C800000183517112000187A5718C000187B14D
:1020D800718E000184517212000187B3728C000165
:1020E8008751600B606E00018751100BFF0AD8B44E
:1020F800608460CF50FF000E0001756F000E766F90
:10210800000E776F000E786FF70E0001796F010EE1
:102118007BEC0CF0000E0001756F000E766F000E60
:10212800776F000E786FF70E0001796F020E7BEC67
:102138000CF00FD0F70E00018D6F07D000018D69EC
:1021480000018E6928D000018D69F70E00018E6F9D
:1021580022D09F0E0001886FFF0E0001896F0001D9
:102168008751600B00018A6F8B6B00018851000159
:102178008A130001895100018B1300018B51000A59
:10218800D8A4E1D700018A51BF0AD8B4D7D7600ACA
:10219800D8B4D0D7D8D7000E0001756F000E766F6F
:1021A800000E776F000E786F8DC079F0000EACECE2
:1021B80000F0000E0001756F000E766F000E776F4D
:1021C800000E786F8DC079F0010EACEC00F0000EB7
:1021D8000001756F000E766F000E776F000E786F36
:1021E8008EC079F0020EACEC00F0000E0001756FA5
:1021F800000E766F000E776F000E786F8EC079F044
:10220800030EACEC00F0000E0001756F000E766F47
:10221800000E776F000E786F8EC079F0040EACEC6C
:1022280000F0000E0001756F000E766F000E776FDC
:10223800000E786F8EC079F0050EACEC00F0000E41
:10224800CDEC12F012000600E9CF69F0EACF6AF08F
:10225800E1CF6BF0E2CF6CF0D9CF6DF0DACF6EF052
:10226800F3CF6FF0F4CF70F0F6CF71F0F7CF72F0D4
:10227800F8CF73F0F5CF74F09EAA37D00A0E00019C
:10228800616F000E0001626F080E0001636F60EC61
:1022980012F0AA0E0A18D8A427D0AA0E1018D8A48B
:1022A80023D08CA202D0010E01D0000EFF0A00013B
:1022B800666F000166478C5000016619FD0B6619B0
:1022C8008C6EB5C0A5F022C001F023C002F012C088
:1022D800A4F00BC024F00CC022F00DC023F00EC0F7
:1022E800B5F00FC012F049869E9A74C0F5FF73C00E
:1022F800F8FF72C0F7FF71C0F6FF70C0F4FF6FC03F
:10230800F3FF6EC0DAFF6DC0D9FF6CC0E2FF6BC08F
:10231800E1FF6AC0EAFF69C0E9FF68C0FBFF67C068
:10232800FAFF4A9211004F0EAB16AC9ACF0E9D16CB
:10233800060E0001836F050E0001846F010E000177
:10234800856F030E0001866F9D0E0001876F040ED6
:1023580044EC10F0000E0001766F670E756F7C0E6E
:10236800E5EC11F0AB8ED08EA492A4909E9AA59223
:10237800A5909F8AA382A3809D8A000E896E7D0EF8
:10238800926E000E8A6EFB0E936E000E8B6EBF0E61
:10239800946E000E8C6E000E956E000E8D6E040EFF
:1023A800966EC180C182C184C186010EB16EA192B0
:1023B800A292630EB36EC00EB26EA082F28EF28C41
:1023C80012000001776F000EAC6E000EAB6E0001BC
:1023D80077B1AC88000177A302D0AC8CAB8C00013C
:1023E80077B5AC8E000177A702D0AB8801D0AB8A55
:1023F800000177B9AC849E98000177BBAB860001D9
:1024080077AD02D09D8A01D09D9A9E9A000177AF40
:1024180002D09D8801D09D9875C0AFFF000176510C
:10242800B06EAC8AAB8E949C948EACA81200ACBEF5
:102438001200948C120000EE92F02B0EEE6AE80661
:10244800FDE1496A00EE01F0290EEE6AE806FDE1B9
:10245800DA0EF66E250EF76E000EF86E00EEBDF081
:1024680010EE11F00900F5CFEEFFE550E150FAE16A
:102478004A904A92000EF86E00015AEF0FF0C5C05C
:1024880075F00001766B7BC077F07CC078F07CEC4F
:1024980012F075C09EF076C09FF007D0500EE82E5F
:1024A800FED700019E07D8A09F0700019E5100019A
:1024B8009F11D8B41200F2D7000E0001656F11D039
:1024C8009EAAFED7BDEC12F00001646F61C0D9FF6F
:1024D80062C0DAFF64C0DFFF0001614B622B0001BC
:1024E800652B000163510001655DD8B01200E8D783
:1024F8000001755100017703F3CF79F0F4CF7AF03A
:102508000001755100017803F35000017A2700019A
:10251800765100017703F35000017A2779C075F0EE
:102528007AC076F01200ACA2FED776C0D9FF77C089
:10253800DAFFDF50E3EC12F076C0D9FF77C0DAFF9C
:102548000001764B772BDF50D8B41200ECD7010E80
:102558000001756F0F0140A709D00F0130A706D001
:102568000F0120A703D0000E0001756F00017551FF
:102578001200F20E0916ABAC03D00990ABB009807B
:10258800ABB40984ABB20986AECF60F000016051EC
:1025980012000001756F75C06FFF6E50E00B0001EF
:1025A8007519D8B41200F9D7010E2A6E60BE05D08D
:1025B8000F0150BF02D0000E2A6E2A5012000001EF
:1025C800756FACAC03D0AC9009B2AC8075C0ADFFF0
:1025D8001200AA0000000000AA0010AA00000000D3
:0425E80000AA000045
:020000040020DA
:08000000FFFFFFFFFFFFFFFF00
:020000040030CA
:0E000000FF021F0EFF8281FF0FC00FE00F40B6
:00000001FF
