:04000000DDEF00F040
:100018004080D8CF0EF0E8CF0FF0E0CF10F0FACF45
:1000280011F0FBCF12F0E9CF13F0EACF14F0E1CFD3
:1000380015F0E2CF16F0D9CF17F0DACF18F0F3CFDA
:1000480019F0F4CF1AF0F6CF1BF0F7CF1CF0F8CF69
:100058001DF0F5CF1EF0A4A0A4B201D045D083A610
:1000680002D0010E01D0000EFF0A0D6E0D460D469E
:100078000D4683500D18F70B0D18836EB3EC11F075
:100088000009D8B42FD0680E016E000E026E28EC5D
:100098000AF0000176A102D03F8001D03F9068C0ED
:1000A80022F069C023F06AC024F06BC025F03F84B9
:1000B800000E1F6E070E1F6401D014D01F50010DD3
:1000C8006C0EF324D96E000EF420DA6E1F50010D69
:1000D8007F0EF324E16E000EF420E26EDFCFE7FF1F
:1000E8001F2AE8D7A490A4929EAA32D083A202D055
:1000F800010E01D0000EFF0A0D6E0D4683500D183B
:10010800FD0B0D18836E970E026E000E036E070E20
:10011800046E6BEC11F0AA0E00019719D8A417D041
:10012800AA0E00019D19D8A412D08FC036F087C03E
:1001380060F088C061F077C035F098C089F099C048
:1001480087F09AC088F09BC08FF09CC077F09E9A89
:10015800A1A20BD0010E2A26000E2B222C222D2222
:10016800630EB36EC00EB26EA1921EC0F5FF1DC025
:10017800F8FF1CC0F7FF1BC0F6FF1AC0F4FF19C038
:10018800F3FF18C0DAFF17C0D9FF16C0E2FF15C089
:10019800E1FF14C0EAFF13C0E9FF12C0FBFF11C062
:1001A800FAFF10C0E0FF0FC0E8FF0EC0D8FF409074
:1001B800100047EF11F00001A76F0001A7510001DF
:1001C800D8A458D00001A229D8A454D00F0101976F
:1001D8009EC0A3F09FC0A4F0A0C0A5F0A1C0A6F047
:1001E800040E06D00001D890A633A533A433A33358
:1001F800E82EF8D7A3C0A8F0A4C0A9F0A5C0AAF01B
:10020800A6C0ABF00001A8510001A86FA96BAA6BAA
:10021800AB6BA8C000FF070E00019E150001A86F78
:10022800000E00019F150001A96F000E0001A01526
:100238000001AA6F000E0001A1150001AB6FA8C054
:10024800A3F0A9C0A4F0AAC0A5F0ABC0A6F0050E03
:10025800D8900001A337A437A537A637E82EF8D7DA
:10026800A3C0A8F0A4C0A9F0A5C0AAF0A6C0ABF08E
:10027800A8C001FF0001A705D8A458D00001A229F1
:10028800D8A454D00F0105979EC0A3F09FC0A4F036
:10029800A0C0A5F0A1C0A6F0040E06D00001D89019
:1002A800A633A533A433A333E82EF8D7A3C0A8F008
:1002B800A4C0A9F0A5C0AAF0A6C0ABF00001A8513F
:1002C8000001A86FA96BAA6BAB6BA8C004FF070E4F
:1002D80000019E150001A86F000E00019F15000186
:1002E800A96F000E0001A0150001AA6F000E000101
:1002F800A1150001AB6FA8C0A3F0A9C0A4F0AAC0C3
:10030800A5F0ABC0A6F0050ED8900001A337A4371E
:10031800A537A637E82EF8D7A3C0A8F0A4C0A9F03F
:10032800A5C0AAF0A6C0ABF0A8C005FF020E000148
:10033800A719D8A458D00001A229D8A454D00F01D5
:1003480009979EC0A3F09FC0A4F0A0C0A5F0A1C0CB
:10035800A6F0040E06D00001D890A633A533A43326
:10036800A333E82EF8D7A3C0A8F0A4C0A9F0A5C06D
:10037800AAF0A6C0ABF00001A8510001A86FA96BB4
:10038800AA6BAB6BA8C008FF070E00019E15000101
:10039800A86F000E00019F150001A96F000E000153
:1003A800A0150001AA6F000E0001A1150001AB6F96
:1003B800A8C0A3F0A9C0A4F0AAC0A5F0ABC0A6F03D
:1003C800050ED8900001A337A437A537A637E82E25
:1003D800F8D7A3C0A8F0A4C0A9F0A5C0AAF0A6C0E9
:1003E800ABF0A8C009FF030E0001A719D8A458D084
:1003F8000001A229D8A454D00F010D979EC0A3F0E4
:100408009FC0A4F0A0C0A5F0A1C0A6F0040E06D01D
:100418000001D890A633A533A433A333E82EF8D728
:10042800A3C0A8F0A4C0A9F0A5C0AAF0A6C0ABF0CC
:100438000001A8510001A86FA96BAA6BAB6BA8C0FB
:100448000CFF070E00019E150001A86F000E0001A9
:100458009F150001A96F000E0001A0150001AA6FE9
:10046800000E0001A1150001AB6FA8C0A3F0A9C040
:10047800A4F0AAC0A5F0ABC0A6F0050ED890000164
:10048800A337A437A537A637E82EF8D7A3C0A8F016
:10049800A4C0A9F0A5C0AAF0A6C0ABF0A8C00DFFE3
:1004A800040E0001A719D8A458D00001A229D8A485
:1004B80054D00F0111979EC0A3F09FC0A4F0A0C014
:1004C800A5F0A1C0A6F0040E06D00001D890A6336E
:1004D800A533A433A333E82EF8D7A3C0A8F0A4C04B
:1004E800A9F0A5C0AAF0A6C0ABF00001A851000170
:1004F800A86FA96BAA6BAB6BA8C010FF070E000111
:100508009E150001A86F000E00019F150001A96F3C
:10051800000E0001A0150001AA6F000E0001A11530
:100528000001AB6FA8C0A3F0A9C0A4F0AAC0A5F0B1
:10053800ABC0A6F0050ED8900001A337A437A537A5
:10054800A637E82EF8D7A3C0A8F0A4C0A9F0A5C084
:10055800AAF0A6C0ABF0A8C011FF050E0001A719AC
:10056800D8A458D00001A229D8A454D00F011597B7
:100578009EC0A3F09FC0A4F0A0C0A5F0A1C0A6F0A3
:10058800040E06D00001D890A633A533A433A333B4
:10059800E82EF8D7A3C0A8F0A4C0A9F0A5C0AAF077
:1005A800A6C0ABF00001A8510001A86FA96BAA6B07
:1005B800AB6BA8C014FF070E00019E150001A86FC1
:1005C800000E00019F150001A96F000E0001A01583
:1005D8000001AA6F000E0001A1150001AB6FA8C0B1
:1005E800A3F0A9C0A4F0AAC0A5F0ABC0A6F0050E60
:1005F800D8900001A337A437A537A637E82EF8D737
:10060800A3C0A8F0A4C0A9F0A5C0AAF0A6C0ABF0EA
:10061800A8C015FF0001A7510001D8A489D0F70E82
:100628000001A219D8A484D00F01018700019E51AE
:100638000001A86FA96BAA6BAB6BA8C003FF000EE3
:1006480000019E150001A86FFF0E00019F15000113
:10065800A96F000E0001A0150001AA6F000E00018D
:10066800A1150001AB6FA8C0A3F0A9C0A4F0AAC04F
:10067800A5F0ABC0A6F0A4C0A3F0A5C0A4F0A6C086
:10068800A5F00001A66BA3C0A8F0A4C0A9F0A5C05E
:10069800AAF0A6C0ABF0A8C002FF0001A0A103D039
:1006A8000F01018102D00F0101910001A0A303D025
:1006B8000F01018302D00F0101930001A0A503D00F
:1006C8000F01018B02D00F01019B0001A0A703D0ED
:1006D8000F01018D02D00F01019D0001A0A903D0D7
:1006E8000F01018F02D00F01019F9EC0A3F09FC090
:1006F800A4F0A0C0A5F0A1C0A6F0160E06D0000177
:10070800D890A633A533A433A333E82EF8D7A3C0D3
:10071800A8F0A4C0A9F0A5C0AAF0A6C0ABF000013B
:10072800A8510001A86FA96BAA6BAB6BA8C000FF0A
:100738000001A705D8A489D0F70E0001A219D8A4F2
:1007480084D00F01058700019E510001A86FA96B95
:10075800AA6BAB6BA8C007FF000E00019E15000135
:10076800A86FFF0E00019F150001A96F000E000180
:10077800A0150001AA6F000E0001A1150001AB6FC2
:10078800A8C0A3F0A9C0A4F0AAC0A5F0ABC0A6F069
:10079800A4C0A3F0A5C0A4F0A6C0A5F00001A66B54
:1007A800A3C0A8F0A4C0A9F0A5C0AAF0A6C0ABF049
:1007B800A8C006FF0001A0A103D00F01058102D047
:1007C8000F0105910001A0A303D00F01058302D0FA
:1007D8000F0105930001A0A503D00F01058B02D0DE
:1007E8000F01059B0001A0A703D00F01058D02D0C2
:1007F8000F01059D0001A0A903D00F01058F02D0AC
:100808000F01059F9EC0A3F09FC0A4F0A0C0A5F053
:10081800A1C0A6F0160E06D00001D890A633A533C5
:10082800A433A333E82EF8D7A3C0A8F0A4C0A9F036
:10083800A5C0AAF0A6C0ABF00001A8510001A86F9E
:10084800A96BAA6BAB6BA8C004FF020E0001A71925
:10085800D8A489D0F70E0001A219D8A484D00F011A
:10086800098700019E510001A86FA96BAA6BAB6BA9
:10087800A8C00BFF000E00019E150001A86FFF0E17
:1008880000019F150001A96F000E0001A0150001CD
:10089800AA6F000E0001A1150001AB6FA8C0A3F05C
:1008A800A9C0A4F0AAC0A5F0ABC0A6F0A4C0A3F04C
:1008B800A5C0A4F0A6C0A5F00001A66BA3C0A8F02F
:1008C800A4C0A9F0A5C0AAF0A6C0ABF0A8C00AFFB2
:1008D8000001A0A103D00F01098102D00F010991E5
:1008E8000001A0A303D00F01098302D00F010993CF
:1008F8000001A0A503D00F01098B02D00F01099BAD
:100908000001A0A703D00F01098D02D00F01099D96
:100918000001A0A903D00F01098F02D00F01099F80
:100928009EC0A3F09FC0A4F0A0C0A5F0A1C0A6F0EF
:10093800160E06D00001D890A633A533A433A333EE
:10094800E82EF8D7A3C0A8F0A4C0A9F0A5C0AAF0C3
:10095800A6C0ABF00001A8510001A86FA96BAA6B53
:10096800AB6BA8C008FF030E0001A719D8A489D053
:10097800F70E0001A219D8A484D00F010D87000139
:100988009E510001A86FA96BAA6BAB6BA8C00FFFA3
:10099800000E00019E150001A86FFF0E00019F15B3
:1009A8000001A96F000E0001A0150001AA6F000E3A
:1009B8000001A1150001AB6FA8C0A3F0A9C0A4F065
:1009C800AAC0A5F0ABC0A6F0A4C0A3F0A5C0A4F02F
:1009D800A6C0A5F00001A66BA3C0A8F0A4C0A9F00A
:1009E800A5C0AAF0A6C0ABF0A8C00EFF0001A0A148
:1009F80003D00F010D8102D00F010D910001A0A3BA
:100A080003D00F010D8302D00F010D930001A0A5A3
:100A180003D00F010D8B02D00F010D9B0001A0A781
:100A280003D00F010D8D02D00F010D9D0001A0A96B
:100A380003D00F010D8F02D00F010D9F9EC0A3F0B0
:100A48009FC0A4F0A0C0A5F0A1C0A6F0160E06D0C5
:100A58000001D890A633A533A433A333E82EF8D7E2
:100A6800A3C0A8F0A4C0A9F0A5C0AAF0A6C0ABF086
:100A78000001A8510001A86FA96BAA6BAB6BA8C0B5
:100A88000CFF040E0001A719D8A489D0F70E0001A5
:100A9800A219D8A484D00F01118700019E5100012A
:100AA800A86FA96BAA6BAB6BA8C013FF000E00015F
:100AB8009E150001A86FFF0E00019F150001A96F88
:100AC800000E0001A0150001AA6F000E0001A1157B
:100AD8000001AB6FA8C0A3F0A9C0A4F0AAC0A5F0FC
:100AE800ABC0A6F0A4C0A3F0A5C0A4F0A6C0A5F012
:100AF8000001A66BA3C0A8F0A4C0A9F0A5C0AAF0E5
:100B0800A6C0ABF0A8C012FF0001A0A103D00F013E
:100B1800118102D00F0111910001A0A303D00F0190
:100B2800118302D00F0111930001A0A503D00F017A
:100B3800118B02D00F01119B0001A0A703D00F0158
:100B4800118D02D00F01119D0001A0A903D00F0142
:100B5800118F02D00F01119F9EC0A3F09FC0A4F077
:100B6800A0C0A5F0A1C0A6F0160E06D00001D8902E
:100B7800A633A533A433A333E82EF8D7A3C0A8F02F
:100B8800A4C0A9F0A5C0AAF0A6C0ABF00001A85166
:100B98000001A86FA96BAA6BAB6BA8C010FF050E6C
:100BA8000001A719D8A41200F70E0001A219D8A4B1
:100BB80012000F01158700019E510001A86FA96B53
:100BC800AA6BAB6BA8C017FF000E00019E150001B1
:100BD800A86FFF0E00019F150001A96F000E00010C
:100BE800A0150001AA6F000E0001A1150001AB6F4E
:100BF800A8C0A3F0A9C0A4F0AAC0A5F0ABC0A6F0F5
:100C0800A4C0A3F0A5C0A4F0A6C0A5F00001A66BDF
:100C1800A3C0A8F0A4C0A9F0A5C0AAF0A6C0ABF0D4
:100C2800A8C016FF0001A0A103D00F01158102D0B2
:100C38000F0115910001A0A303D00F01158302D065
:100C48000F0115930001A0A503D00F01158B02D049
:100C58000F01159B0001A0A703D00F01158D02D02D
:100C68000F01159D0001A0A903D00F01158F02D017
:100C78000F01159F9EC0A3F09FC0A4F0A0C0A5F0CF
:100C8800A1C0A6F0160E06D00001D890A633A53351
:100C9800A433A333E82EF8D7A3C0A8F0A4C0A9F0C2
:100CA800A5C0AAF0A6C0ABF00001A8510001A86F2A
:100CB800A96BAA6BAB6BA8C014FF12000F0140B759
:100CC8003FD1A4C045FF0001A5AD03D00F01458D5C
:100CD80002D00F01459D0001A5A779D000019E51C2
:100CE8000001AA6FAB6BAC6BAD6BAAC044FF000EE2
:100CF80000019E150001AA6FFF0E00019F1500015B
:100D0800AB6F000E0001A0150001AC6F000E0001D2
:100D1800A1150001AD6FAAC0A6F0ABC0A7F0ACC08A
:100D2800A8F0ADC0A9F0A7C0A6F0A8C0A7F0A9C0B8
:100D3800A8F00001A96BA6C0AAF0A7C0ABF0A8C094
:100D4800ACF0A9C0ADF0AAC043FF000E0F01426F7E
:100D58000F0142870001A0A102D00F0142810001CA
:100D6800A0A302D00F0142830001A0A502D00F0169
:100D7800428B0001A0A702D00F01428D0001A0A95B
:100D880002D00F01428F9EC0A6F09FC0A7F0A0C05E
:100D9800A8F0A1C0A9F0160E06D00001D890A9337A
:100DA800A833A733A633E82EF8D7A6C0AAF0A7C061
:100DB800ABF0A8C0ACF0A9C0ADF00001AA51000189
:100DC800AA6FAB6BAC6BAD6BAAC041FF59D00F01DA
:100DD80042979EC0A6F09FC0A7F0A0C0A8F0A1C0EF
:100DE800A9F0040E06D00001D890A933A833A73380
:100DF800A633E82EF8D7A6C0AAF0A7C0ABF0A8C0C3
:100E0800ACF0A9C0ADF00001AA510001AA6FAB6B0C
:100E1800AC6BAD6BAAC041FF070E00019E15000127
:100E2800AA6F000E00019F150001AB6F000E0001B4
:100E3800A0150001AC6F000E0001A1150001AD6FF7
:100E4800AAC0A6F0ABC0A7F0ACC0A8F0ADC0A9F08E
:100E5800050ED8900001A637A737A837A937E82E7E
:100E6800F8D7A6C0AAF0A7C0ABF0A8C0ACF0A9C03C
:100E7800ADF00F0142511F0B0F01426FAAC042FF94
:100E88000001A5A103D00F01408102D00F014091BC
:100E98000001A5A303D00F01408302D00F014093A6
:100EA800A2C0D9FFA3C0DAFFDF500F01466F0001CF
:100EB80020EE01F0A251D926A351DA22DF500F010A
:100EC800476F000120EE02F0A251D926A351DA2281
:100ED800DF500F01486F000120EE03F0A251D92620
:100EE800A351DA22DF500F01496F000120EE04F010
:100EF800A251D926A351DA22DF500F014A6F00010F
:100F080020EE05F0A251D926A351DA22DF500F01B5
:100F18004B6F000120EE06F0A251D926A351DA2228
:100F2800DF500F014C6F000120EE07F0A251D926C7
:100F3800A351DA22DF500F014D6F0F0140871200D5
:100F48000F0130B73FD1A4C035FF0001A5AD03D0D4
:100F58000F01358D02D00F01359D0001A5A779D06D
:100F680000019E510001AA6FAB6BAC6BAD6BAAC0C0
:100F780034FF000E00019E150001AA6FFF0E00014C
:100F88009F150001AB6F000E0001A0150001AC6FAA
:100F9800000E0001A1150001AD6FAAC0A6F0ABC0FC
:100FA800A7F0ACC0A8F0ADC0A9F0A7C0A6F0A8C033
:100FB800A7F0A9C0A8F00001A96BA6C0AAF0A7C015
:100FC800ABF0A8C0ACF0A9C0ADF0AAC033FF000ECA
:100FD8000F01326F0F0132870001A0A102D00F016B
:100FE80032810001A0A302D00F0132830001A0A525
:100FF80002D00F01328B0001A0A702D00F01328D61
:101008000001A0A902D00F01328F9EC0A6F09FC098
:10101800A7F0A0C0A8F0A1C0A9F0160E06D0000144
:10102800D890A933A833A733A633E82EF8D7A6C09B
:10103800AAF0A7C0ABF0A8C0ACF0A9C0ADF0000101
:10104800AA510001AA6FAB6BAC6BAD6BAAC031FFA4
:1010580059D00F0132979EC0A6F09FC0A7F0A0C03C
:10106800A8F0A1C0A9F0040E06D00001D890A933B9
:10107800A833A733A633E82EF8D7A6C0AAF0A7C08E
:10108800ABF0A8C0ACF0A9C0ADF00001AA510001B6
:10109800AA6FAB6BAC6BAD6BAAC031FF070E00013A
:1010A8009E150001AA6F000E00019F150001AB6F8D
:1010B800000E0001A0150001AC6F000E0001A11583
:1010C8000001AD6FAAC0A6F0ABC0A7F0ACC0A8F0F5
:1010D800ADC0A9F0050ED8900001A637A737A837EC
:1010E800A937E82EF8D7A6C0AAF0A7C0ABF0A8C0C9
:1010F800ACF0A9C0ADF00F0132511F0B0F01326FD8
:10110800AAC032FF0001A5A103D00F01308102D08F
:101118000F0130910001A5A303D00F01308302D045
:101128000F013093A2C0D9FFA3C0DAFFDF500F012F
:10113800366F000120EE01F0A251D926A351DA2220
:10114800DF500F01376F000120EE02F0A251D926BF
:10115800A351DA22DF500F01386F000120EE03F0AF
:10116800A251D926A351DA22DF500F01396F0001AD
:1011780020EE04F0A251D926A351DA22DF500F0144
:101188003A6F000120EE05F0A251D926A351DA22C8
:10119800DF500F013B6F000120EE06F0A251D92667
:1011A800A351DA22DF500F013C6F000120EE07F057
:1011B800A251D926A351DA22DF500F013D6F0F014A
:1011C800308712000F0120B71200A4C025FF0001CC
:1011D800A5AD03D00F01258D02D00F01259D00017B
:1011E800A5A779D000019E510001AA6FAB6BAC6B2B
:1011F800AD6BAAC024FF000E00019E150001AA6F66
:10120800FF0E00019F150001AB6F000E0001A01535
:101218000001AC6F000E0001A1150001AD6FAAC05E
:10122800A6F0ABC0A7F0ACC0A8F0ADC0A9F0A7C0AD
:10123800A6F0A8C0A7F0A9C0A8F00001A96BA6C095
:10124800AAF0A7C0ABF0A8C0ACF0A9C0ADF0AAC086
:1012580023FF000E0F01226F0F0122870001A0A1BA
:1012680002D00F0122810001A0A302D00F01228326
:101278000001A0A502D00F01228B0001A0A702D077
:101288000F01228D0001A0A902D00F01228F9EC05C
:10129800A6F09FC0A7F0A0C0A8F0A1C0A9F0160EA4
:1012A80006D00001D890A933A833A733A633E82E77
:1012B800F8D7A6C0AAF0A7C0ABF0A8C0ACF0A9C0E8
:1012C800ADF00001AA510001AA6FAB6BAC6BAD6B1E
:1012D800AAC021FF59D00F0122979EC0A6F09FC037
:1012E800A7F0A0C0A8F0A1C0A9F0040E06D0000184
:1012F800D890A933A833A733A633E82EF8D7A6C0C9
:10130800AAF0A7C0ABF0A8C0ACF0A9C0ADF000012E
:10131800AA510001AA6FAB6BAC6BAD6BAAC021FFE1
:10132800070E00019E150001AA6F000E00019F150F
:101338000001AB6F000E0001A0150001AC6F000E9C
:101348000001A1150001AD6FAAC0A6F0ABC0A7F0BF
:10135800ACC0A8F0ADC0A9F0050ED8900001A63722
:10136800A737A837A937E82EF8D7A6C0AAF0A7C08C
:10137800ABF0A8C0ACF0A9C0ADF00F0122511F0B13
:101388000F01226FAAC022FF0001A5A103D00F01FF
:10139800208102D00F0120910001A5A303D00F01E5
:1013A800208302D00F012093A2C0D9FFA3C0DAFF87
:1013B800DF500F01266F000120EE01F0A251D9265F
:1013C800A351DA22DF500F01276F000120EE02F04F
:1013D800A251D926A351DA22DF500F01286F00014C
:1013E80020EE03F0A251D926A351DA22DF500F01D3
:1013F800296F000120EE04F0A251D926A351DA2268
:10140800DF500F012A6F000120EE05F0A251D92606
:10141800A351DA22DF500F012B6F000120EE06F0F6
:10142800A251D926A351DA22DF500F012C6F0001F7
:1014380020EE07F0A251D926A351DA22DF500F017E
:101448002D6F0F0120871200000E0B6E74BE0B80EB
:1014580074BC0B820F0150AF43D101C0D9FF02C049
:10146800DAFFDE6ADE6ADE6ADD6A20EE04F0015029
:10147800D9260250DA2256CFDFFF20EE05F00150C0
:10148800D9260250DA2257CFDFFF20EE06F00150AE
:10149800D9260250DA2258CFDFFF20EE07F001509C
:1014A800D9260250DA2259CFDFFF20EE08F001508A
:1014B800D9260250DA225ACFDFFF20EE09F0015078
:1014C800D9260250DA225BCFDFFF20EE0AF0015066
:1014D800D9260250DA225CCFDFFF20EE0BF0015054
:1014E800D9260250DA225DCFDFFF20EE0EF0015040
:1014F800D9260250DA220F0155AD02D0010E01D0D3
:10150800000EDF6E20EE0DF00150D9260250DA22CF
:101518000F0155510F0BDF6E20EE0CF00150D9264C
:101528000250DA220F0152A702D0010E01D0000E9C
:10153800DF6E0F0152B744D051CF03F0046A056A39
:10154800066A030ED8900336043605360636E82EAA
:10155800F9D701C0D9FF02C0DAFF03C0DEFF04C01B
:10156800DEFF05C0DEFF06C0DEFF0F015239E8428C
:10157800070B070B0C6E01C0D9FF02C0DAFFDECFE4
:1015880003F0DECF04F0DECF05F0DECF06F00C501E
:101598000324076E000E0420086E000E0520096E55
:1015A800000E06200A6E01C0D9FF02C0DAFF07C08C
:1015B800DEFF08C0DEFF09C0DEFF0AC0DEFF8DD0F7
:1015C80054CF03F0046A056A066A01C0D9FF02C055
:1015D800DAFF03C0DEFF04C0DEFF05C0DEFF06C081
:1015E800DEFF53CF03F0046A056A066A05C006F0F9
:1015F80004C005F003C004F0036A01C0D9FF02C0AB
:10160800DAFF0350DE260450DE220550DE220650A3
:10161800DE220F0152A10CD001C0D9FF02C0DAFFAF
:10162800000EDE12000EDE12010EDE12000EDE12B9
:101638000F0152A30CD001C0D9FF02C0DAFF000E7F
:10164800DE12000EDE12020EDE12000EDE120F0196
:1016580052AB0CD001C0D9FF02C0DAFF000EDE1277
:10166800000EDE12040EDE12000EDE120F0152AD65
:101678000CD001C0D9FF02C0DAFF000EDE12000E46
:10168800DE12080EDE12000EDE120F0152AF0CD071
:1016980001C0D9FF02C0DAFF000EDE12000EDE1212
:1016A800100EDE12000EDE1251CF03F0046A056A36
:1016B800066A150ED8900336043605360636E82E27
:1016C800F9D701C0D9FF02C0DAFF0350DE12045077
:1016D800DE120550DE120650DE120F01509F120076
:1016E80060AE120001C0D9FF02C0DAFFDE6ADE6A0E
:1016F800DE6ADD6A20EE04F00150D9260250DA22B3
:1017080066CFDFFF20EE05F00150D9260250DA221D
:1017180067CFDFFF20EE06F00150D9260250DA220B
:1017280068CFDFFF20EE07F00150D9260250DA22F9
:1017380069CFDFFF20EE08F00150D9260250DA22E7
:101748006ACFDFFF20EE09F00150D9260250DA22D5
:101758006BCFDFFF20EE0AF00150D9260250DA22C3
:101768006CCFDFFF20EE0BF00150D9260250DA22B1
:101778006DCFDFFF20EE0EF00150D9260250DA229D
:1017880065AC02D0010E01D0000EDF6E20EE0DF028
:101798000150D9260250DA2265500F0BDF6E20EE79
:1017A8000CF00150D9260250DA2262A602D0010EAE
:1017B80001D0000EDF6E62B643D061CF03F0046A39
:1017C800056A066A030ED8900336043605360636CF
:1017D800E82EF9D701C0D9FF02C0DAFF03C0DEFF47
:1017E80004C0DEFF05C0DEFF06C0DEFF6238E84247
:1017F800070B070B0C6E01C0D9FF02C0DAFFDECF62
:1018080003F0DECF04F0DECF05F0DECF06F00C509B
:101818000324076E000E0420086E000E0520096ED2
:10182800000E06200A6E01C0D9FF02C0DAFF07C009
:10183800DEFF08C0DEFF09C0DEFF0AC0DEFF88D079
:1018480064CF03F0046A056A066A01C0D9FF02C0C2
:10185800DAFF03C0DEFF04C0DEFF05C0DEFF06C0FE
:10186800DEFF63CF03F0046A056A066A05C006F066
:1018780004C005F003C004F0036A01C0D9FF02C028
:10188800DAFF0350DE260450DE220550DE22065021
:10189800DE2262A00CD001C0D9FF02C0DAFF000E20
:1018A800DE12000EDE12010EDE12000EDE1262A241
:1018B8000CD001C0D9FF02C0DAFF000EDE12000E04
:1018C800DE12020EDE12000EDE1262AA0CD001C079
:1018D800D9FF02C0DAFF000EDE12000EDE12040E7F
:1018E800DE12000EDE1262AC0CD001C0D9FF02C0BD
:1018F800DAFF000EDE12000EDE12080EDE12000EF7
:10190800DE1262AE0CD001C0D9FF02C0DAFF000EB1
:10191800DE12000EDE12100EDE12000EDE1261CF95
:1019280003F0046A056A066A150ED8900336043671
:1019380005360636E82EF9D701C0D9FF02C0DAFF0E
:101948000350DE120450DE120550DE120650DE127D
:10195800609E12000001A76F0001A705D8A456D009
:101968000001A229D8A452D09EC0A3F09FC0A4F021
:10197800A0C0A5F0A1C0A6F0040E06D00001D89022
:10198800A633A533A433A333E82EF8D7A3C0A8F011
:10199800A4C0A9F0A5C0AAF0A6C0ABF00001A85148
:1019A8000001A86FA96BAA6BAB6BA8C018FF070E44
:1019B80000019E150001A86F000E00019F1500018F
:1019C800A96F000E0001A0150001AA6F000E00010A
:1019D800A1150001AB6FA8C0A3F0A9C0A4F0AAC0CC
:1019E800A5F0ABC0A6F0050ED8900001A337A43728
:1019F800A537A637E82EF8D7A3C0A8F0A4C0A9F049
:101A0800A5C0AAF0A6C0ABF0A8C019FF020E00013D
:101A1800A719D8A456D00001A229D8A452D09EC094
:101A2800A3F09FC0A4F0A0C0A5F0A1C0A6F0040E2A
:101A380006D00001D890A633A533A433A333E82EEB
:101A4800F8D7A3C0A8F0A4C0A9F0A5C0AAF0A6C062
:101A5800ABF00001A8510001A86FA96BAA6BAB6B92
:101A6800A8C01CFF070E00019E150001A86F000EFC
:101A780000019F150001A96F000E0001A0150001CB
:101A8800AA6F000E0001A1150001AB6FA8C0A3F05A
:101A9800A9C0A4F0AAC0A5F0ABC0A6F0050ED890C6
:101AA8000001A337A437A537A637E82EF8D7A3C077
:101AB800A8F0A4C0A9F0A5C0AAF0A6C0ABF0A8C021
:101AC8001DFF0001A705D8A487D0F70E0001A219B1
:101AD800D8A482D000019E510001A86FA96BAA6BFF
:101AE800AB6BA8C01BFF000E00019E150001A86F7C
:101AF800FF0E00019F150001A96F000E0001A0153F
:101B08000001AA6F000E0001A1150001AB6FA8C06B
:101B1800A3F0A9C0A4F0AAC0A5F0ABC0A6F0A4C0C9
:101B2800A3F0A5C0A4F0A6C0A5F00001A66BA3C0B1
:101B3800A8F0A4C0A9F0A5C0AAF0A6C0ABF0A8C0A0
:101B48001AFF0001A0A103D00F01198102D00F01D3
:101B580019910001A0A303D00F01198302D00F012E
:101B680019930001A0A503D00F01198B02D00F0112
:101B7800199B0001A0A703D00F01198D02D00F01F6
:101B8800199D0001A0A903D00F01198F02D00F01E0
:101B9800199F9EC0A3F09FC0A4F0A0C0A5F0A1C04B
:101BA800A6F0160E06D00001D890A633A533A433AC
:101BB800A333E82EF8D7A3C0A8F0A4C0A9F0A5C005
:101BC800AAF0A6C0ABF00001A8510001A86FA96B4C
:101BD800AA6BAB6BA8C018FF020E0001A719D8A406
:101BE8001200F70E0001A219D8A4120000019E519C
:101BF8000001A86FA96BAA6BAB6BA8C01FFF000EF2
:101C080000019E150001A86FFF0E00019F1500013D
:101C1800A96F000E0001A0150001AA6F000E0001B7
:101C2800A1150001AB6FA8C0A3F0A9C0A4F0AAC079
:101C3800A5F0ABC0A6F0A4C0A3F0A5C0A4F0A6C0B0
:101C4800A5F00001A66BA3C0A8F0A4C0A9F0A5C088
:101C5800AAF0A6C0ABF0A8C01EFF0001A0A103D047
:101C68000F011D8102D00F011D910001A0A303D017
:101C78000F011D8302D00F011D930001A0A503D001
:101C88000F011D8B02D00F011D9B0001A0A703D0DF
:101C98000F011D8D02D00F011D9D0001A0A903D0C9
:101CA8000F011D8F02D00F011D9F9EC0A3F09FC082
:101CB800A4F0A0C0A5F0A1C0A6F0160E06D00001A1
:101CC800D890A633A533A433A333E82EF8D7A3C0FE
:101CD800A8F0A4C0A9F0A5C0AAF0A6C0ABF0000166
:101CE800A8510001A86FA96BAA6BAB6BA8C01CFF19
:101CF8001200020E2218231024102510D8A492D006
:101D08003FA02AD02AC026F02BC027F02CC028F0EC
:101D18002DC029F0030E00017F6F95EC11F0E80645
:101D2800D8A4FBD722C09EF023C09FF024C0A0F007
:101D380025C0A1F07F0E0001A26F000E0001A36F65
:101D4800080E0001A46FBC0E0001A56F62EC06F03E
:101D58008388839A839C0DD000017F05D8A402D084
:101D6800838A829A020E00017F19D8A402D0838C3C
:101D780082982AC0AEF02BC0AFF02CC0B0F02DC0B6
:101D8800B1F00001AE1FAF1FB01FB11FAE2B000E88
:101D9800AF23B023B12326500001AE250001B26F56
:101DA80027500001AF210001B36F28500001B02176
:101DB8000001B46F29500001B1210001B56F000185
:101DC800B5510001B41108E1C30E0001B25D010E66
:101DD8000001B359D8A026D0000E83BC010E3C6E7A
:101DE80083AA04D00001AE6BAE2B02D00001AE6B0B
:101DF8003D50D8A402D0010E01D0000E0001AE1152
:101E08003C6E83A804D00001AE6BAE2B02D000015B
:101E1800AE6B3D50D8A402D0010E01D0000E0001D7
:101E2800AE113C6E060E2218231024102510D8B4CB
:101E38003FB042D080C030F0316A30500001AE6F00
:101E480000017F51306EAEC031F082C032F0336A8B
:101E580032500001AE6F00018151326EAEC033F0D6
:101E6800325030240001AE6F335031200001AF6F83
:101E7800D8900001AF310001B16F0001AE3100010F
:101E8800B06F0001B0513B6E325030240001AE6F8C
:101E9800335031200001AF6FD8900001AF310001FD
:101EA800B16F0001AE310001B06FB1C0B0F00001F8
:101EB800B16B0001B0513A6E090E2218231024109C
:101EC8002510D8A412007FC03DF012000001B56FA4
:101ED800800EC7EC11F0000E706E000E716E000ED1
:101EE800726E0001AE41E842C00B0001AE6F000106
:101EF800AE5170120001AF5170120001B55171124C
:101F08000001AC39E842F80B0001AC6F0001AC519C
:101F180071120001B0A5718C0001B0B1718E000181
:101F2800AD5172120001B0B3728C0001B051600B58
:101F3800606E0001B051100BFF0AD8B4608460CF06
:101F480050FF000E00019E6F000E9F6F000EA06FE5
:101F5800000EA16FF70E0001A26F010EAEEC0CF09F
:101F6800000E00019E6F000E9F6F000EA06F000E06
:101F7800A16FF70E0001A26F020EAEEC0CF00FD0AD
:101F8800F70E0001B66F07D00001B6690001B76906
:101F980028D00001B669F70E0001B76F22D09F0E56
:101FA8000001B16FFF0E0001B26F0001B051600B6C
:101FB8000001B36FB46B0001B1510001B31300010C
:101FC800B2510001B4130001B451000AD8A4E1D7FA
:101FD8000001B351BF0AD8B4D7D7600AD8B4D0D754
:101FE800D8D7000E00019E6F000E9F6F000EA06FE5
:101FF800000EA16FB6C0A2F0000EDFEC00F0000EDC
:1020080000019E6F000E9F6F000EA06F000EA16F63
:10201800B6C0A2F0010EDFEC00F0000E00019E6FCA
:10202800000E9F6F000EA06F000EA16FB7C0A2F048
:10203800020EDFEC00F0000E00019E6F000E9F6F95
:10204800000EA06F000EA16FB7C0A2F0030EDFEC68
:1020580000F0000E00019E6F000E9F6F000EA06F33
:10206800000EA16FB7C0A2F0040EDFEC00F0000E66
:1020780000019E6F000E9F6F000EA06F000EA16FF3
:10208800B7C0A2F0050EDFEC00F0000EC7EC11F0AF
:102098001200CFEC10F03FA40BD07DEC0EF0380E00
:1020A80000019E6F000E00019F6F81EC11F03F94BC
:1020B8003FA6F1D783A402D0010E01D0000EFF0A7B
:1020C8000001B86F0001B847B84783500001B8193C
:1020D800FB0BB819836E365000018F19D8B417D08E
:1020E800050E00019E6F000E9F6F000EA06F000E80
:1020F800A16F8F0E0001A26F000E0001A36F080EE2
:102108000001A46FBC0E0001A56F62EC06F000018F
:10211800875100016019D8B41DD000018851000111
:102128006119D8B417D0030E00019E6F000E9F6F7F
:10213800000EA06F000EA16F870E0001A26F000EA7
:102148000001A36F080E0001A46FBC0E0001A56F6B
:1021580062EC06F0355000017719D8B41AD0010E98
:102168000001786F040E00019E6F000E9F6F000E35
:10217800A06F000EA16F770E0001A26F000E000184
:10218800A36F080E0001A46FBC0E0001A56F62ECDE
:1021980006F03F9680D74F0EAB16AC9ACF0E9D1621
:1021A800D08EA492A4909E9AA592A5909F9AA3825D
:1021B800A3809D8AF28EF28C060E0001AC6F050E8C
:1021C8000001AD6F010E0001AE6F030E0001AF6F8D
:1021D8009D0E0001B06F040E6AEC0FF0000E216E28
:1021E800670E206E7C0E0EEC11F0000E896E7D0ECF
:1021F800926E000E8A6EFB0E936E000E8B6EBF0EF3
:10220800946E010EB16EA192A292630EB36EC00ECF
:10221800B26E120000019E6F000EAC6E000EAB6E27
:1022280000019EB1AC8800019EA302D0AC8CAB8C9F
:1022380000019EB5AC8E00019EA702D0AB8801D0EC
:10224800AB8A00019EB9AC849E9800019EBBAB8608
:1022580000019EAD02D09D8A01D09D9A9E9A0001F0
:102268009EAF02D09D8801D09D9820C0AFFF21501D
:10227800B06EAC8AAB8E949C948EACA81200ACBEA7
:102288001200948C120000EE60F03E0EEE6AE80632
:10229800FDE13F6A00EE22F0150EEE6AE806FDE168
:1022A800A00EF66E230EF76E000EF86E00EE37F0F5
:1022B80010EE08F00900F5CFEEFFE550E150FAE125
:1022C80040904092000EF86E00014DEF10F0000EA5
:1022D800066E0ED09EAAFED7A4EC11F0056E02C0C1
:1022E800D9FF03C0DAFF05C0DFFF024A032A062A26
:1022F8000450065CD8B01200EDD7ACA2FED79EC041
:10230800D9FF9FC0DAFFDF50BEEC11F09EC0D9FFA5
:102318009FC0DAFF00019E4B9F2BDF50D8B41200FC
:10232800ECD7010E206E0F0140A708D00F0130A78F
:1023380005D00F0120A702D0000E206E20501200F9
:10234800F20E3416ABAC03D03490ABB03480ABB4DF
:102358003484ABB23486AECF01F001501200010EC6
:10236800016E60BE05D00F0150BF02D0000E016E95
:1023780001501200206EACAC03D0AC9034B2AC80EB
:1023880020C0ADFF1200206E20C06FFF6E50E00B22
:102398002018D8B41200FAD714AA0000000000AA26
:020000040020DA
:08000000FFFFFFFFFFFFFFFF00
:020000040030CA
:0E000000FF021F1EFF8285FF0FC00FE00F40A2
:00000001FF
