:040000009CEF00F081
:100018004280D8CF0FF0E8CF10F0E0CF11F0FACF40
:1000280012F0FBCF13F0E9CF14F0EACF15F0E1CFCF
:1000380016F0E2CF17F0D9CF18F0DACF19F0F3CFD6
:100048001AF0F4CF1BF0F6CF1CF0F7CF1DF0F8CF65
:100058001EF0F5CF1FF0A4A0A4B201D03BD0E6EC6F
:1000680007F00009D8B434D0290E016E000E026ED4
:1000780064EC04F037C06BF029C06CF02AC06DF056
:10008800000E216E000E206E21BE06D021501FE109
:10009800080E205CD8B01BD02D0E2024D96E000E7F
:1000A8002120DA6E030E20240D6E000E21200E6E24
:1000B8006B0E0D24E16E000E0E20E26EDFCFE7FF1F
:1000C800204A212A21BEE8D7215001E1E1D7408208
:1000D800A490A4929EAA08D0600E026E000E036E31
:1000E8000B0E046E9BEC07F01FC0F5FF1EC0F8FF57
:1000F8001DC0F7FF1CC0F6FF1BC0F4FF1AC0F3FFBA
:1001080019C0DAFF18C0D9FF17C0E2FF16C0E1FF17
:1001180015C0EAFF14C0E9FF13C0FBFF12C0FAFFC5
:1001280011C0E0FF10C0E8FF0FC0D8FF42901000D8
:100138007EEF07F00F0140B73FD17CC045FF0001BB
:100148007DAD03D00F01458D02D00F01459D000103
:100158007DA779D0000176510001826F836B846B93
:10016800856B82C044FF000E000176150001826F86
:10017800FF0E000177150001836F000E000178154E
:100188000001846F000E000179150001856F82C09F
:100198007EF083C07FF084C080F085C081F07FC08E
:1001A8007EF080C07FF081C080F00001816B7EC04E
:1001B80082F07FC083F080C084F081C085F082C067
:1001C80043FF000E0F01426F0F014287000178A123
:1001D80002D00F014281000178A302D00F014283AF
:1001E800000178A502D00F01428B000178A702D048
:1001F8000F01428D000178A902D00F01428F76C00D
:100208007EF077C07FF078C080F079C081F0160E5C
:1002180006D00001D890813380337F337E33E82EB7
:10022800F8D77EC082F07FC083F080C084F081C0A0
:1002380085F0000182510001826F836B846B856BAE
:1002480082C041FF59D00F01429776C07EF077C037
:100258007FF078C080F079C081F0040E06D00001EC
:10026800D890813380337F337E33E82EF8D77EC031
:1002780082F07FC083F080C084F081C085F00001E7
:1002880082510001826F836B846B856B82C041FF52
:10029800070E000176150001826F000E0001771528
:1002A8000001836F000E000178150001846F000EB5
:1002B800000179150001856F82C07EF083C07FF050
:1002C80084C080F085C081F0050ED89000017E378B
:1002D8007F3780378137E82EF8D77EC082F07FC01D
:1002E80083F080C084F081C085F00F0142511F0B5C
:1002F8000F01426F82C042FF00017DA103D00F01B0
:10030800408102D00F01409100017DA303D00F016D
:10031800408302D00F0140937AC0D9FF7BC0DAFF37
:10032800DF500F01466F000120EE01F07A51D92607
:100338007B51DA22DF500F01476F000120EE02F0F7
:100348007A51D9267B51DA22DF500F01486F00011C
:1003580020EE03F07A51D9267B51DA22DF500F01C3
:10036800496F000120EE04F07A51D9267B51DA2238
:10037800DF500F014A6F000120EE05F07A51D926AF
:100388007B51DA22DF500F014B6F000120EE06F09F
:100398007A51D9267B51DA22DF500F014C6F0001C8
:1003A80020EE07F07A51D9267B51DA22DF500F016F
:1003B8004D6F0F01408712000F0130B73FD17CC04D
:1003C80035FF00017DAD03D00F01358D02D00F013F
:1003D800359D00017DA779D0000176510001826F1B
:1003E800836B846B856B82C034FF000E0001761529
:1003F8000001826FFF0E000177150001836F000E68
:10040800000178150001846F000E000179150001C4
:10041800856F82C07EF083C07FF084C080F085C085
:1004280081F07FC07EF080C07FF081C080F0000145
:10043800816B7EC082F07FC083F080C084F081C071
:1004480085F082C033FF000E0F01326F0F01328733
:10045800000178A102D00F013281000178A302D0F7
:100468000F013283000178A502D00F01328B000101
:1004780078A702D00F01328D000178A902D00F01B0
:10048800328F76C07EF077C07FF078C080F079C078
:1004980081F0160E06D00001D890813380337F3367
:1004A8007E33E82EF8D77EC082F07FC083F080C00C
:1004B80084F081C085F0000182510001826F836B56
:1004C800846B856B82C031FF59D00F01329776C09B
:1004D8007EF077C07FF078C080F079C081F0040E9C
:1004E80006D00001D890813380337F337E33E82EE5
:1004F800F8D77EC082F07FC083F080C084F081C0CE
:1005080085F0000182510001826F836B846B856BDB
:1005180082C031FF070E000176150001826F000EC0
:10052800000177150001836F000E000178150001A6
:10053800846F000E000179150001856F82C07EF07E
:1005480083C07FF084C080F085C081F0050ED8900C
:1005580000017E377F3780378137E82EF8D77EC095
:1005680082F07FC083F080C084F081C085F00F01E5
:1005780032511F0B0F01326F82C032FF00017DA183
:1005880003D00F01308102D00F01309100017DA30B
:1005980003D00F01308302D00F0130937AC0D9FF06
:1005A8007BC0DAFFDF500F01366F000120EE01F04B
:1005B8007A51D9267B51DA22DF500F01376F0001BB
:1005C80020EE02F07A51D9267B51DA22DF500F0152
:1005D800386F000120EE03F07A51D9267B51DA22D8
:1005E800DF500F01396F000120EE04F07A51D9264F
:1005F8007B51DA22DF500F013A6F000120EE05F03F
:100608007A51D9267B51DA22DF500F013B6F000166
:1006180020EE06F07A51D9267B51DA22DF500F01FD
:100628003C6F000120EE07F07A51D9267B51DA227F
:10063800DF500F013D6F0F01308712000F0120B707
:1006480012007CC025FF00017DAD03D00F01258D70
:1006580002D00F01259D00017DA779D000017651B8
:100668000001826F836B846B856B82C024FF000E50
:10067800000176150001826FFF0E00017715000159
:10068800836F000E000178150001846F000E0001D1
:1006980079150001856F82C07EF083C07FF084C029
:1006A80080F085C081F07FC07EF080C07FF081C07F
:1006B80080F00001816B7EC082F07FC083F080C033
:1006C80084F081C085F082C023FF000E0F01226FE5
:1006D8000F012287000178A102D00F0122810001B9
:1006E80078A302D00F012283000178A502D00F0160
:1006F800228B000178A702D00F01228D000178A972
:1007080002D00F01228F76C07EF077C07FF078C0CC
:1007180080F079C081F0160E06D00001D8908133A0
:1007280080337F337E33E82EF8D77EC082F07FC0D7
:1007380083F080C084F081C085F0000182510001FF
:10074800826F836B846B856B82C021FF59D00F0148
:10075800229776C07EF077C07FF078C080F079C0AD
:1007680081F0040E06D00001D890813380337F33A6
:100778007E33E82EF8D77EC082F07FC083F080C039
:1007880084F081C085F0000182510001826F836B83
:10079800846B856B82C021FF070E0001761500016E
:1007A800826F000E000177150001836F000E0001B3
:1007B80078150001846F000E000179150001856F1E
:1007C80082C07EF083C07FF084C080F085C081F055
:1007D800050ED89000017E377F3780378137E82EA5
:1007E800F8D77EC082F07FC083F080C084F081C0DB
:1007F80085F00F0122511F0B0F01226F82C022FFCB
:1008080000017DA103D00F01208102D00F012091AA
:1008180000017DA303D00F01208302D00F01209394
:100828007AC0D9FF7BC0DAFFDF500F01266F0001C5
:1008380020EE01F07A51D9267B51DA22DF500F01E0
:10084800276F000120EE02F07A51D9267B51DA2277
:10085800DF500F01286F000120EE03F07A51D926EE
:100868007B51DA22DF500F01296F000120EE04F0DE
:100878007A51D9267B51DA22DF500F012A6F000105
:1008880020EE05F07A51D9267B51DA22DF500F018C
:100898002B6F000120EE06F07A51D9267B51DA221F
:1008A800DF500F012C6F000120EE07F07A51D92696
:1008B8007B51DA22DF500F012D6F0F0120871200C4
:1008C800000E0B6E74BE0B8074BC0B820F0150AF10
:1008D80043D101C0D9FF02C0DAFFDE6ADE6ADE6AF0
:1008E800DD6A20EE04F00150D9260250DA2256CFF4
:1008F800DFFF20EE05F00150D9260250DA2257CF4B
:10090800DFFF20EE06F00150D9260250DA2258CF38
:10091800DFFF20EE07F00150D9260250DA2259CF26
:10092800DFFF20EE08F00150D9260250DA225ACF14
:10093800DFFF20EE09F00150D9260250DA225BCF02
:10094800DFFF20EE0AF00150D9260250DA225CCFF0
:10095800DFFF20EE0BF00150D9260250DA225DCFDE
:10096800DFFF20EE0EF00150D9260250DA220F01E7
:1009780055AD02D0010E01D0000EDF6E20EE0DF055
:100988000150D9260250DA220F0155510F0BDF6EA4
:1009980020EE0CF00150D9260250DA220F0152A79E
:1009A80002D0010E01D0000EDF6E0F0152B744D005
:1009B80051CF03F0046A056A066A030ED89003361D
:1009C800043605360636E82EF9D701C0D9FF02C02D
:1009D800DAFF03C0DEFF04C0DEFF05C0DEFF06C08D
:1009E800DEFF0F015239E842070B070B0C6E01C0FE
:1009F800D9FF02C0DAFFDECF03F0DECF04F0DECF8E
:100A080005F0DECF06F00C500324076E000E04201C
:100A1800086E000E0520096E000E06200A6E01C041
:100A2800D9FF02C0DAFF07C0DEFF08C0DEFF09C039
:100A3800DEFF0AC0DEFF8DD054CF03F0046A056ADA
:100A4800066A01C0D9FF02C0DAFF03C0DEFF04C096
:100A5800DEFF05C0DEFF06C0DEFF53CF03F0046AE9
:100A6800056A066A05C006F004C005F003C004F074
:100A7800036A01C0D9FF02C0DAFF0350DE26045022
:100A8800DE220550DE220650DE220F0152A10CD0D4
:100A980001C0D9FF02C0DAFF000EDE12000EDE121E
:100AA800010EDE12000EDE120F0152A30CD001C09F
:100AB800D9FF02C0DAFF000EDE12000EDE12020EAF
:100AC800DE12000EDE120F0152AB0CD001C0D9FFAE
:100AD80002C0DAFF000EDE12000EDE12040EDE1275
:100AE800000EDE120F0152AD0CD001C0D9FF02C0BA
:100AF800DAFF000EDE12000EDE12080EDE12000E05
:100B0800DE120F0152AF0CD001C0D9FF02C0DAFFCC
:100B1800000EDE12000EDE12100EDE12000EDE12C5
:100B280051CF03F0046A056A066A150ED890033699
:100B3800043605360636E82EF9D701C0D9FF02C0BB
:100B4800DAFF0350DE120450DE120550DE120650A2
:100B5800DE120F01509F120060AE120001C0D9FFD3
:100B680002C0DAFFDE6ADE6ADE6ADD6A20EE04F0C1
:100B78000150D9260250DA2266CFDFFF20EE05F0B9
:100B88000150D9260250DA2267CFDFFF20EE06F0A7
:100B98000150D9260250DA2268CFDFFF20EE07F095
:100BA8000150D9260250DA2269CFDFFF20EE08F083
:100BB8000150D9260250DA226ACFDFFF20EE09F071
:100BC8000150D9260250DA226BCFDFFF20EE0AF05F
:100BD8000150D9260250DA226CCFDFFF20EE0BF04D
:100BE8000150D9260250DA226DCFDFFF20EE0EF039
:100BF8000150D9260250DA2265AC02D0010E01D08C
:100C0800000EDF6E20EE0DF00150D9260250DA22D8
:100C180065500F0BDF6E20EE0CF00150D926025004
:100C2800DA2262A602D0010E01D0000EDF6E62B693
:100C380043D061CF03F0046A056A066A030ED890B0
:100C48000336043605360636E82EF9D701C0D9FF33
:100C580002C0DAFF03C0DEFF04C0DEFF05C0DEFF0E
:100C680006C0DEFF6238E842070B070B0C6E01C0B6
:100C7800D9FF02C0DAFFDECF03F0DECF04F0DECF0B
:100C880005F0DECF06F00C500324076E000E04209A
:100C9800086E000E0520096E000E06200A6E01C0BF
:100CA800D9FF02C0DAFF07C0DEFF08C0DEFF09C0B7
:100CB800DEFF0AC0DEFF88D064CF03F0046A056A4D
:100CC800066A01C0D9FF02C0DAFF03C0DEFF04C014
:100CD800DEFF05C0DEFF06C0DEFF63CF03F0046A57
:100CE800056A066A05C006F004C005F003C004F0F2
:100CF800036A01C0D9FF02C0DAFF0350DE260450A0
:100D0800DE220550DE220650DE2262A00CD001C091
:100D1800D9FF02C0DAFF000EDE12000EDE12010E4D
:100D2800DE12000EDE1262A20CD001C0D9FF02C092
:100D3800DAFF000EDE12000EDE12020EDE12000EC8
:100D4800DE1262AA0CD001C0D9FF02C0DAFF000E81
:100D5800DE12000EDE12040EDE12000EDE1262AC8F
:100D68000CD001C0D9FF02C0DAFF000EDE12000E5F
:100D7800DE12080EDE12000EDE1262AE0CD001C0CA
:100D8800D9FF02C0DAFF000EDE12000EDE12100ECE
:100D9800DE12000EDE1261CF03F0046A056A066AED
:100DA800150ED8900336043605360636E82EF9D7E0
:100DB80001C0D9FF02C0DAFF0350DE120450DE1270
:100DC8000550DE120650DE12609E120040A209D0C5
:100DD8006B0E0001776F000E0001786FB1EC07F021
:100DE800409240A4F3D7000160A102D0408001D016
:100DF800409000016151226E236A246A256A00012D
:100E0800605122C087F023C088F024C089F0000117
:100E1800866B00018611226E00018751236E000146
:100E28008851246E00018951256E000E00018B6FD8
:100E3800000E8A6F00018BBF08D000018B5125E19D
:100E4800080E00018A5DD8B020D0030E00018A2563
:100E58000001866F000E00018B210001876F600E74
:100E680000018625D96E000E00018721DA6E380E42
:100E780000018A25E16E000E00018B21E26EDFCFB2
:100E8800E7FF00018A4B8B2BD5D7C5EC07F000098B
:100E9800D8B49CD740A017D022C076F023C077F0F2
:100EA80024C078F025C079F0380E00017A6F000E62
:100EB80000017B6F080E00017C6FFC0E00017D6F46
:100EC8009EEC00F083D722C076F023C077F024C0D0
:100ED80078F025C079F0380E00017A6F000E000115
:100EE8007B6F080E00017C6FBC0E00017D6F9EECCD
:100EF80000F06CD700EE60F0160EEE6AE806FDE131
:100F0800406A00EE22F01E0EEE6AE806FDE1F60EDB
:100F1800F66E0F0EF76E000EF86E0900F5CF41F071
:100F280042904292000EF86E0001EAEF06F0000EC1
:100F3800066E0ED09EAAFED7D7EC07F0056E02C04B
:100F4800D9FF03C0DAFF05C0DFFF024A032A062AD9
:100F58000450065CD8B01200EDD7ACA2FED777C01B
:100F6800D9FF78C0DAFFDF50F1EC07F077C0D9FF7E
:100F780078C0DAFF0001774B782BDF50D8B4120025
:100F8800ECD7010E0001766F0F0140A709D00F01C1
:100F980030A706D00F0120A703D0000E0001766FFE
:100FA800000176511200F20E2816ABAC03D028903F
:100FB800ABB02880ABB42884ABB22886AECF01F0A2
:100FC80001501200010E016E60BE05D00F0150BF26
:100FD80002D0000E016E015012000001766FACAC19
:0F0FE80003D0AC9028B2AC8076C0ADFF120014DD
:020000040020DA
:08000000FFFFFFFFFFFFFFFF00
:020000040030CA
:0E000000FF021F1EFF8285FF0FC00FE00F40A2
:00000001FF
