:040000000BEF00F012
:100008004382FACF0EF0FBCF0FF0B6ED0FF01AEFE8
:1000180011F00001A26F0001A2510001D8A453D031
:100028002128D8A450D00F0101971DC09EF01EC0F2
:100038009FF01FC0A0F020C0A1F0040E06D0000160
:10004800D890A133A0339F339E33E82EF8D79EC0B3
:10005800A3F09FC0A4F0A0C0A5F0A1C0A6F0000125
:10006800A3510001A36FA46BA56BA66BA3C000FFEF
:10007800070E1D140001A36F000E1E140001A46FCB
:10008800000E1F140001A56F000E20140001A66FBA
:10009800A3C09EF0A4C09FF0A5C0A0F0A6C0A1F088
:1000A800050ED89000019E379F37A037A137E82E5C
:1000B800F8D79EC0A3F09FC0A4F0A0C0A5F0A1C02F
:1000C800A6F0A3C001FF0001A205D8A453D021289F
:1000D800D8A450D00F0105971DC09EF01EC09FF0F8
:1000E8001FC0A0F020C0A1F0040E06D00001D890D7
:1000F800A133A0339F339E33E82EF8D79EC0A3F0D8
:100108009FC0A4F0A0C0A5F0A1C0A6F00001A35113
:100118000001A36FA46BA56BA66BA3C004FF070E19
:100128001D140001A36F000E1E140001A46F000E21
:100138001F140001A56F000E20140001A66FA3C0B4
:100148009EF0A4C09FF0A5C0A0F0A6C0A1F0050E27
:10015800D89000019E379F37A037A137E82EF8D7EF
:100168009EC0A3F09FC0A4F0A0C0A5F0A1C0A6F0B7
:10017800A3C005FF020E0001A219D8A453D021285C
:10018800D8A450D00F0109971DC09EF01EC09FF043
:100198001FC0A0F020C0A1F0040E06D00001D89026
:1001A800A133A0339F339E33E82EF8D79EC0A3F027
:1001B8009FC0A4F0A0C0A5F0A1C0A6F00001A35163
:1001C8000001A36FA46BA56BA66BA3C008FF070E65
:1001D8001D140001A36F000E1E140001A46F000E71
:1001E8001F140001A56F000E20140001A66FA3C004
:1001F8009EF0A4C09FF0A5C0A0F0A6C0A1F0050E77
:10020800D89000019E379F37A037A137E82EF8D73E
:100218009EC0A3F09FC0A4F0A0C0A5F0A1C0A6F006
:10022800A3C009FF030E0001A219D8A453D02128A6
:10023800D8A450D00F010D971DC09EF01EC09FF08E
:100248001FC0A0F020C0A1F0040E06D00001D89075
:10025800A133A0339F339E33E82EF8D79EC0A3F076
:100268009FC0A4F0A0C0A5F0A1C0A6F00001A351B2
:100278000001A36FA46BA56BA66BA3C00CFF070EB0
:100288001D140001A36F000E1E140001A46F000EC0
:100298001F140001A56F000E20140001A66FA3C053
:1002A8009EF0A4C09FF0A5C0A0F0A6C0A1F0050EC6
:1002B800D89000019E379F37A037A137E82EF8D78E
:1002C8009EC0A3F09FC0A4F0A0C0A5F0A1C0A6F056
:1002D800A3C00DFF040E0001A219D8A453D02128F1
:1002E800D8A450D00F0111971DC09EF01EC09FF0DA
:1002F8001FC0A0F020C0A1F0040E06D00001D890C5
:10030800A133A0339F339E33E82EF8D79EC0A3F0C5
:100318009FC0A4F0A0C0A5F0A1C0A6F00001A35101
:100328000001A36FA46BA56BA66BA3C010FF070EFB
:100338001D140001A36F000E1E140001A46F000E0F
:100348001F140001A56F000E20140001A66FA3C0A2
:100358009EF0A4C09FF0A5C0A0F0A6C0A1F0050E15
:10036800D89000019E379F37A037A137E82EF8D7DD
:100378009EC0A3F09FC0A4F0A0C0A5F0A1C0A6F0A5
:10038800A3C011FF050E0001A219D8A453D021283B
:10039800D8A450D00F0115971DC09EF01EC09FF025
:1003A8001FC0A0F020C0A1F0040E06D00001D89014
:1003B800A133A0339F339E33E82EF8D79EC0A3F015
:1003C8009FC0A4F0A0C0A5F0A1C0A6F00001A35151
:1003D8000001A36FA46BA56BA66BA3C014FF070E47
:1003E8001D140001A36F000E1E140001A46F000E5F
:1003F8001F140001A56F000E20140001A66FA3C0F2
:100408009EF0A4C09FF0A5C0A0F0A6C0A1F0050E64
:10041800D89000019E379F37A037A137E82EF8D72C
:100428009EC0A3F09FC0A4F0A0C0A5F0A1C0A6F0F4
:10043800A3C015FF0001A2510001D8A47ED0F70E79
:100448002118D8A47AD00F0101871D500001A36F8D
:10045800A46BA56BA66BA3C003FF000E1D140001BF
:10046800A36FFF0E1E140001A46F000E1F140001DD
:10047800A56F000E20140001A66FA3C09EF0A4C0B3
:100488009FF0A5C0A0F0A6C0A1F09FC09EF0A0C09C
:100498009FF0A1C0A0F00001A16B9EC0A3F09FC077
:1004A800A4F0A0C0A5F0A1C0A6F0A3C002FF1FA0A1
:1004B80003D00F01018102D00F0101911FA203D0C7
:1004C8000F01018302D00F0101931FA403D00F0174
:1004D800018B02D00F01019B1FA603D00F01018DD4
:1004E80002D00F01019D1FA803D00F01018F02D078
:1004F8000F01019F1DC09EF01EC09FF01FC0A0F0FD
:1005080020C0A1F0160E06D00001D890A133A03368
:100518009F339E33E82EF8D79EC0A3F09FC0A4F067
:10052800A0C0A5F0A1C0A6F00001A3510001A36FCF
:10053800A46BA56BA66BA3C000FF0001A205D8A4FD
:100548007ED0F70E2118D8A47AD00F0105871D5048
:100558000001A36FA46BA56BA66BA3C007FF000ED9
:100568001D140001A36FFF0E1E140001A46F000EDE
:100578001F140001A56F000E20140001A66FA3C070
:100588009EF0A4C09FF0A5C0A0F0A6C0A1F09FC097
:100598009EF0A0C09FF0A1C0A0F00001A16B9EC07A
:1005A800A3F09FC0A4F0A0C0A5F0A1C0A6F0A3C06E
:1005B80006FF1FA003D00F01058102D00F0105918E
:1005C8001FA203D00F01058302D00F0105931FA4BA
:1005D80003D00F01058B02D00F01059B1FA603D086
:1005E8000F01058D02D00F01059D1FA803D00F0133
:1005F800058F02D00F01059F1DC09EF01EC09FF001
:100608001FC0A0F020C0A1F0160E06D00001D8909F
:10061800A133A0339F339E33E82EF8D79EC0A3F0B2
:100628009FC0A4F0A0C0A5F0A1C0A6F00001A351EE
:100638000001A36FA46BA56BA66BA3C004FF020EF9
:100648000001A219D8A47ED0F70E2118D8A47AD018
:100658000F0109871D500001A36FA46BA56BA66B42
:10066800A3C00BFF000E1D140001A36FFF0E1E1484
:100678000001A46F000E1F140001A56F000E2014C6
:100688000001A66FA3C09EF0A4C09FF0A5C0A0F073
:10069800A6C0A1F09FC09EF0A0C09FF0A1C0A0F08E
:1006A8000001A16B9EC0A3F09FC0A4F0A0C0A5F05C
:1006B800A1C0A6F0A3C00AFF1FA003D00F010981A3
:1006C80002D00F0109911FA203D00F01098302D0A4
:1006D8000F0109931FA403D00F01098B02D00F014A
:1006E800099B1FA603D00F01098D02D00F01099D98
:1006F8001FA803D00F01098F02D00F01099F1DC049
:100708009EF01EC09FF01FC0A0F020C0A1F0160EE2
:1007180006D00001D890A133A0339F339E33E82E32
:10072800F8D79EC0A3F09FC0A4F0A0C0A5F0A1C0B8
:10073800A6F00001A3510001A36FA46BA56BA66BE3
:10074800A3C008FF030E0001A219D8A47ED0F70E9B
:100758002118D8A47AD00F010D871D500001A36F6E
:10076800A46BA56BA66BA3C00FFF000E1D140001A0
:10077800A36FFF0E1E140001A46F000E1F140001CA
:10078800A56F000E20140001A66FA3C09EF0A4C0A0
:100798009FF0A5C0A0F0A6C0A1F09FC09EF0A0C089
:1007A8009FF0A1C0A0F00001A16B9EC0A3F09FC064
:1007B800A4F0A0C0A5F0A1C0A6F0A3C00EFF1FA082
:1007C80003D00F010D8102D00F010D911FA203D09C
:1007D8000F010D8302D00F010D931FA403D00F0149
:1007E8000D8B02D00F010D9B1FA603D00F010D8D9D
:1007F80002D00F010D9D1FA803D00F010D8F02D04D
:100808000F010D9F1DC09EF01EC09FF01FC0A0F0DD
:1008180020C0A1F0160E06D00001D890A133A03355
:100828009F339E33E82EF8D79EC0A3F09FC0A4F054
:10083800A0C0A5F0A1C0A6F00001A3510001A36FBC
:10084800A46BA56BA66BA3C00CFF040E0001A21934
:10085800D8A47ED0F70E2118D8A47AD00F0111871A
:100868001D500001A36FA46BA56BA66BA3C013FF5B
:10087800000E1D140001A36FFF0E1E140001A46FCB
:10088800000E1F140001A56F000E20140001A66FB2
:10089800A3C09EF0A4C09FF0A5C0A0F0A6C0A1F080
:1008A8009FC09EF0A0C09FF0A1C0A0F00001A16B66
:1008B8009EC0A3F09FC0A4F0A0C0A5F0A1C0A6F060
:1008C800A3C012FF1FA003D00F01118102D00F0196
:1008D80011911FA203D00F01118302D00F011193B0
:1008E8001FA403D00F01118B02D00F01119B1FA66B
:1008F80003D00F01118D02D00F01119D1FA803D045
:100908000F01118F02D00F01119F1DC09EF01EC054
:100918009FF01FC0A0F020C0A1F0160E06D0000165
:10092800D890A133A0339F339E33E82EF8D79EC0CA
:10093800A3F09FC0A4F0A0C0A5F0A1C0A6F000013C
:10094800A3510001A36FA46BA56BA66BA3C010FFF6
:10095800050E0001A219D8A41200F70E2118D8A478
:1009680012000F0115871D500001A36FA46BA56B22
:10097800A66BA3C017FF000E1D140001A36FFF0E86
:100988001E140001A46F000E1F140001A56F000EB5
:1009980020140001A66FA3C09EF0A4C09FF0A5C0BC
:1009A800A0F0A6C0A1F09FC09EF0A0C09FF0A1C07B
:1009B800A0F00001A16B9EC0A3F09FC0A4F0A0C04E
:1009C800A5F0A1C0A6F0A3C016FF1FA003D00F0179
:1009D800158102D00F0115911FA203D00F011583B5
:1009E80002D00F0115931FA403D00F01158B02D05D
:1009F8000F01159B1FA603D00F01158D02D00F0103
:100A0800159D1FA803D00F01158F02D00F01159F48
:100A18001DC09EF01EC09FF01FC0A0F020C0A1F016
:100A2800160E06D00001D890A133A0339F339E3311
:100A3800E82EF8D79EC0A3F09FC0A4F0A0C0A5F0F0
:100A4800A1C0A6F00001A3510001A36FA46BA56B80
:100A5800A66BA3C014FF12000F0140B73BD1A4C07E
:100A680045FF0001A5AD03D00F01458D02D00F0150
:100A7800459D0001A5A777D000019E510001A66FF2
:100A8800A76BA86BA96BA6C044FF000E00019E15BA
:100A98000001A66FFF0E00019F150001A76F000E51
:100AA8000001A0150001A86F000E0001A1150001AA
:100AB800A96FA6C01DF0A7C01EF0A8C01FF0A9C04E
:100AC80020F01EC01DF01FC01EF020C01FF0206ABD
:100AD8001DC0A6F01EC0A7F01FC0A8F020C0A9F036
:100AE800A6C043FF000E0F01426F0F0142870001AD
:100AF800A0A102D00F0142810001A0A302D00F01E2
:100B080042830001A0A502D00F01428B0001A0A7DB
:100B180002D00F01428D0001A0A902D00F01428F1F
:100B28009EC01DF09FC01EF0A0C01FF0A1C020F005
:100B3800160E05D0D89020321F321E321D32E82EF4
:100B4800F9D71DC0A6F01EC0A7F01FC0A8F020C08E
:100B5800A9F00001A6510001A66FA76BA86BA96BAD
:100B6800A6C041FF57D00F0142979EC01DF09FC0FD
:100B78001EF0A0C01FF0A1C020F0040E05D0D89030
:100B880020321F321E321D32E82EF9D71DC0A6F0C2
:100B98001EC0A7F01FC0A8F020C0A9F00001A651F0
:100BA8000001A66FA76BA86BA96BA6C041FF070E33
:100BB80000019E150001A66F000E00019F1500019F
:100BC800A76F000E0001A0150001A86F000E00011C
:100BD800A1150001A96FA6C01DF0A7C01EF0A8C0EE
:100BE8001FF0A9C020F0050ED8901D361E361F36FE
:100BF8002036E82EF9D71DC0A6F01EC0A7F01FC0EA
:100C0800A8F020C0A9F00F0142511F0B0F01426F3D
:100C1800A6C042FF0001A5A103D00F01408102D068
:100C28000F0140910001A5A303D00F01408302D01A
:100C38000F014093A2C0D9FFA3C0DAFFDF500F0114
:100C4800466F000120EE01F0A251D926A351DA2205
:100C5800DF500F01476F000120EE02F0A251D926A4
:100C6800A351DA22DF500F01486F000120EE03F094
:100C7800A251D926A351DA22DF500F01496F000192
:100C880020EE04F0A251D926A351DA22DF500F0139
:100C98004A6F000120EE05F0A251D926A351DA22AD
:100CA800DF500F014B6F000120EE06F0A251D9264C
:100CB800A351DA22DF500F014C6F000120EE07F03C
:100CC800A251D926A351DA22DF500F014D6F0F012F
:100CD800408712000F0130B73BD1A4C035FF000197
:100CE800A5AD03D00F01358D02D00F01359D000150
:100CF800A5A777D000019E510001A66FA76BA86B2E
:100D0800A96BA6C034FF000E00019E150001A66F56
:100D1800FF0E00019F150001A76F000E0001A0152E
:100D28000001A86F000E0001A1150001A96FA6C05F
:100D38001DF0A7C01EF0A8C01FF0A9C020F01EC05B
:100D48001DF01FC01EF020C01FF0206A1DC0A6F0B5
:100D58001EC0A7F01FC0A8F020C0A9F0A6C033FF8E
:100D6800000E0F01326F0F0132870001A0A102D0DF
:100D78000F0132810001A0A302D00F0132830001CC
:100D8800A0A502D00F01328B0001A0A702D00F014D
:100D9800328D0001A0A902D00F01328F9EC01DF034
:100DA8009FC01EF0A0C01FF0A1C020F0160E05D0F5
:100DB800D89020321F321E321D32E82EF9D71DC0BE
:100DC800A6F01EC0A7F01FC0A8F020C0A9F000011F
:100DD800A6510001A66FA76BA86BA96BA6C031FF2F
:100DE80057D00F0132979EC01DF09FC01EF0A0C0C3
:100DF8001FF0A1C020F0040E05D0D89020321F3279
:100E08001E321D32E82EF9D71DC0A6F01EC0A7F06D
:100E18001FC0A8F020C0A9F00001A6510001A66FCC
:100E2800A76BA86BA96BA6C031FF070E00019E1522
:100E38000001A66F000E00019F150001A76F000EAC
:100E48000001A0150001A86F000E0001A115000106
:100E5800A96FA6C01DF0A7C01EF0A8C01FF0A9C0AA
:100E680020F0050ED8901D361E361F362036E82E87
:100E7800F9D71DC0A6F01EC0A7F01FC0A8F020C05B
:100E8800A9F00F0132511F0B0F01326FA6C032FFBC
:100E98000001A5A103D00F01308102D00F013091CC
:100EA8000001A5A303D00F01308302D00F013093B6
:100EB800A2C0D9FFA3C0DAFFDF500F01366F0001CF
:100EC80020EE01F0A251D926A351DA22DF500F01FA
:100ED800376F000120EE02F0A251D926A351DA2281
:100EE800DF500F01386F000120EE03F0A251D92620
:100EF800A351DA22DF500F01396F000120EE04F010
:100F0800A251D926A351DA22DF500F013A6F00010E
:100F180020EE05F0A251D926A351DA22DF500F01A5
:100F28003B6F000120EE06F0A251D926A351DA2228
:100F3800DF500F013C6F000120EE07F0A251D926C7
:100F4800A351DA22DF500F013D6F0F0130871200E5
:100F58000F0120B71200A4C025FF0001A5AD03D0E2
:100F68000F01258D02D00F01259D0001A5A777D07F
:100F780000019E510001A66FA76BA86BA96BA6C0C4
:100F880024FF000E00019E150001A66FFF0E000150
:100F98009F150001A76F000E0001A0150001A86FA2
:100FA800000E0001A1150001A96FA6C01DF0A7C081
:100FB8001EF0A8C01FF0A9C020F01EC01DF01FC061
:100FC8001EF020C01FF0206A1DC0A6F01EC0A7F0AA
:100FD8001FC0A8F020C0A9F0A6C023FF000E0F0173
:100FE800226F0F0122870001A0A102D00F012281E8
:100FF8000001A0A302D00F0122830001A0A502D006
:101008000F01228B0001A0A702D00F01228D000141
:10101800A0A902D00F01228F9EC01DF09FC01EF014
:10102800A0C01FF0A1C020F0160E05D0D890203225
:101038001F321E321D32E82EF9D71DC0A6F01EC081
:10104800A7F01FC0A8F020C0A9F00001A651000118
:10105800A66FA76BA86BA96BA6C021FF57D00F017D
:1010680022979EC01DF09FC01EF0A0C01FF0A1C017
:1010780020F0040E05D0D89020321F321E321D32C7
:10108800E82EF9D71DC0A6F01EC0A7F01FC0A8F013
:1010980020C0A9F00001A6510001A66FA76BA86B9C
:1010A800A96BA6C021FF070E00019E150001A66FBF
:1010B800000E00019F150001A76F000E0001A0158A
:1010C8000001A86F000E0001A1150001A96FA6C0BC
:1010D8001DF0A7C01EF0A8C01FF0A9C020F0050E83
:1010E800D8901D361E361F362036E82EF9D71DC07B
:1010F800A6F01EC0A7F01FC0A8F020C0A9F00F01DD
:1011080022511F0B0F01226FA6C022FF0001A5A1CB
:1011180003D00F01208102D00F0120910001A5A367
:1011280003D00F01208302D00F012093A2C0D9FF62
:10113800A3C0DAFFDF500F01266F000120EE01F097
:10114800A251D926A351DA22DF500F01276F0001DF
:1011580020EE02F0A251D926A351DA22DF500F0166
:10116800286F000120EE03F0A251D926A351DA22FC
:10117800DF500F01296F000120EE04F0A251D9269B
:10118800A351DA22DF500F012A6F000120EE05F08B
:10119800A251D926A351DA22DF500F012B6F00018B
:1011A80020EE06F0A251D926A351DA22DF500F0112
:1011B8002C6F000120EE07F0A251D926A351DA22A4
:1011C800DF500F012D6F0F0120871200000E0B6EEC
:1011D80074BE0B8074BC0B820F0150AF43D101C0A9
:1011E800D9FF02C0DAFFDE6ADE6ADE6ADD6A20EE57
:1011F80004F00150D9260250DA2256CFDFFF20EE44
:1012080005F00150D9260250DA2257CFDFFF20EE31
:1012180006F00150D9260250DA2258CFDFFF20EE1F
:1012280007F00150D9260250DA2259CFDFFF20EE0D
:1012380008F00150D9260250DA225ACFDFFF20EEFB
:1012480009F00150D9260250DA225BCFDFFF20EEE9
:101258000AF00150D9260250DA225CCFDFFF20EED7
:101268000BF00150D9260250DA225DCFDFFF20EEC5
:101278000EF00150D9260250DA220F0155AD02D0E6
:10128800010E01D0000EDF6E20EE0DF00150D926C0
:101298000250DA220F0155510F0BDF6E20EE0CF0D1
:1012A8000150D9260250DA220F0152A702D0010EAE
:1012B80001D0000EDF6E0F0152B744D051CF03F0BA
:1012C800046A056A066A030ED890033604360536A2
:1012D8000636E82EF9D701C0D9FF02C0DAFF03C0ED
:1012E800DEFF04C0DEFF05C0DEFF06C0DEFF0F0123
:1012F8005239E842070B070B0C6E01C0D9FF02C038
:10130800DAFFDECF03F0DECF04F0DECF05F0DECF6C
:1013180006F00C500324076E000E0420086E000E21
:101328000520096E000E06200A6E01C0D9FF02C012
:10133800DAFF07C0DEFF08C0DEFF09C0DEFF0AC013
:10134800DEFF8DD054CF03F0046A056A066A01C037
:10135800D9FF02C0DAFF03C0DEFF04C0DEFF05C00C
:10136800DEFF06C0DEFF53CF03F0046A056A066A93
:1013780005C006F004C005F003C004F0036A01C00C
:10138800D9FF02C0DAFF0350DE260450DE220550E2
:10139800DE220650DE220F0152A10CD001C0D9FF77
:1013A80002C0DAFF000EDE12000EDE12010EDE129F
:1013B800000EDE120F0152A30CD001C0D9FF02C0EB
:1013C800DAFF000EDE12000EDE12020EDE12000E32
:1013D800DE120F0152AB0CD001C0D9FF02C0DAFFF8
:1013E800000EDE12000EDE12040EDE12000EDE12F9
:1013F8000F0152AD0CD001C0D9FF02C0DAFF000EB8
:10140800DE12000EDE12080EDE12000EDE120F01D2
:1014180052AF0CD001C0D9FF02C0DAFF000EDE12B5
:10142800000EDE12100EDE12000EDE1251CF03F097
:10143800046A056A066A150ED8900336043605361E
:101448000636E82EF9D701C0D9FF02C0DAFF0350EB
:10145800DE120450DE120550DE120650DE120F01B5
:10146800509F120060AE120001C0D9FF02C0DAFF1F
:10147800DE6ADE6ADE6ADD6A20EE04F00150D926F3
:101488000250DA2266CFDFFF20EE05F00150D926A0
:101498000250DA2267CFDFFF20EE06F00150D9268E
:1014A8000250DA2268CFDFFF20EE07F00150D9267C
:1014B8000250DA2269CFDFFF20EE08F00150D9266A
:1014C8000250DA226ACFDFFF20EE09F00150D92658
:1014D8000250DA226BCFDFFF20EE0AF00150D92646
:1014E8000250DA226CCFDFFF20EE0BF00150D92634
:1014F8000250DA226DCFDFFF20EE0EF00150D92620
:101508000250DA2265AC02D0010E01D0000EDF6E67
:1015180020EE0DF00150D9260250DA2265500F0B4B
:10152800DF6E20EE0CF00150D9260250DA2262A6B6
:1015380002D0010E01D0000EDF6E62B643D061CF3B
:1015480003F0046A056A066A030ED8900336043667
:1015580005360636E82EF9D701C0D9FF02C0DAFFF2
:1015680003C0DEFF04C0DEFF05C0DEFF06C0DEFFED
:101578006238E842070B070B0C6E01C0D9FF02C0A6
:10158800DAFFDECF03F0DECF04F0DECF05F0DECFEA
:1015980006F00C500324076E000E0420086E000E9F
:1015A8000520096E000E06200A6E01C0D9FF02C090
:1015B800DAFF07C0DEFF08C0DEFF09C0DEFF0AC091
:1015C800DEFF88D064CF03F0046A056A066A01C0AA
:1015D800D9FF02C0DAFF03C0DEFF04C0DEFF05C08A
:1015E800DEFF06C0DEFF63CF03F0046A056A066A01
:1015F80005C006F004C005F003C004F0036A01C08A
:10160800D9FF02C0DAFF0350DE260450DE2205505F
:10161800DE220650DE2262A00CD001C0D9FF02C033
:10162800DAFF000EDE12000EDE12010EDE12000ED0
:10163800DE1262A20CD001C0D9FF02C0DAFF000E90
:10164800DE12000EDE12020EDE12000EDE1262AA9A
:101658000CD001C0D9FF02C0DAFF000EDE12000E66
:10166800DE12040EDE12000EDE1262AC0CD001C0D7
:10167800D9FF02C0DAFF000EDE12000EDE12080EDD
:10168800DE12000EDE1262AE0CD001C0D9FF02C01D
:10169800DAFF000EDE12000EDE12100EDE12000E51
:1016A800DE1261CF03F0046A056A066A150ED89047
:1016B8000336043605360636E82EF9D701C0D9FFB9
:1016C80002C0DAFF0350DE120450DE120550DE12AB
:1016D8000650DE12609E12000001A26F0001A205F2
:1016E800D8A451D02128D8A44ED01DC09EF01EC029
:1016F8009FF01FC0A0F020C0A1F0040E06D000018A
:10170800D890A133A0339F339E33E82EF8D79EC0DC
:10171800A3F09FC0A4F0A0C0A5F0A1C0A6F000014E
:10172800A3510001A36FA46BA56BA66BA3C018FF00
:10173800070E1D140001A36F000E1E140001A46FF4
:10174800000E1F140001A56F000E20140001A66FE3
:10175800A3C09EF0A4C09FF0A5C0A0F0A6C0A1F0B1
:10176800050ED89000019E379F37A037A137E82E85
:10177800F8D79EC0A3F09FC0A4F0A0C0A5F0A1C058
:10178800A6F0A3C019FF020E0001A219D8A451D0D7
:101798002128D8A44ED01DC09EF01EC09FF01FC0A7
:1017A800A0F020C0A1F0040E06D00001D890A1330B
:1017B800A0339F339E33E82EF8D79EC0A3F09FC076
:1017C800A4F0A0C0A5F0A1C0A6F00001A35100019B
:1017D800A36FA46BA56BA66BA3C01CFF070E1D14FB
:1017E8000001A36F000E1E140001A46F000E1F1449
:1017F8000001A56F000E20140001A66FA3C09EF083
:10180800A4C09FF0A5C0A0F0A6C0A1F0050ED89076
:1018180000019E379F37A037A137E82EF8D79EC022
:10182800A3F09FC0A4F0A0C0A5F0A1C0A6F0A3C0DB
:101838001DFF0001A205D8A47CD0F70E2118D8A45A
:1018480078D01D500001A36FA46BA56BA66BA3C035
:101858001BFF000E1D140001A36FFF0E1E140001D4
:10186800A46F000E1F140001A56F000E20140001C4
:10187800A66FA3C09EF0A4C09FF0A5C0A0F0A6C00C
:10188800A1F09FC09EF0A0C09FF0A1C0A0F00001F1
:10189800A16B9EC0A3F09FC0A4F0A0C0A5F0A1C0FA
:1018A800A6F0A3C01AFF1FA003D00F01198102D010
:1018B8000F0119911FA203D00F01198302D00F0144
:1018C80019931FA403D00F01198B02D00F01199B84
:1018D8001FA603D00F01198D02D00F01199D1FA853
:1018E80003D00F01198F02D00F01199F1DC09EF060
:1018F8001EC09FF01FC0A0F020C0A1F0160E06D099
:101908000001D890A133A0339F339E33E82EF8D737
:101918009EC0A3F09FC0A4F0A0C0A5F0A1C0A6F0EF
:101928000001A3510001A36FA46BA56BA66BA3C014
:1019380018FF020E0001A219D8A41200F70E2118F0
:10194800D8A412001D500001A36FA46BA56BA66B51
:10195800A3C01FFF000E1D140001A36FFF0E1E146D
:101968000001A46F000E1F140001A56F000E2014C3
:101978000001A66FA3C09EF0A4C09FF0A5C0A0F070
:10198800A6C0A1F09FC09EF0A0C09FF0A1C0A0F08B
:101998000001A16B9EC0A3F09FC0A4F0A0C0A5F059
:1019A800A1C0A6F0A3C01EFF1FA003D00F011D8178
:1019B80002D00F011D911FA203D00F011D8302D079
:1019C8000F011D931FA403D00F011D8B02D00F011F
:1019D8001D9B1FA603D00F011D8D02D00F011D9D59
:1019E8001FA803D00F011D8F02D00F011D9F1DC01E
:1019F8009EF01EC09FF01FC0A0F020C0A1F0160EE0
:101A080006D00001D890A133A0339F339E33E82E2F
:101A1800F8D79EC0A3F09FC0A4F0A0C0A5F0A1C0B5
:101A2800A6F00001A3510001A36FA46BA56BA66BE0
:101A3800A3C01CFF1200020E221823102410251028
:101A4800D8A494D042A02CD02AC026F02BC027F0CE
:101A58002CC028F02DC029F0030E0001866F1BEC66
:101A680012F0E806D8A4FBD7020E00019E6F000E04
:101A78009F6F000EA06F000EA16F860E0001A26F6F
:101A8800000E0001A36F080E0001A46FBC0E000138
:101A9800A56F30EC05F08C888C9A8C9C8C840DD0CA
:101AA80000018605D8A402D08C8A829A020E000111
:101AB8008619D8A402D08C8C82982AC0AAF02BC090
:101AC800ABF02CC0ACF02DC0ADF00001AA1FAB1FCD
:101AD800AC1FAD1FAA2B000EAB23AC23AD232650A1
:101AE8000001AA250001AE6F27500001AB210001BB
:101AF800AF6F28500001AC210001B06F29500001E0
:101B0800AD210001B16F0001B1510001B01108E130
:101B1800C30E0001AE5D010E0001AF59D8A026D05A
:101B2800000E8CBC010E3E6E8CAA04D00001AA6B7C
:101B3800AA2B02D00001AA6B3F50D8A402D0010EF4
:101B480001D0000E0001AA113E6E8CA804D000013D
:101B5800AA6BAA2B02D00001AA6B3F50D8A402D0CE
:101B6800010E01D0000E0001AA113E6E060E2218C9
:101B7800231024102510D8B442B047D087C030F0C5
:101B8800316A30500001AA6F00018651306EAAC038
:101B980031F089C032F0336A32500001AA6F000177
:101BA8008851326EAAC033F0325030240001AA6F37
:101BB800335031200001AB6FD8900001AB310001E8
:101BC800AD6F0001AA310001AC6F0001AC513D6E50
:101BD800325030240001AA6F335031200001AB6F1E
:101BE800D8900001AB310001AD6F0001AA310001AE
:101BF800AC6FADC0ACF00001AD6B0001AC513C6EF8
:101C08003C50D8A402D0800E3C6E090E2218231036
:101C180024102510D8A4120086C03FF0120000013D
:101C2800B06F800E3EEC12F0000E706E000E716EFA
:101C3800000E726E0001A941E842C00B0001A96FB5
:101C48000001A95170120001AA5170120001B0518F
:101C580071120001A739E842F80B0001A76F0001D3
:101C6800A75171120001ABA5718C0001ABB1718E47
:101C78000001A85172120001ABB3728C0001AB5184
:101C8800600B606E0001AB51100BFF0AD8B4608482
:101C980060CF50FF000E1D6E000E1E6E000E1F6EF0
:101CA800000E206EF70E216E010E70EC0BF0000E88
:101CB8001D6E000E1E6E000E1F6E000E206EF70EBB
:101CC800216E020E70EC0BF00FD0F70E0001B16F11
:101CD80007D00001B1690001B26928D00001B169DB
:101CE800F70E0001B26F22D09F0E0001AC6FFF0EFD
:101CF8000001AD6F0001AB51600B0001AE6FAF6B1F
:101D08000001AC510001AE130001AD510001AF1349
:101D18000001AF51000AD8A4E1D70001AE51BF0AB3
:101D2800D8B4D7D7600AD8B4D0D7D8D7000E1D6E8C
:101D3800000E1E6E000E1F6E000E206EB1C021F048
:101D4800000E0DEC00F0000E1D6E000E1E6E000E53
:101D58001F6E000E206EB1C021F0010E0DEC00F0D8
:101D6800000E1D6E000E1E6E000E1F6E000E206E01
:101D7800B2C021F0020E0DEC00F0000E1D6E000E38
:101D88001E6E000E1F6E000E206EB2C021F0030EF4
:101D98000DEC00F0000E1D6E000E1E6E000E1F6E84
:101DA800000E206EB2C021F0040E0DEC00F0000E03
:101DB8001D6E000E1E6E000E1F6E000E206EB2C04D
:101DC80021F0050E0DEC00F0000E3EEC12F01200B2
:101DD800C6EC10F08C848C868C808C828C888C8CE1
:101DE8008C8A010E0001A16FF40EA06FDAEC11F0DD
:101DF8008C948C968C908C928C988C9C8C9A42A407
:101E08000BD01FEC0DF0AA0E3A6EAA0E406E000E13
:101E1800416E45EC10F0429442A6F1D7B2EC11F0B5
:101E2800375000019619D8B42DD01BEC12F0E806F3
:101E3800D8A4FBD7050E00019E6F000E9F6F000E01
:101E4800A06F000EA16F960E0001A26F000E000198
:101E5800A36F080E0001A46FBC0E0001A56F30EC43
:101E680005F08CA402D0010E01D0000EFF0A00017B
:101E7800B36F0001B347B3478C500001B319FB0B94
:101E8800B3198C6E00018E5100016019D8B433D09B
:101E980000018F5100016119D8B42DD01BEC12F04C
:101EA800E806D8A4FBD7030E00019E6F000E9F6FB3
:101EB800000EA06F000EA16F8E0E0001A26F000E23
:101EC8000001A36F080E0001A46FBC0E0001A56FEE
:101ED80030EC05F08CA402D0010E01D0000EFF0AF0
:101EE8000001B36F0001B347B3478C500001B31929
:101EF800FB0BB3198C6E355000017E19D8B430D065
:101F0800010E00017F6F1BEC12F0E806D8A4FBD786
:101F1800040E00019E6F000E9F6F000EA06F000E52
:101F2800A16F7E0E0001A26F000E0001A36F080EC4
:101F38000001A46FBC0E0001A56F30EC05F08CA465
:101F480002D0010E01D0000EFF0A0001B36F00019C
:101F5800B347B3478C500001B319FB0BB3198C6E10
:101F680042964DD70600E9CF10F0EACF11F0E1CF45
:101F780012F0E2CF13F0D9CF14F0DACF15F0F3CF87
:101F880016F0F4CF17F0F6CF18F0F7CF19F0F8CF16
:101F98001AF0F5CF1BF04EEC11F0A4A2A4B001D0BA
:101FA80045D08CA602D0010E01D0000EFF0A0D6E9E
:101FB8000D460D460D468C500D18F70B0D188C6EFE
:101FC8002AEC12F00009D8B42FD06F0E016E000E63
:101FD800026EEAEC08F000017DA102D0428001D037
:101FE80042906FC022F070C023F071C024F072C01C
:101FF80025F04284000E1C6E070E1C6401D014D01C
:102008001C50010D730EF324D96E000EF420DA6E05
:102018001C50010D860EF324E16E000EF420E26ED2
:10202800DFCFE7FF1C2AE8D7A492A490A1A20BD087
:10203800010E2A26000E2B222C222D22630EB36EAF
:10204800C00EB26EA1921BC0F5FF1AC0F8FF19C0EE
:10205800F7FF18C0F6FF17C0F4FF16C0F3FF15C04E
:10206800DAFF14C0D9FF13C0E2FF12C0E1FF11C0AC
:10207800EAFF10C0E9FF0FC0FBFF0EC0FAFF439252
:102088001100000E00019E6F050E00019E6501D033
:102098001AD000019E51010D3A0EF324D96E000E9C
:1020A800F420DA6EDF50D8A40BD000019E51010D48
:1020B8003A0EF324D96E000EF420DA6E010EDF6EAC
:1020C80000019E2BE1D7000E386E010E00019F6FB4
:1020D800050E00019F6501D019D000019F51010D27
:1020E800B40EF324D96E000EF420DA6E00019F516D
:1020F800010D3A0EF324E16E000EF420E26EDE507C
:10210800E618D8B4382A00019F2BE2D7ACA237D002
:10211800050E3818D8B433D0F29EF29C8CA002D0A9
:10212800010E01D0000EFF0A206E8C502018FE0B05
:1021380020188C6E3A0E1E6E000E1F6E08EC12F000
:10214800000E0001A06F050E0001A06501D017D098
:102158000001A051010D3A0EF324D96E000EF420AF
:10216800DA6E0001A051010DB40EF324E16E000EE9
:10217800F420E26EDFCFE7FF0001A02BE4D7F28E58
:10218800F28C12004F0EAB16AC9ACF0E9D16060EAF
:102198000001A76F050E0001A86F010E0001A96FCD
:1021A800030E0001AA6F9D0E0001AB6F040E13EC25
:1021B8000EF0000E1E6E190E1D6E3C0E82EC11F014
:1021C800AB8ED08EA492A4909E9AA582A5809F8A59
:1021D800000E896E7D0E926E000E8A6EFB0E936E57
:1021E800000E8B6EBF0E946E000E8C6E000E956EF8
:1021F800000E8D6E040E966EC180C182C184C186A8
:10220800010EB16EA192A292630EB36EC00EB26EB1
:10221800A082F28EF28CA382A3809D8A010E000117
:10222800A16F2C0EA06FDAEC11F0120000EE60F036
:102238003E0EEE6AE806FDE1426A00EE22F0170E55
:10224800EE6AE806FDE1970EF66E240EF76E000EB4
:10225800F86E00EEB4F010EE08F00900F5CFEEFFCE
:10226800E550E150FAE18E0EF66E240EF76E000E80
:10227800F86E00EE39F010EE09F00900F5CFEEFF28
:10228800E550E150FAE143904392000EF86E0001E8
:10229800ECEF0EF09EAA12009D9A000E026E070E39
:1022A800026401D01CD08CA202D0010E01D0000E15
:1022B800FF0A016E01468C500118FD0B01188C6E47
:1022C8009EAAFED70250010D680EF324D96E000EA7
:1022D800F420DA6EAECFDFFF9E9A022AE0D7AA0E6C
:1022E80000016819D8A407D0AA0E00016E19D8A455
:1022F80002D0808242869E9A9D8A12001F6E000E2E
:10230800AC6E000EAB6E1FB0AC881FA202D0AC8CB6
:10231800AB8C1FB4AC8E1FA602D0AB8801D0AB8AA1
:102328001FB8AC849E981FBAAB861FAC02D09D8A9A
:1023380001D09D9A9E9A1FAE02D09D8801D09D988B
:102348001DC0AFFF1E50B06EAC8AAB8E949C948EAD
:10235800ACA81200ACBE1200948C120096C037F0E4
:102368008EC060F08FC061F07EC035F00001690555
:10237800D8A403D0000E0001906F020E0001691965
:10238800D8A403D0010E0001906F6BC08EF06AC014
:102398008FF0800E00018F19D8A403D0000E000121
:1023A8008F6F6CC096F06DC07EF0120039C01DF0C2
:1023B8001E6AA0C01FF0A1C020F0F3EC11F01DC0F0
:1023C8002EF01EC02FF006D0500EE82EFED72E0697
:1023D800D8A02F062E502F10D8B41200F5D71D50B4
:1023E8001F02F3CF9EF0F4CF9FF01D502002F35050
:1023F80000019F271E501F02F35000019F279EC017
:102408001DF09FC01EF01200ACA2FED71EC0D9FF5F
:102418001FC0DAFFDF5035EC12F01EC0D9FF1FC015
:10242800DAFF1E4A1F2ADF50D8B41200EDD7010E7A
:102438001D6E0F0140A708D00F0130A705D00F016E
:1024480020A702D0000E1D6E1D501200010E016E55
:1024580060BE05D00F0150BF02D0000E016E0150C2
:1024680012001D6EACAC03D0AC9034B2AC801DC071
:10247800ADFF12001D6E1DC06FFF6E50E00B1D18E2
:10248800D8B41200FAD710AA0000000000AA00AAC7
:082498000000000000AA000092
:020000040020DA
:08000000FFFFFFFFFFFFFFFF00
:020000040030CA
:0E000000FF021F0EFF8281FF0FC00FE00F40B6
:00000001FF
