:0400000098EF00F085
:100018004280D8CF2DF0E8CF2EF0E0CF2FF0FACFE6
:1000280030F0FBCF31F0E9CF32F0EACF33F0E1CF57
:1000380034F0E2CF35F0D9CF36F0DACF37F0F3CF5E
:1000480038F0F4CF39F0F6CF3AF0F7CF3BF0F8CFED
:100058003CF0F5CF3DF0A4A0A4B201D01CD069ECCF
:1000680010F00009D8B415D0600E216E000E226E73
:10007800E3EC09F000016EA102D0408001D040906D
:1000880060C009F061C00AF062C00BF063C00CF0F8
:100098004084A490A4929EAA23D01A0E226E000E29
:1000A800236E070E246E30EC10F0AA0E1A18D8A48E
:1000B80016D0AA0E2018D8A412D08AC011F012C0E7
:1000C80001F013C002F07AC010F01BC014F01CC07D
:1000D80012F01DC013F01EC08AF01FC07AF09E9A5D
:1000E8003DC0F5FF3CC0F8FF3BC0F7FF3AC0F6FF44
:1000F80039C0F4FF38C0F3FF37C0DAFF36C0D9FF84
:1001080035C0E2FF34C0E1FF33C0EAFF32C0E9FF87
:1001180031C0FBFF30C0FAFF2FC0E0FF2EC0E8FF60
:100128002DC0D8FF4290100013EF10F000019B6F14
:1001380000019B510001D8A458D000019629D8A4E9
:1001480054D00F01019792C097F093C098F094C0D3
:1001580099F095C09AF0040E06D00001D8909A3311
:10016800993398339733E82EF8D797C09CF098C006
:100178009DF099C09EF09AC09FF000019C5100012B
:100188009C6F9D6B9E6B9F6B9CC000FF070E0001D0
:10019800921500019C6F000E0001931500019D6FE0
:1001A800000E0001941500019E6F000E00019515C8
:1001B80000019F6F9CC097F09DC098F09EC099F079
:1001C8009FC09AF0050ED890000197379837993755
:1001D8009A37E82EF8D797C09CF098C09DF099C040
:1001E8009EF09AC09FF09CC001FF00019B05D8A417
:1001F80058D000019629D8A454D00F01059792C071
:1002080097F093C098F094C099F095C09AF0040EB6
:1002180006D00001D8909A33993398339733E82E53
:10022800F8D797C09CF098C09DF099C09EF09AC0EE
:100238009FF000019C5100019C6F9D6B9E6B9F6B12
:100248009CC004FF070E0001921500019C6F000E70
:100258000001931500019D6F000E00019415000127
:100268009E6F000E0001951500019F6F9CC097F0CE
:100278009DC098F09EC099F09FC09AF0050ED89046
:1002880000019737983799379A37E82EF8D797C0EB
:100298009CF098C09DF099C09EF09AC09FF09CC0B9
:1002A80005FF020E00019B19D8A458D00001962919
:1002B800D8A454D00F01099792C097F093C098F032
:1002C80094C099F095C09AF0040E06D00001D89019
:1002D8009A33993398339733E82EF8D797C09CF020
:1002E80098C09DF099C09EF09AC09FF000019C5163
:1002F80000019C6F9D6B9E6B9F6B9CC008FF070E57
:100308000001921500019C6F000E00019315000179
:100318009D6F000E0001941500019E6F000E0001F4
:10032800951500019F6F9CC097F09DC098F09EC0E6
:1003380099F09FC09AF0050ED8900001973798372A
:1003480099379A37E82EF8D797C09CF098C09DF057
:1003580099C09EF09AC09FF09CC009FF030E00014F
:100368009B19D8A458D000019629D8A454D00F01BD
:100378000D9792C097F093C098F094C099F095C0EB
:100388009AF0040E06D00001D8909A339933983326
:100398009733E82EF8D797C09CF098C09DF099C085
:1003A8009EF09AC09FF000019C5100019C6F9D6BCC
:1003B8009E6B9F6B9CC00CFF070E000192150001FD
:1003C8009C6F000E0001931500019D6F000E000147
:1003D800941500019E6F000E0001951500019F6F96
:1003E8009CC097F09DC098F09EC099F09FC09AF06D
:1003F800050ED89000019737983799379A37E82E25
:10040800F8D797C09CF098C09DF099C09EF09AC00C
:100418009FF09CC00DFF040E00019B19D8A458D072
:1004280000019629D8A454D00F01119792C097F0D3
:1004380093C098F094C099F095C09AF0040E06D035
:100448000001D8909A33993398339733E82EF8D728
:1004580097C09CF098C09DF099C09EF09AC09FF0FC
:1004680000019C5100019C6F9D6B9E6B9F6B9CC013
:1004780010FF070E0001921500019C6F000E00018D
:10048800931500019D6F000E0001941500019E6FE9
:10049800000E0001951500019F6F9CC097F09DC04C
:1004A80098F09EC099F09FC09AF0050ED890000170
:1004B8009737983799379A37E82EF8D797C09CF02E
:1004C80098C09DF099C09EF09AC09FF09CC011FF03
:1004D800050E00019B19D8A458D000019629D8A46C
:1004E80054D00F01159792C097F093C098F094C01C
:1004F80099F095C09AF0040E06D00001D8909A336E
:10050800993398339733E82EF8D797C09CF098C062
:100518009DF099C09EF09AC09FF000019C51000187
:100528009C6F9D6B9E6B9F6B9CC014FF070E000118
:10053800921500019C6F000E0001931500019D6F3C
:10054800000E0001941500019E6F000E0001951524
:1005580000019F6F9CC097F09DC098F09EC099F0D5
:100568009FC09AF0050ED8900001973798379937B1
:100578009A37E82EF8D797C09CF098C09DF099C09C
:100588009EF09AC09FF09CC015FF00019B5100018E
:10059800D8A489D0F70E00019619D8A484D00F01E9
:1005A80001870001925100019C6F9D6B9E6B9F6BB0
:1005B8009CC003FF000E0001921500019C6FFF0E06
:1005C8000001931500019D6F000E000194150001B4
:1005D8009E6F000E0001951500019F6F9CC097F05B
:1005E8009DC098F09EC099F09FC09AF098C097F06F
:1005F80099C098F09AC099F000019A6B97C09CF046
:1006080098C09DF099C09EF09AC09FF09CC002FFD0
:10061800000194A103D00F01018102D00F010191C3
:10062800000194A303D00F01018302D00F010193AD
:10063800000194A503D00F01018B02D00F01019B8B
:10064800000194A703D00F01018D02D00F01019D75
:10065800000194A903D00F01018F02D00F01019F5F
:1006680092C097F093C098F094C099F095C09AF012
:10067800160E06D00001D8909A33993398339733E1
:10068800E82EF8D797C09CF098C09DF099C09EF0CE
:100698009AC09FF000019C5100019C6F9D6B9E6B5E
:1006A8009F6B9CC000FF00019B05D8A489D0F70E62
:1006B80000019619D8A484D00F0105870001925132
:1006C80000019C6F9D6B9E6B9F6B9CC007FF000E8B
:1006D8000001921500019C6FFF0E000193150001A7
:1006E8009D6F000E0001941500019E6F000E000121
:1006F800951500019F6F9CC097F09DC098F09EC013
:1007080099F09FC09AF098C097F099C098F09AC055
:1007180099F000019A6B97C09CF098C09DF099C021
:100728009EF09AC09FF09CC006FF000194A103D0E0
:100738000F01058102D00F010591000194A303D098
:100748000F01058302D00F010593000194A503D082
:100758000F01058B02D00F01059B000194A703D060
:100768000F01058D02D00F01059D000194A903D04A
:100778000F01058F02D00F01059F92C097F093C01B
:1007880098F094C099F095C09AF0160E06D0000122
:10079800D8909A33993398339733E82EF8D797C07F
:1007A8009CF098C09DF099C09EF09AC09FF00001FF
:1007B8009C5100019C6F9D6B9E6B9F6B9CC004FFBE
:1007C800020E00019B19D8A489D0F70E00019619D2
:1007D800D8A484D00F0109870001925100019C6FB1
:1007E8009D6B9E6B9F6B9CC00BFF000E00019215CA
:1007F80000019C6FFF0E0001931500019D6F000E14
:100808000001941500019E6F000E0001951500016E
:100818009F6F9CC097F09DC098F09EC099F09FC0B4
:100828009AF098C097F099C098F09AC099F0000192
:100838009A6B97C09CF098C09DF099C09EF09AC0A2
:100848009FF09CC00AFF000194A103D00F01098109
:1008580002D00F010991000194A303D00F0109836D
:1008680002D00F010993000194A503D00F01098B51
:1008780002D00F01099B000194A703D00F01098D35
:1008880002D00F01099D000194A903D00F01098F1F
:1008980002D00F01099F92C097F093C098F094C0BE
:1008A80099F095C09AF0160E06D00001D8909A33A8
:1008B800993398339733E82EF8D797C09CF098C0AF
:1008C8009DF099C09EF09AC09FF000019C510001D4
:1008D8009C6F9D6B9E6B9F6B9CC008FF030E000175
:1008E8009B19D8A489D0F70E00019619D8A484D0F2
:1008F8000F010D870001925100019C6F9D6B9E6B4B
:100908009F6B9CC00FFF000E0001921500019C6FA9
:10091800FF0E0001931500019D6F000E0001941554
:1009280000019E6F000E0001951500019F6F9CC08D
:1009380097F09DC098F09EC099F09FC09AF098C01B
:1009480097F099C098F09AC099F000019A6B97C0F7
:100958009CF098C09DF099C09EF09AC09FF09CC0F2
:100968000EFF000194A103D00F010D8102D00F01E9
:100978000D91000194A303D00F010D8302D00F0144
:100988000D93000194A503D00F010D8B02D00F0128
:100998000D9B000194A703D00F010D8D02D00F010C
:1009A8000D9D000194A903D00F010D8F02D00F01F6
:1009B8000D9F92C097F093C098F094C099F095C09D
:1009C8009AF0160E06D00001D8909A3399339833CE
:1009D8009733E82EF8D797C09CF098C09DF099C03F
:1009E8009EF09AC09FF000019C5100019C6F9D6B86
:1009F8009E6B9F6B9CC00CFF040E00019B19D8A432
:100A080089D0F70E00019619D8A484D00F01118758
:100A18000001925100019C6F9D6B9E6B9F6B9CC067
:100A280013FF000E0001921500019C6FFF0E0001DC
:100A3800931500019D6F000E0001941500019E6F33
:100A4800000E0001951500019F6F9CC097F09DC096
:100A580098F09EC099F09FC09AF098C097F099C0FE
:100A680098F09AC099F000019A6B97C09CF098C0D2
:100A78009DF099C09EF09AC09FF09CC012FF0001A3
:100A880094A103D00F01118102D00F01119100012F
:100A980094A303D00F01118302D00F011193000119
:100AA80094A503D00F01118B02D00F01119B0001F7
:100AB80094A703D00F01118D02D00F01119D0001E1
:100AC80094A903D00F01118F02D00F01119F92C07A
:100AD80097F093C098F094C099F095C09AF0160ECC
:100AE80006D00001D8909A33993398339733E82E7B
:100AF800F8D797C09CF098C09DF099C09EF09AC016
:100B08009FF000019C5100019C6F9D6B9E6B9F6B39
:100B18009CC010FF050E00019B19D8A41200F70E07
:100B280000019619D8A412000F01158700019251EF
:100B380000019C6F9D6B9E6B9F6B9CC017FF000E06
:100B48000001921500019C6FFF0E00019315000132
:100B58009D6F000E0001941500019E6F000E0001AC
:100B6800951500019F6F9CC097F09DC098F09EC09E
:100B780099F09FC09AF098C097F099C098F09AC0E1
:100B880099F000019A6B97C09CF098C09DF099C0AD
:100B98009EF09AC09FF09CC016FF000194A103D05C
:100BA8000F01158102D00F011591000194A303D004
:100BB8000F01158302D00F011593000194A503D0EE
:100BC8000F01158B02D00F01159B000194A703D0CC
:100BD8000F01158D02D00F01159D000194A903D0B6
:100BE8000F01158F02D00F01159F92C097F093C087
:100BF80098F094C099F095C09AF0160E06D00001AE
:100C0800D8909A33993398339733E82EF8D797C00A
:100C18009CF098C09DF099C09EF09AC09FF000018A
:100C28009C5100019C6F9D6B9E6B9F6B9CC014FF39
:100C380012000F0140B73FD198C045FF000199ADA0
:100C480003D00F01458D02D00F01459D000199A7E2
:100C580079D00001925100019E6F9F6BA06BA16B30
:100C68009EC044FF000E0001921500019E6FFF0E0A
:100C78000001931500019F6F000E000194150001FB
:100C8800A06F000E000195150001A16F9EC09AF09B
:100C98009FC09BF0A0C09CF0A1C09DF09BC09AF0A3
:100CA8009CC09BF09DC09CF000019D6B9AC09EF07B
:100CB8009BC09FF09CC0A0F09DC0A1F09EC043FFC8
:100CC800000E0F01426F0F014287000194A102D06C
:100CD8000F014281000194A302D00F014283000159
:100CE80094A502D00F01428B000194A702D00F01F6
:100CF800428D000194A902D00F01428F92C09AF050
:100D080093C09BF094C09CF095C09DF0160E06D041
:100D18000001D8909D339C339B339A33E82EF8D743
:100D28009AC09EF09BC09FF09CC0A0F09DC0A1F00F
:100D380000019E5100019E6F9F6BA06BA16B9EC02E
:100D480041FF59D00F01429792C09AF093C09BF08F
:100D580094C09CF095C09DF0040E06D00001D89078
:100D68009D339C339B339A33E82EF8D79AC09EF074
:100D78009BC09FF09CC0A0F09DC0A1F000019E51B7
:100D880000019E6F9F6BA06BA16B9EC041FF070E79
:100D98000001921500019E6F000E000193150001DD
:100DA8009F6F000E000194150001A06F000E000156
:100DB80095150001A16F9EC09AF09FC09BF0A0C03E
:100DC8009CF0A1C09DF0050ED89000019A379B3782
:100DD8009C379D37E82EF8D79AC09EF09BC09FF0AD
:100DE8009CC0A0F09DC0A1F00F0142511F0B0F0144
:100DF800426F9EC042FF000199A103D00F014081BC
:100E080002D00F014091000199A303D00F01408344
:100E180002D00F01409396C0D9FF97C0DAFFDF5088
:100E28000F01466F000120EE01F09651D926975127
:100E3800DA22DF500F01476F000120EE02F09651D1
:100E4800D9269751DA22DF500F01486F000120EEB2
:100E580003F09651D9269751DA22DF500F01496FD6
:100E6800000120EE04F09651D9269751DA22DF507E
:100E78000F014A6F000120EE05F09651D9269751CF
:100E8800DA22DF500F014B6F000120EE06F0965179
:100E9800D9269751DA22DF500F014C6F000120EE5E
:100EA80007F09651D9269751DA22DF500F014D6F7E
:100EB8000F01408712000F0130B73FD198C035FFAE
:100EC800000199AD03D00F01358D02D00F01359D7A
:100ED800000199A779D00001925100019E6F9F6B84
:100EE800A06BA16B9EC034FF000E0001921500019B
:100EF8009E6FFF0E0001931500019F6F000E000109
:100F080094150001A06F000E000195150001A16F56
:100F18009EC09AF09FC09BF0A0C09CF0A1C09DF01D
:100F28009BC09AF09CC09BF09DC09CF000019D6BFB
:100F38009AC09EF09BC09FF09CC0A0F09DC0A1F0FD
:100F48009EC033FF000E0F01326F0F013287000180
:100F580094A102D00F013281000194A302D00F01A5
:100F68003283000194A502D00F01328B000194A7AF
:100F780002D00F01328D000194A902D00F01328FE7
:100F880092C09AF093C09BF094C09CF095C09DF0DD
:100F9800160E06D00001D8909D339C339B339A33AC
:100FA800E82EF8D79AC09EF09BC09FF09CC0A0F096
:100FB8009DC0A1F000019E5100019E6F9F6BA06B28
:100FC800A16B9EC031FF59D00F01329792C09AF0A1
:100FD80093C09BF094C09CF095C09DF0040E06D081
:100FE8000001D8909D339C339B339A33E82EF8D771
:100FF8009AC09EF09BC09FF09CC0A0F09DC0A1F03D
:1010080000019E5100019E6F9F6BA06BA16B9EC05B
:1010180031FF070E0001921500019E6F000E0001BE
:10102800931500019F6F000E000194150001A06F39
:10103800000E000195150001A16F9EC09AF09FC097
:101048009BF0A0C09CF0A1C09DF0050ED8900001B7
:101058009A379B379C379D37E82EF8D79AC09EF071
:101068009BC09FF09CC0A0F09DC0A1F00F01325121
:101078001F0B0F01326F9EC032FF000199A103D0F0
:101088000F01308102D00F013091000199A303D0E4
:101098000F01308302D00F01309396C0D9FF97C05B
:1010A800DAFFDF500F01366F000120EE01F0965194
:1010B800D9269751DA22DF500F01376F000120EE51
:1010C80002F09651D9269751DA22DF500F01386F76
:1010D800000120EE03F09651D9269751DA22DF500D
:1010E8000F01396F000120EE04F09651D92697516F
:1010F800DA22DF500F013A6F000120EE05F0965119
:10110800D9269751DA22DF500F013B6F000120EEFC
:1011180006F09651D9269751DA22DF500F013C6F1D
:10112800000120EE07F09651D9269751DA22DF50B8
:101138000F013D6F0F01308712000F0120B7120019
:1011480098C025FF000199AD03D00F01258D02D06D
:101158000F01259D000199A779D000019251000146
:101168009E6F9F6BA06BA16B9EC024FF000E0001B9
:10117800921500019E6FFF0E0001931500019F6FED
:10118800000E000194150001A06F000E00019515D6
:101198000001A16F9EC09AF09FC09BF0A0C09CF078
:1011A800A1C09DF09BC09AF09CC09BF09DC09CF094
:1011B80000019D6B9AC09EF09BC09FF09CC0A0F060
:1011C8009DC0A1F09EC023FF000E0F01226F0F01EA
:1011D8002287000194A102D00F012281000194A36B
:1011E80002D00F012283000194A502D00F01228BA7
:1011F800000194A702D00F01228D000194A902D00A
:101208000F01228F92C09AF093C09BF094C09CF07B
:1012180095C09DF0160E06D00001D8909D339C33E2
:101228009B339A33E82EF8D79AC09EF09BC09FF064
:101238009CC0A0F09DC0A1F000019E5100019E6FCE
:101248009F6BA06BA16B9EC021FF59D00F01229705
:1012580092C09AF093C09BF094C09CF095C09DF00A
:10126800040E06D00001D8909D339C339B339A33EB
:10127800E82EF8D79AC09EF09BC09FF09CC0A0F0C3
:101288009DC0A1F000019E5100019E6F9F6BA06B55
:10129800A16B9EC021FF070E0001921500019E6FF1
:1012A800000E0001931500019F6F000E00019415B8
:1012B8000001A06F000E000195150001A16F9EC0EE
:1012C8009AF09FC09BF0A0C09CF0A1C09DF0050EB5
:1012D800D89000019A379B379C379D37E82EF8D76E
:1012E8009AC09EF09BC09FF09CC0A0F09DC0A1F04A
:1012F8000F0122511F0B0F01226F9EC022FF000118
:1013080099A103D00F01208102D00F012091000183
:1013180099A303D00F01208302D00F01209396C018
:10132800D9FF97C0DAFFDF500F01266F000120EECA
:1013380001F09651D9269751DA22DF500F01276F15
:10134800000120EE02F09651D9269751DA22DF509B
:101358000F01286F000120EE03F09651D92697510E
:10136800DA22DF500F01296F000120EE04F09651B8
:10137800D9269751DA22DF500F012A6F000120EE9B
:1013880005F09651D9269751DA22DF500F012B6FBD
:10139800000120EE06F09651D9269751DA22DF5047
:1013A8000F012C6F000120EE07F09651D9269751B6
:1013B800DA22DF500F012D6F0F0120871200000E77
:1013C8002B6E74BE2B8074BC2B820F0150AF43D19F
:1013D80021C0D9FF22C0DAFFDE6ADE6ADE6ADD6A72
:1013E80020EE04F02150D9262250DA2256CFDFFF12
:1013F80020EE05F02150D9262250DA2257CFDFFF00
:1014080020EE06F02150D9262250DA2258CFDFFFED
:1014180020EE07F02150D9262250DA2259CFDFFFDB
:1014280020EE08F02150D9262250DA225ACFDFFFC9
:1014380020EE09F02150D9262250DA225BCFDFFFB7
:1014480020EE0AF02150D9262250DA225CCFDFFFA5
:1014580020EE0BF02150D9262250DA225DCFDFFF93
:1014680020EE0EF02150D9262250DA220F0155AD78
:1014780002D0010E01D0000EDF6E20EE0DF02150DB
:10148800D9262250DA220F0155510F0BDF6E20EEBC
:101498000CF02150D9262250DA220F0152A702D08F
:1014A800010E01D0000EDF6E0F0152B744D051CFAC
:1014B80023F0246A256A266A030ED8902336243638
:1014C80025362636E82EF9D721C0D9FF22C0DAFF03
:1014D80023C0DEFF24C0DEFF25C0DEFF26C0DEFFFE
:1014E8000F015239E842070B070B2C6E21C0D9FFB8
:1014F80022C0DAFFDECF23F0DECF24F0DECF25F0E6
:10150800DECF26F02C502324276E000E2420286ED0
:10151800000E2520296E000E26202A6E21C0D9FF34
:1015280022C0DAFF27C0DEFF28C0DEFF29C0DEFFA9
:101538002AC0DEFF8DD054CF23F0246A256A266A9C
:1015480021C0D9FF22C0DAFF23C0DEFF24C0DEFF9E
:1015580025C0DEFF26C0DEFF53CF23F0246A256AAC
:10156800266A25C026F024C025F023C024F0236A6B
:1015780021C0D9FF22C0DAFF2350DE262450DE2204
:101588002550DE222650DE220F0152A10CD021C0A8
:10159800D9FF22C0DAFF000EDE12000EDE12010EA5
:1015A800DE12000EDE120F0152A30CD021C0D9FFAB
:1015B80022C0DAFF000EDE12000EDE12020EDE126C
:1015C800000EDE120F0152AB0CD021C0D9FF22C091
:1015D800DAFF000EDE12000EDE12040EDE12000E1E
:1015E800DE120F0152AD0CD021C0D9FF22C0DAFFA4
:1015F800000EDE12000EDE12080EDE12000EDE12E3
:101608000F0152AF0CD021C0D9FF22C0DAFF000E63
:10161800DE12000EDE12100EDE12000EDE1251CFA8
:1016280023F0246A256A266A150ED89023362436B4
:1016380025362636E82EF9D721C0D9FF22C0DAFF91
:101648002350DE122450DE122550DE122650DE1200
:101658000F01509F120060AE120021C0D9FF22C0B6
:10166800DAFFDE6ADE6ADE6ADD6A20EE04F0215007
:10167800D9262250DA2266CFDFFF20EE05F021506E
:10168800D9262250DA2267CFDFFF20EE06F021505C
:10169800D9262250DA2268CFDFFF20EE07F021504A
:1016A800D9262250DA2269CFDFFF20EE08F0215038
:1016B800D9262250DA226ACFDFFF20EE09F0215026
:1016C800D9262250DA226BCFDFFF20EE0AF0215014
:1016D800D9262250DA226CCFDFFF20EE0BF0215002
:1016E800D9262250DA226DCFDFFF20EE0EF02150EE
:1016F800D9262250DA2265AC02D0010E01D0000EA4
:10170800DF6E20EE0DF02150D9262250DA226550E6
:101718000F0BDF6E20EE0CF02150D9262250DA2272
:1017280062A602D0010E01D0000EDF6E62B643D071
:1017380061CF23F0246A256A266A030ED8902336DF
:10174800243625362636E82EF9D721C0D9FF22C0FF
:10175800DAFF23C0DEFF24C0DEFF25C0DEFF26C07F
:10176800DEFF6238E842070B070B2C6E21C0D9FF59
:1017780022C0DAFFDECF23F0DECF24F0DECF25F063
:10178800DECF26F02C502324276E000E2420286E4E
:10179800000E2520296E000E26202A6E21C0D9FFB2
:1017A80022C0DAFF27C0DEFF28C0DEFF29C0DEFF27
:1017B8002AC0DEFF88D064CF23F0246A256A266A0F
:1017C80021C0D9FF22C0DAFF23C0DEFF24C0DEFF1C
:1017D80025C0DEFF26C0DEFF63CF23F0246A256A1A
:1017E800266A25C026F024C025F023C024F0236AE9
:1017F80021C0D9FF22C0DAFF2350DE262450DE2282
:101808002550DE222650DE2262A00CD021C0D9FF4E
:1018180022C0DAFF000EDE12000EDE12010EDE120A
:10182800000EDE1262A20CD021C0D9FF22C0DAFF5E
:10183800000EDE12000EDE12020EDE12000EDE12A6
:1018480062AA0CD021C0D9FF22C0DAFF000EDE1236
:10185800000EDE12040EDE12000EDE1262AC0CD098
:1018680021C0D9FF22C0DAFF000EDE12000EDE1200
:10187800080EDE12000EDE1262AE0CD021C0D9FFB7
:1018880022C0DAFF000EDE12000EDE12100EDE128B
:10189800000EDE1261CF23F0246A256A266A150E2F
:1018A800D8902336243625362636E82EF9D721C097
:1018B800D9FF22C0DAFF2350DE122450DE12255051
:1018C800DE122650DE12609E120000019B6F00019E
:1018D8009B05D8A456D000019629D8A452D092C00E
:1018E80097F093C098F094C099F095C09AF0040EC0
:1018F80006D00001D8909A33993398339733E82E5D
:10190800F8D797C09CF098C09DF099C09EF09AC0F7
:101918009FF000019C5100019C6F9D6B9E6B9F6B1B
:101928009CC018FF070E0001921500019C6F000E65
:101938000001931500019D6F000E00019415000130
:101948009E6F000E0001951500019F6F9CC097F0D7
:101958009DC098F09EC099F09FC09AF0050ED8904F
:1019680000019737983799379A37E82EF8D797C0F4
:101978009CF098C09DF099C09EF09AC09FF09CC0C2
:1019880019FF020E00019B19D8A456D00001962910
:10199800D8A452D092C097F093C098F094C099F010
:1019A80095C09AF0040E06D00001D8909A33993366
:1019B80098339733E82EF8D797C09CF098C09DF0DD
:1019C80099C09EF09AC09FF000019C5100019C6F45
:1019D8009D6B9E6B9F6B9CC01CFF070E00019215B0
:1019E80000019C6F000E0001931500019D6F000E11
:1019F8000001941500019E6F000E0001951500016D
:101A08009F6F9CC097F09DC098F09EC099F09FC0B2
:101A18009AF0050ED89000019737983799379A377A
:101A2800E82EF8D797C09CF098C09DF099C09EF01A
:101A38009AC09FF09CC01DFF00019B05D8A487D0C9
:101A4800F70E00019619D8A482D000019251000126
:101A58009C6F9D6B9E6B9F6B9CC01BFF000E0001D3
:101A6800921500019C6FFF0E0001931500019D6FF8
:101A7800000E0001941500019E6F000E00019515DF
:101A880000019F6F9CC097F09DC098F09EC099F090
:101A98009FC09AF098C097F099C098F09AC099F0B2
:101AA80000019A6B97C09CF098C09DF099C09EF079
:101AB8009AC09FF09CC01AFF000194A103D00F01A7
:101AC800198102D00F011991000194A303D00F01CD
:101AD800198302D00F011993000194A503D00F01B7
:101AE800198B02D00F01199B000194A703D00F0195
:101AF800198D02D00F01199D000194A903D00F017F
:101B0800198F02D00F01199F92C097F093C098F0D7
:101B180094C099F095C09AF0160E06D00001D8909E
:101B28009A33993398339733E82EF8D797C09CF0B7
:101B380098C09DF099C09EF09AC09FF000019C51FA
:101B480000019C6F9D6B9E6B9F6B9CC018FF020EE3
:101B580000019B19D8A41200F70E00019619D8A409
:101B680012000001925100019C6F9D6B9E6B9F6B50
:101B78009CC01FFF000E0001921500019C6FFF0E14
:101B88000001931500019D6F000E000194150001DE
:101B98009E6F000E0001951500019F6F9CC097F085
:101BA8009DC098F09EC099F09FC09AF098C097F099
:101BB80099C098F09AC099F000019A6B97C09CF070
:101BC80098C09DF099C09EF09AC09FF09CC01EFFDF
:101BD800000194A103D00F011D8102D00F011D91B6
:101BE800000194A303D00F011D8302D00F011D93A0
:101BF800000194A503D00F011D8B02D00F011D9B7E
:101C0800000194A703D00F011D8D02D00F011D9D67
:101C1800000194A903D00F011D8F02D00F011D9F51
:101C280092C097F093C098F094C099F095C09AF03C
:101C3800160E06D00001D8909A339933983397330B
:101C4800E82EF8D797C09CF098C09DF099C09EF0F8
:101C58009AC09FF000019C5100019C6F9D6B9E6B88
:101C68009F6B9CC01CFF12000001A96F800E7DECC9
:101C780010F0000E706E000E716E000E726E000194
:101C8800A241E842C00B0001A26F0001A2517012EC
:101C98000001A35170120001A95171120001A0396D
:101CA800E842F80B0001A06F0001A0517112000179
:101CB800A4A5718C0001A4B1718E0001A15172120A
:101CC8000001A4B3728C0001A451600B606E000186
:101CD800A451100BFF0AD8B4608460CF50FF000EE7
:101CE8000001926F000E936F000E946F000E956FB7
:101CF800F70E0001966F010E69EC0CF0000E000162
:101D0800926F000E936F000E946F000E956FF70E92
:101D18000001966F020E69EC0CF00FD0F70E00016F
:101D2800AA6F07D00001AA690001AB6928D0000199
:101D3800AA69F70E0001AB6F22D09F0E0001A56FB4
:101D4800FF0E0001A66F0001A451600B0001A76FF0
:101D5800A86B0001A5510001A7130001A6510001BD
:101D6800A8130001A851000AD8A4E1D70001A7517F
:101D7800BF0AD8B4D7D7600AD8B4D0D7D8D7000EFE
:101D88000001926F000E936F000E946F000E956F16
:101D9800AAC096F0000E9AEC00F0000E0001926FB7
:101DA800000E936F000E946F000E956FAAC096F008
:101DB800010E9AEC00F0000E0001926F000E936F76
:101DC800000E946F000E956FABC096F0020E9AEC61
:101DD80000F0000E0001926F000E936F000E946FDA
:101DE800000E956FABC096F0030E9AEC00F0000E53
:101DF8000001926F000E936F000E946F000E956FA6
:101E0800ABC096F0040E9AEC00F0000E0001926F41
:101E1800000E936F000E946F000E956FABC096F096
:101E2800050E9AEC00F0000E7DEC10F01200BEECEE
:101E38000FF040A40BD0F5EC0FF06F0E0001926F7D
:101E4800000E0001936F46EC10F0409440A6F1D7C5
:101E5800115000018A19D8B417D0050E0001926FED
:101E6800000E936F000E946F000E956F8A0E00019E
:101E7800966F000E0001976F080E0001986FBC0E58
:101E88000001996F1DEC06F012500118D8B41BD050
:101E980013500218D8B417D0030E0001926F000E29
:101EA800936F000E946F000E956F120E0001966FDF
:101EB800000E0001976F080E0001986FBC0E00011C
:101EC800996F1DEC06F0105000017A19D8B417D09C
:101ED800040E0001926F000E936F000E946F000EB7
:101EE800956F7A0E0001966F000E0001976F080E2D
:101EF8000001986FBC0E0001996F1DEC06F040962A
:101F080098D70001926F000EAC6E000EAB6E000108
:101F180092B1AC88000192A302D0AC8CAB8C0001CA
:101F280092B5AC8E000192A702D0AB8801D0AB8AE3
:101F3800000192B9AC849E98000192BBAB86000167
:101F480092AD02D09D8A01D09D9A9E9A000192AFCF
:101F580002D09D8801D09D983EC0AFFF3F50B06E23
:101F6800AC8AAB8E949C948EACA81200ACBE1200C6
:101F7800948C12004F0EAB16AC9ACF0E9D16D08ED5
:101F8800A492A4909E9AA592A5909F9AA382A380BA
:101F98009D8AF28EF28C060E0001A06F050E0001DC
:101FA800A16F010E0001A26F030E0001A36F9D0E29
:101FB8000001A46F040E38EC0EF0000E3F6E670EA1
:101FC8003E6E7C0E85EC0FF0000E896E7D0E926ED3
:101FD800000E8A6EFB0E936E000E8B6EBF0E946E13
:101FE8001200020E09180A100B100C10D8A41200C7
:101FF80009C092F00AC093F00BC094F00CC095F0A1
:10200800820E0001966F000E0001976F080E000106
:10201800986FBC0E0001996F1DEC06F0120000EEDF
:1020280060F0320EEE6AE806FDE1406A00EE01F06B
:10203800200EEE6AE806FDE10C0EF66E210EF76E34
:10204800000EF86E0900F5CF41F042904292000E62
:10205800F86E00011BEF0FF0000E266E0ED09EAA40
:10206800FED75AEC10F0256E22C0D9FF23C0DAFF44
:1020780025C0DFFF224A232A262A2450265CD8B00E
:102088001200EDD7ACA2FED792C0D9FF93C0DAFFF9
:10209800DF5074EC10F092C0D9FF93C0DAFF000152
:1020A800924B932BDF50D8B41200ECD7F20E0F16D8
:1020B800ABAC03D00F90ABB00F80ABB40F84ABB216
:1020C8000F86AECF21F021501200010E216E60BEA6
:1020D80005D00F0150BF02D0000E216E2150120012
:1020E8003E6EACAC03D0AC900FB2AC803EC0ADFF3E
:1020F80012003E6E3EC06FFF6E50E00B3E18D8B423
:052108001200FAD714DB
:020000040020DA
:08000000FFFFFFFFFFFFFFFF00
:020000040030CA
:0E000000FF021F1EFF8285FF0FC00FE00F40A2
:00000001FF
