:04000000B2EF00F06B
:0E0008003F82FACFA9F0FBCFAAF071ED16F0FF
:100018003F80D8CF0EF0E8CF0FF0E0CF10F0FACF46
:1000280011F0FBCF12F0E9CF13F0EACF14F0E1CFD3
:1000380015F0E2CF16F0D9CF17F0DACF18F0F3CFDA
:1000480019F0F4CF1AF0F6CF1BF0F7CF1CF0F8CF69
:100058001DF0F5CF1EF09EAA0AD07C0E026E000E8F
:10006800036E080E046E98EC19F03E869E9AA4A2C0
:1000780044D08CA602D0010E01D0000EFF0A0D6EEE
:100088000D460D460D468C500D18F70B0D188C6E4D
:10009800EBEC19F00009D8B42FD06D0E016E000EEC
:1000A800026E5FEC10F000017BA102D03E8001D00F
:1000B8003E906DC025F06EC026F06FC027F070C06E
:1000C80028F03E84000E1F6E070E1F6401D014D066
:1000D8001F50010D710EF324D96E000EF420DA6E54
:1000E8001F50010D360EF324E16E000EF420E26E6F
:1000F800DFCFE7FF1F2AE8D7A492A1A20BD0010EF9
:100108002D26000E2E222F223022630EB36EC00E33
:10011800B26EA1921EC0F5FF1DC0F8FF1CC0F7FF0C
:100128001BC0F6FF1AC0F4FF19C0F3FF18C0DAFFAE
:1001380017C0D9FF16C0E2FF15C0E1FF14C0EAFFDF
:1001480013C0E9FF12C0FBFF11C0FAFF10C0E0FFA7
:100158000FC0E8FF0EC0D8FF3F9010003CEF19F029
:100168000001C06F0001C0510001D8A458D000019F
:10017800BB29D8A454D00F010197B7C0BCF0B8C0B0
:10018800BDF0B9C0BEF0BAC0BFF0040E06D0000181
:10019800D890BF33BE33BD33BC33E82EF8D7BCC0CC
:1001A800C1F0BDC0C2F0BEC0C3F0BFC0C4F0000102
:1001B800C1510001C16FC26BC36BC46BC1C000FFEA
:1001C800070E0001B7150001C16F000E0001B81538
:1001D8000001C26F000E0001B9150001C36F000EC7
:1001E8000001BA150001C46FC1C0BCF0C2C0BDF0A7
:1001F800C3C0BEF0C4C0BFF0050ED8900001BC3724
:10020800BD37BE37BF37E82EF8D7BCC0C1F0BDC078
:10021800C2F0BEC0C3F0BFC0C4F0C1C001FF00013E
:10022800C005D8A458D00001BB29D8A454D00F01C8
:100238000597B7C0BCF0B8C0BDF0B9C0BEF0BAC031
:10024800BFF0040E06D00001D890BF33BE33BD33D3
:10025800BC33E82EF8D7BCC0C1F0BDC0C2F0BEC0E8
:10026800C3F0BFC0C4F00001C1510001C16FC26B2F
:10027800C36BC46BC1C004FF070E0001B7150001B2
:10028800C16F000E0001B8150001C26F000E000119
:10029800B9150001C36F000E0001BA150001C46F43
:1002A800C1C0BCF0C2C0BDF0C3C0BEF0C4C0BFF086
:1002B800050ED8900001BC37BD37BE37BF37E82ED2
:1002C800F8D7BCC0C1F0BDC0C2F0BEC0C3F0BFC04B
:1002D800C4F0C1C005FF020E0001C019D8A458D04F
:1002E8000001BB29D8A454D00F010997B7C0BCF0AE
:1002F800B8C0BDF0B9C0BEF0BAC0BFF0040E06D099
:100308000001D890BF33BE33BD33BC33E82EF8D7D5
:10031800BCC0C1F0BDC0C2F0BEC0C3F0BFC0C4F015
:100328000001C1510001C16FC26BC36BC46BC1C076
:1003380008FF070E0001B7150001C16F000E00018C
:10034800B8150001C26F000E0001B9150001C36F96
:10035800000E0001BA150001C46FC1C0BCF0C2C0D4
:10036800BDF0C3C0BEF0C4C0BFF0050ED8900001F8
:10037800BC37BD37BE37BF37E82EF8D7BCC0C1F091
:10038800BDC0C2F0BEC0C3F0BFC0C4F0C1C009FF49
:10039800030E0001C019D8A458D00001BB29D8A465
:1003A80054D00F010D97B7C0BCF0B8C0BDF0B9C0AC
:1003B800BEF0BAC0BFF0040E06D00001D890BF331B
:1003C800BE33BD33BC33E82EF8D7BCC0C1F0BDC0C6
:1003D800C2F0BEC0C3F0BFC0C4F00001C1510001EB
:1003E800C16FC26BC36BC46BC1C00CFF070E0001A9
:1003F800B7150001C16F000E0001B8150001C26FEA
:10040800000E0001B9150001C36F000E0001BA15F6
:100418000001C46FC1C0BCF0C2C0BDF0C3C0BEF013
:10042800C4C0BFF0050ED8900001BC37BD37BE3739
:10043800BF37E82EF8D7BCC0C1F0BDC0C2F0BEC0FF
:10044800C3F0BFC0C4F0C1C00DFF040E0001C01945
:10045800D8A458D00001BB29D8A454D00F011197B3
:10046800B7C0BCF0B8C0BDF0B9C0BEF0BAC0BFF0EC
:10047800040E06D00001D890BF33BE33BD33BC3361
:10048800E82EF8D7BCC0C1F0BDC0C2F0BEC0C3F0F2
:10049800BFC0C4F00001C1510001C16FC26BC36B82
:1004A800C46BC1C010FF070E0001B7150001C16F72
:1004B800000E0001B8150001C26F000E0001B91549
:1004C8000001C36F000E0001BA150001C46FC1C05E
:1004D800BCF0C2C0BDF0C3C0BEF0C4C0BFF0050EC2
:1004E800D8900001BC37BD37BE37BF37E82EF8D7E4
:1004F800BCC0C1F0BDC0C2F0BEC0C3F0BFC0C4F034
:10050800C1C011FF050E0001C019D8A458D00001C0
:10051800BB29D8A454D00F011597B7C0BCF0B8C0F8
:10052800BDF0B9C0BEF0BAC0BFF0040E06D00001DD
:10053800D890BF33BE33BD33BC33E82EF8D7BCC028
:10054800C1F0BDC0C2F0BEC0C3F0BFC0C4F000015E
:10055800C1510001C16FC26BC36BC46BC1C014FF32
:10056800070E0001B7150001C16F000E0001B81594
:100578000001C26F000E0001B9150001C36F000E23
:100588000001BA150001C46FC1C0BCF0C2C0BDF003
:10059800C3C0BEF0C4C0BFF0050ED8900001BC3780
:1005A800BD37BE37BF37E82EF8D7BCC0C1F0BDC0D5
:1005B800C2F0BEC0C3F0BFC0C4F0C1C015FF000187
:1005C800C0510001D8A489D0F70E0001BB19D8A4E6
:1005D80084D00F0101870001B7510001C16FC26BC0
:1005E800C36BC46BC1C003FF000E0001B715000147
:1005F800C16FFF0E0001B8150001C26F000E0001A7
:10060800B9150001C36F000E0001BA150001C46FCF
:10061800C1C0BCF0C2C0BDF0C3C0BEF0C4C0BFF012
:10062800BDC0BCF0BEC0BDF0BFC0BEF00001BF6B16
:10063800BCC0C1F0BDC0C2F0BEC0C3F0BFC0C4F0F2
:10064800C1C002FF0001B9A103D00F01018102D08E
:100658000F0101910001B9A303D00F01018302D05A
:100668000F0101930001B9A503D00F01018B02D03E
:100678000F01019B0001B9A703D00F01018D02D022
:100688000F01019D0001B9A903D00F01018F02D00C
:100698000F01019FB7C0BCF0B8C0BDF0B9C0BEF033
:1006A800BAC0BFF0160E06D00001D890BF33BE33D3
:1006B800BD33BC33E82EF8D7BCC0C1F0BDC0C2F012
:1006C800BEC0C3F0BFC0C4F00001C1510001C16F7A
:1006D800C26BC36BC46BC1C000FF0001C005D8A4C6
:1006E80089D0F70E0001BB19D8A484D00F01058763
:1006F8000001B7510001C16FC26BC36BC46BC1C0AD
:1007080007FF000E0001B7150001C16FFF0E0001C1
:10071800B8150001C26F000E0001B9150001C36FC2
:10072800000E0001BA150001C46FC1C0BCF0C2C000
:10073800BDF0C3C0BEF0C4C0BFF0BDC0BCF0BEC0F9
:10074800BDF0BFC0BEF00001BF6BBCC0C1F0BDC0F2
:10075800C2F0BEC0C3F0BFC0C4F0C1C006FF0001F4
:10076800B9A103D00F01058102D00F010591000145
:10077800B9A303D00F01058302D00F01059300012F
:10078800B9A503D00F01058B02D00F01059B00010D
:10079800B9A703D00F01058D02D00F01059D0001F7
:1007A800B9A903D00F01058F02D00F01059FB7C06B
:1007B800BCF0B8C0BDF0B9C0BEF0BAC0BFF0160EEC
:1007C80006D00001D890BF33BE33BD33BC33E82E0A
:1007D800F8D7BCC0C1F0BDC0C2F0BEC0C3F0BFC036
:1007E800C4F00001C1510001C16FC26BC36BC46B7F
:1007F800C1C004FF020E0001C019D8A489D0F70EA9
:100808000001BB19D8A484D00F0109870001B75192
:100818000001C16FC26BC36BC46BC1C00BFF000E7C
:100828000001B7150001C16FFF0E0001B8150001E6
:10083800C26F000E0001B9150001C36F000E000160
:10084800BA150001C46FC1C0BCF0C2C0BDF0C3C0BE
:10085800BEF0C4C0BFF0BDC0BCF0BEC0BDF0BFC0DC
:10086800BEF00001BF6BBCC0C1F0BDC0C2F0BEC0CD
:10087800C3F0BFC0C4F0C1C00AFF0001B9A103D0D2
:100888000F01098102D00F0109910001B9A303D01A
:100898000F01098302D00F0109930001B9A503D004
:1008A8000F01098B02D00F01099B0001B9A703D0E2
:1008B8000F01098D02D00F01099D0001B9A903D0CC
:1008C8000F01098F02D00F01099FB7C0BCF0B8C053
:1008D800BDF0B9C0BEF0BAC0BFF0160E06D0000118
:1008E800D890BF33BE33BD33BC33E82EF8D7BCC075
:1008F800C1F0BDC0C2F0BEC0C3F0BFC0C4F00001AB
:10090800C1510001C16FC26BC36BC46BC1C008FF8A
:10091800030E0001C019D8A489D0F70E0001BB1935
:10092800D8A484D00F010D870001B7510001C16F11
:10093800C26BC36BC46BC1C00FFF000E0001B715BB
:100948000001C16FFF0E0001B8150001C26F000E53
:100958000001B9150001C36F000E0001BA150001AE
:10096800C46FC1C0BCF0C2C0BDF0C3C0BEF0C4C03B
:10097800BFF0BDC0BCF0BEC0BDF0BFC0BEF000013E
:10098800BF6BBCC0C1F0BDC0C2F0BEC0C3F0BFC029
:10099800C4F0C1C00EFF0001B9A103D00F010D8141
:1009A80002D00F010D910001B9A303D00F010D83EF
:1009B80002D00F010D930001B9A503D00F010D8BD3
:1009C80002D00F010D9B0001B9A703D00F010D8DB7
:1009D80002D00F010D9D0001B9A903D00F010D8FA1
:1009E80002D00F010D9FB7C0BCF0B8C0BDF0B9C0B0
:1009F800BEF0BAC0BFF0160E06D00001D890BF33C3
:100A0800BE33BD33BC33E82EF8D7BCC0C1F0BDC07F
:100A1800C2F0BEC0C3F0BFC0C4F00001C1510001A4
:100A2800C16FC26BC36BC46BC1C00CFF040E000165
:100A3800C019D8A489D0F70E0001BB19D8A484D056
:100A48000F0111870001B7510001C16FC26BC36B61
:100A5800C46BC1C013FF000E0001B7150001C16FC0
:100A6800FF0E0001B8150001C26F000E0001B91594
:100A78000001C36F000E0001BA150001C46FC1C0A8
:100A8800BCF0C2C0BDF0C3C0BEF0C4C0BFF0BDC0A2
:100A9800BCF0BEC0BDF0BFC0BEF00001BF6BBCC0A3
:100AA800C1F0BDC0C2F0BEC0C3F0BFC0C4F0C1C079
:100AB80012FF0001B9A103D00F01118102D00F016B
:100AC80011910001B9A303D00F01118302D00F01C6
:100AD80011930001B9A503D00F01118B02D00F01AA
:100AE800119B0001B9A703D00F01118D02D00F018E
:100AF800119D0001B9A903D00F01118F02D00F0178
:100B0800119FB7C0BCF0B8C0BDF0B9C0BEF0BAC044
:100B1800BFF0160E06D00001D890BF33BE33BD33E8
:100B2800BC33E82EF8D7BCC0C1F0BDC0C2F0BEC00F
:100B3800C3F0BFC0C4F00001C1510001C16FC26B56
:100B4800C36BC46BC1C010FF050E0001C019D8A447
:100B58001200F70E0001BB19D8A412000F01158767
:100B68000001B7510001C16FC26BC36BC46BC1C038
:100B780017FF000E0001B7150001C16FFF0E00013D
:100B8800B8150001C26F000E0001B9150001C36F4E
:100B9800000E0001BA150001C46FC1C0BCF0C2C08C
:100BA800BDF0C3C0BEF0C4C0BFF0BDC0BCF0BEC085
:100BB800BDF0BFC0BEF00001BF6BBCC0C1F0BDC07E
:100BC800C2F0BEC0C3F0BFC0C4F0C1C016FF000170
:100BD800B9A103D00F01158102D00F0115910001B1
:100BE800B9A303D00F01158302D00F01159300019B
:100BF800B9A503D00F01158B02D00F01159B000179
:100C0800B9A703D00F01158D02D00F01159D000162
:100C1800B9A903D00F01158F02D00F01159FB7C0D6
:100C2800BCF0B8C0BDF0B9C0BEF0BAC0BFF0160E77
:100C380006D00001D890BF33BE33BD33BC33E82E95
:100C4800F8D7BCC0C1F0BDC0C2F0BEC0C3F0BFC0C1
:100C5800C4F00001C1510001C16FC26BC36BC46B0A
:100C6800C1C014FF12000F0140B73FD1BDC045FFFE
:100C78000001BEAD03D00F01458D02D00F01459D87
:100C88000001BEA779D00001B7510001C36FC46B42
:100C9800C56BC66BC3C044FF000E0001B715000149
:100CA800C36FFF0E0001B8150001C46F000E0001EC
:100CB800B9150001C56F000E0001BA150001C66F15
:100CC800C3C0BFF0C4C0C0F0C5C0C1F0C6C0C2F048
:100CD800C0C0BFF0C1C0C0F0C2C0C1F00001C26B4B
:100CE800BFC0C3F0C0C0C4F0C1C0C5F0C2C0C6F028
:100CF800C3C043FF000E0F01426F0F01428700017E
:100D0800B9A102D00F0142810001B9A302D00F019D
:100D180042830001B9A502D00F01428B0001B9A797
:100D280002D00F01428D0001B9A902D00F01428FF4
:100D3800B7C0BFF0B8C0C0F0B9C0C1F0BAC0C2F007
:100D4800160E06D00001D890C233C133C033BF336A
:100D5800E82EF8D7BFC0C3F0C0C0C4F0C1C0C5F00A
:100D6800C2C0C6F00001C3510001C36FC46BC56B9C
:100D7800C66BC3C041FF59D00F014297B7C0BFF03F
:100D8800B8C0C0F0B9C0C1F0BAC0C2F0040E06D0F5
:100D98000001D890C233C133C033BF33E82EF8D72F
:100DA800BFC0C3F0C0C0C4F0C1C0C5F0C2C0C6F067
:100DB8000001C3510001C36FC46BC56BC66BC3C0D0
:100DC80041FF070E0001B7150001C36F000E0001B7
:100DD800B8150001C46F000E0001B9150001C56FF8
:100DE800000E0001BA150001C66FC3C0BFF0C4C031
:100DF800C0F0C5C0C1F0C6C0C2F0050ED890000151
:100E0800BF37C037C137C237E82EF8D7BFC0C3F0E5
:100E1800C0C0C4F0C1C0C5F0C2C0C6F00F01425185
:100E28001F0B0F01426FC3C042FF0001BEA103D0D8
:100E38000F01408102D00F0140910001BEA303D0F1
:100E48000F01408302D00F014093BBC0D9FFBCC043
:100E5800DAFFDF500F01466F000120EE01F0BB51B1
:100E6800D926BC51DA22DF500F01476F000120EE6E
:100E780002F0BB51D926BC51DA22DF500F01486F6E
:100E8800000120EE03F0BB51D926BC51DA22DF5015
:100E98000F01496F000120EE04F0BB51D926BC5167
:100EA800DA22DF500F014A6F000120EE05F0BB5136
:100EB800D926BC51DA22DF500F014B6F000120EE1A
:100EC80006F0BB51D926BC51DA22DF500F014C6F16
:100ED800000120EE07F0BB51D926BC51DA22DF50C1
:100EE8000F014D6F0F01408712000F0130B73FD13E
:100EF800BDC035FF0001BEAD03D00F01358D02D056
:100F08000F01359D0001BEA779D00001B75100013E
:100F1800C36FC46BC56BC66BC3C034FF000E000142
:100F2800B7150001C36FFF0E0001B8150001C46FAB
:100F3800000E0001B9150001C56F000E0001BA15B9
:100F48000001C66FC3C0BFF0C4C0C0F0C5C0C1F0C7
:100F5800C6C0C2F0C0C0BFF0C1C0C0F0C2C0C1F0BE
:100F68000001C26BBFC0C3F0C0C0C4F0C1C0C5F0AF
:100F7800C2C0C6F0C3C033FF000E0F01326F0F01AD
:100F880032870001B9A102D00F0132810001B9A353
:100F980002D00F0132830001B9A502D00F01328BB4
:100FA8000001B9A702D00F01328D0001B9A902D002
:100FB8000F01328FB7C0BFF0B8C0C0F0B9C0C1F0E0
:100FC800BAC0C2F0160E06D00001D890C233C133A1
:100FD800C033BF33E82EF8D7BFC0C3F0C0C0C4F0D9
:100FE800C1C0C5F0C2C0C6F00001C3510001C36F43
:100FF800C46BC56BC66BC3C031FF59D00F013297A4
:10100800B7C0BFF0B8C0C0F0B9C0C1F0BAC0C2F034
:10101800040E06D00001D890C233C133C033BF33A9
:10102800E82EF8D7BFC0C3F0C0C0C4F0C1C0C5F037
:10103800C2C0C6F00001C3510001C36FC46BC56BC9
:10104800C66BC3C031FF070E0001B7150001C36F9F
:10105800000E0001B8150001C46F000E0001B9159B
:101068000001C56F000E0001BA150001C66FC3C0AC
:10107800BFF0C4C0C0F0C5C0C1F0C6C0C2F0050E04
:10108800D8900001BF37C037C137C237E82EF8D72C
:10109800BFC0C3F0C0C0C4F0C1C0C5F0C2C0C6F074
:1010A8000F0132511F0B0F01326FC3C032FF000115
:1010B800BEA103D00F01308102D00F013091000191
:1010C800BEA303D00F01308302D00F013093BBC001
:1010D800D9FFBCC0DAFFDF500F01366F000120EEE8
:1010E80001F0BB51D926BC51DA22DF500F01376F0E
:1010F800000120EE02F0BB51D926BC51DA22DF50A4
:101108000F01386F000120EE03F0BB51D926BC5106
:10111800DA22DF500F01396F000120EE04F0BB51D5
:10112800D926BC51DA22DF500F013A6F000120EEB8
:1011380005F0BB51D926BC51DA22DF500F013B6FB5
:10114800000120EE06F0BB51D926BC51DA22DF504F
:101158000F013C6F000120EE07F0BB51D926BC51AE
:10116800DA22DF500F013D6F0F01308712000F01A7
:1011780020B71200BDC025FF0001BEAD03D00F018E
:10118800258D02D00F01259D0001BEA779D0000151
:10119800B7510001C36FC46BC56BC66BC3C024FFD6
:1011A800000E0001B7150001C36FFF0E0001B8154E
:1011B8000001C46F000E0001B9150001C56F000ED3
:1011C8000001BA150001C66FC3C0BFF0C4C0C0F0AB
:1011D800C5C0C1F0C6C0C2F0C0C0BFF0C1C0C0F039
:1011E800C2C0C1F00001C26BBFC0C3F0C0C0C4F030
:1011F800C1C0C5F0C2C0C6F0C3C023FF000E0F01B6
:10120800226F0F0122870001B9A102D00F012281AC
:101218000001B9A302D00F0122830001B9A502D0B1
:101228000F01228B0001B9A702D00F01228D000106
:10123800B9A902D00F01228FB7C0BFF0B8C0C0F063
:10124800B9C0C1F0BAC0C2F0160E06D00001D890DD
:10125800C233C133C033BF33E82EF8D7BFC0C3F0A1
:10126800C0C0C4F0C1C0C5F0C2C0C6F00001C351BF
:101278000001C36FC46BC56BC66BC3C021FF59D0D7
:101288000F012297B7C0BFF0B8C0C0F0B9C0C1F015
:10129800BAC0C2F0040E06D00001D890C233C133E0
:1012A800C033BF33E82EF8D7BFC0C3F0C0C0C4F006
:1012B800C1C0C5F0C2C0C6F00001C3510001C36F70
:1012C800C46BC56BC66BC3C021FF070E0001B71501
:1012D8000001C36F000E0001B8150001C46F000EB5
:1012E8000001B9150001C56F000E0001BA15000113
:1012F800C66FC3C0BFF0C4C0C0F0C5C0C1F0C6C08F
:10130800C2F0050ED8900001BF37C037C137C237C9
:10131800E82EF8D7BFC0C3F0C0C0C4F0C1C0C5F044
:10132800C2C0C6F00F0122511F0B0F01226FC3C0AC
:1013380022FF0001BEA103D00F01208102D00F01BE
:1013480020910001BEA303D00F01208302D00F011A
:101358002093BBC0D9FFBCC0DAFFDF500F01266F56
:10136800000120EE01F0BB51D926BC51DA22DF5032
:101378000F01276F000120EE02F0BB51D926BC51A6
:10138800DA22DF500F01286F000120EE03F0BB5175
:10139800D926BC51DA22DF500F01296F000120EE57
:1013A80004F0BB51D926BC51DA22DF500F012A6F55
:1013B800000120EE05F0BB51D926BC51DA22DF50DE
:1013C8000F012B6F000120EE06F0BB51D926BC514E
:1013D800DA22DF500F012C6F000120EE07F0BB511D
:1013E800D926BC51DA22DF500F012D6F0F0120875B
:1013F80012000F0140B73BD1A2C045FF0001A3ADC9
:1014080003D00F01458D02D00F01459D0001A3A710
:1014180077D000019C510001A46FA56BA66BA76B48
:10142800A4C044FF000E00019C150001A46FFF0E2C
:1014380000019D150001A56F000E00019E15000119
:10144800A66F000E00019F150001A76FA4C020F031
:10145800A5C021F0A6C022F0A7C023F021C020F02B
:1014680022C021F023C022F0236A20C0A4F021C0AA
:10147800A5F022C0A6F023C0A7F0A4C043FF000E29
:101488000F01426F0F01428700019EA102D00F0198
:10149800428100019EA302D00F01428300019EA554
:1014A80002D00F01428B00019EA702D00F01428D8E
:1014B80000019EA902D00F01428F9CC020F09DC060
:1014C80021F09EC022F09FC023F0160E05D0D890C0
:1014D8002332223221322032E82EF9D720C0A4F05C
:1014E80021C0A5F022C0A6F023C0A7F00001A45196
:1014F8000001A46FA56BA66BA76BA4C041FF57D0D2
:101508000F0142979CC020F09DC021F09EC022F0A0
:101518009FC023F0040E05D0D89023322232213206
:101528002032E82EF9D720C0A4F021C0A5F022C0AF
:10153800A6F023C0A7F00001A4510001A46FA56B79
:10154800A66BA76BA4C041FF070E00019C15000104
:10155800A46F000E00019D150001A56F000E00018B
:101568009E150001A66F000E00019F150001A76FD0
:10157800A4C020F0A5C021F0A6C022F0A7C023F087
:10158800050ED8902036213622362336E82EF9D794
:1015980020C0A4F021C0A5F022C0A6F023C0A7F067
:1015A8000F0142511F0B0F01426FA4C042FF0001FF
:1015B800A3A103D00F01408102D00F014091000187
:1015C800A3A303D00F01408302D00F014093A0C012
:1015D800D9FFA1C0DAFFDF500F01466F000120EEEE
:1015E80001F0A051D926A151DA22DF500F01476F2F
:1015F800000120EE02F0A051D926A151DA22DF50D5
:101608000F01486F000120EE03F0A051D926A15127
:10161800DA22DF500F01496F000120EE04F0A051DB
:10162800D926A151DA22DF500F014A6F000120EEBE
:1016380005F0A051D926A151DA22DF500F014B6FD6
:10164800000120EE06F0A051D926A151DA22DF5080
:101658000F014C6F000120EE07F0A051D926A151CF
:10166800DA22DF500F014D6F0F01408712000F0182
:1016780030B73BD1A2C035FF0001A3AD03D00F01A5
:10168800358D02D00F01359D0001A3A777D0000149
:101698009C510001A46FA56BA66BA76BA4C034FF77
:1016A800000E00019C150001A46FFF0E00019D159E
:1016B8000001A56F000E00019E150001A66F000E27
:1016C80000019F150001A76FA4C020F0A5C021F05C
:1016D800A6C022F0A7C023F021C020F022C021F02C
:1016E80023C022F0236A20C0A4F021C0A5F022C0A4
:1016F800A6F023C0A7F0A4C033FF000E0F01326F7D
:101708000F01328700019EA102D00F013281000132
:101718009EA302D00F01328300019EA502D00F01C3
:10172800328B00019EA702D00F01328D00019EA9C5
:1017380002D00F01328F9CC020F09DC021F09EC0C6
:1017480022F09FC023F0160E05D0D8902332223203
:1017580021322032E82EF9D720C0A4F021C0A5F00C
:1017680022C0A6F023C0A7F00001A4510001A46F75
:10177800A56BA66BA76BA4C031FF57D00F0132979A
:101788009CC020F09DC021F09EC022F09FC023F095
:10179800040E05D0D8902332223221322032E82E8E
:1017A800F9D720C0A4F021C0A5F022C0A6F023C01C
:1017B800A7F00001A4510001A46FA56BA66BA76B4D
:1017C800A4C031FF070E00019C150001A46F000E94
:1017D80000019D150001A56F000E00019E15000176
:1017E800A66F000E00019F150001A76FA4C020F08E
:1017F800A5C021F0A6C022F0A7C023F0050ED890FE
:101808002036213622362336E82EF9D720C0A4F018
:1018180021C0A5F022C0A6F023C0A7F00F013251C5
:101828001F0B0F01326FA4C032FF0001A3A103D028
:101838000F01308102D00F0130910001A3A303D022
:101848000F01308302D00F013093A0C0D9FFA1C08F
:10185800DAFFDF500F01366F000120EE01F0A051D2
:10186800D926A151DA22DF500F01376F000120EE8F
:1018780002F0A051D926A151DA22DF500F01386FAA
:10188800000120EE03F0A051D926A151DA22DF5041
:101898000F01396F000120EE04F0A051D926A151A3
:1018A800DA22DF500F013A6F000120EE05F0A05157
:1018B800D926A151DA22DF500F013B6F000120EE3B
:1018C80006F0A051D926A151DA22DF500F013C6F52
:1018D800000120EE07F0A051D926A151DA22DF50ED
:1018E8000F013D6F0F01308712000F0120B7120062
:1018F800A2C025FF0001A3AD03D00F01258D02D0A2
:101908000F01259D0001A3A777D000019C5100017C
:10191800A46FA56BA66BA76BA4C024FF000E0001E3
:101928009C150001A46FFF0E00019D150001A56F15
:10193800000E00019E150001A66F000E00019F1504
:101948000001A76FA4C020F0A5C021F0A6C022F016
:10195800A7C023F021C020F022C021F023C022F02C
:10196800236A20C0A4F021C0A5F022C0A6F023C09D
:10197800A7F0A4C023FF000E0F01226F0F012287DA
:1019880000019EA102D00F01228100019EA302D076
:101998000F01228300019EA502D00F01228B0001B6
:1019A8009EA702D00F01228D00019EA902D00F012F
:1019B800228F9CC020F09DC021F09EC022F09FC0C5
:1019C80023F0160E05D0D89023322232213220324D
:1019D800E82EF9D720C0A4F021C0A5F022C0A6F0B7
:1019E80023C0A7F00001A4510001A46FA56BA66B4A
:1019F800A76BA4C021FF57D00F0122979CC020F0ED
:101A08009DC021F09EC022F09FC023F0040E05D097
:101A1800D8902332223221322032E82EF9D720C042
:101A2800A4F021C0A5F022C0A6F023C0A7F00001B1
:101A3800A4510001A46FA56BA66BA76BA4C021FFDE
:101A4800070E00019C150001A46F000E00019D15F2
:101A58000001A56F000E00019E150001A66F000E83
:101A680000019F150001A76FA4C020F0A5C021F0B8
:101A7800A6C022F0A7C023F0050ED8902036213644
:101A880022362336E82EF9D720C0A4F021C0A5F0CD
:101A980022C0A6F023C0A7F00F0122511F0B0F018F
:101AA800226FA4C022FF0001A3A103D00F0120814F
:101AB80002D00F0120910001A3A303D00F012083BE
:101AC80002D00F012093A0C0D9FFA1C0DAFFDF50D8
:101AD8000F01266F000120EE01F0A051D926A15177
:101AE800DA22DF500F01276F000120EE02F0A0512B
:101AF800D926A151DA22DF500F01286F000120EE0C
:101B080003F0A051D926A151DA22DF500F01296F25
:101B1800000120EE04F0A051D926A151DA22DF50AD
:101B28000F012A6F000120EE05F0A051D926A1511E
:101B3800DA22DF500F012B6F000120EE06F0A051D2
:101B4800D926A151DA22DF500F012C6F000120EEB7
:101B580007F0A051D926A151DA22DF500F012D6FCD
:101B68000F0120871200000E226E74BE228074BC02
:101B780022820F0150AF54D120C0D9FF21C0DAFF13
:101B8800DE6ADE6ADE6ADD6A20EE04F02050D926BD
:101B98002150DA2256CFDFFF20EE05F02050D9265B
:101BA8002150DA2257CFDFFF20EE06F02050D92649
:101BB8002150DA2258CFDFFF20EE07F02050D92637
:101BC8002150DA2259CFDFFF20EE08F02050D92625
:101BD8002150DA225ACFDFFF20EE09F02050D92613
:101BE8002150DA225BCFDFFF20EE0AF02050D92601
:101BF8002150DA225CCFDFFF20EE0BF02050D926EF
:101C08002150DA225DCFDFFF20EE0EF02050D926DA
:101C18002150DA220F0155AD02D0010E01D0000E7D
:101C2800DF6E20EE0DF02050D9262150DA220F0168
:101C380055510F0BDF6E20EE0CF02050D9262150A5
:101C4800DA220F0152A702D0010E01D0000EDF6E7A
:101C58000F0152B74ED051CF9CF000019D6B9E6B87
:101C68009F6B030ED89000019C379D379E379F3796
:101C7800E82EF8D720C0D9FF21C0DAFF9CC0DEFFCC
:101C88009DC0DEFF9EC0DEFF9FC0DEFF0F01523900
:101C9800E842070B070B236E20C0D9FF21C0DAFFEB
:101CA800DECF9CF0DECF9DF0DECF9EF0DECF9FF042
:101CB800235000019C250001A06F000E00019D210A
:101CC8000001A16F000E00019E210001A26F000E0D
:101CD80000019F210001A36F20C0D9FF21C0DAFFB6
:101CE800A0C0DEFFA1C0DEFFA2C0DEFFA3C0DEFFF2
:101CF80094D054CF9CF000019D6B9E6B9F6B20C0CD
:101D0800D9FF21C0DAFF9CC0DEFF9DC0DEFF9EC068
:101D1800DEFF9FC0DEFF53CF9CF000019D6B9E6BE2
:101D28009F6B9EC09FF09DC09EF09CC09DF00001DF
:101D38009C6B20C0D9FF21C0DAFF00019C51DE2630
:101D48009D51DE229E51DE229F51DE220F0152A1BB
:101D58000CD020C0D9FF21C0DAFF000EDE12000E21
:101D6800DE12010EDE12000EDE120F0152A30CD09D
:101D780020C0D9FF21C0DAFF000EDE12000EDE12ED
:101D8800020EDE12000EDE120F0152AB0CD020C084
:101D9800D9FF21C0DAFF000EDE12000EDE12040E9B
:101DA800DE12000EDE120F0152AD0CD020C0D9FF9A
:101DB80021C0DAFF000EDE12000EDE12080EDE125F
:101DC800000EDE120F0152AF0CD020C0D9FF21C087
:101DD800DAFF000EDE12000EDE12100EDE12000E0A
:101DE800DE1251CF9CF000019D6B9E6B9F6B150E10
:101DF800D89000019C379D379E379F37E82EF8D73B
:101E080020C0D9FF21C0DAFF00019C51DE129D518C
:101E1800DE129E51DE129F51DE120F01509F1200FA
:101E280060AE120020C0D9FF21C0DAFFDE6ADE6A88
:101E3800DE6ADD6A20EE04F02050D9262150DA222D
:101E480066CFDFFF20EE05F02050D9262150DA2298
:101E580067CFDFFF20EE06F02050D9262150DA2286
:101E680068CFDFFF20EE07F02050D9262150DA2274
:101E780069CFDFFF20EE08F02050D9262150DA2262
:101E88006ACFDFFF20EE09F02050D9262150DA2250
:101E98006BCFDFFF20EE0AF02050D9262150DA223E
:101EA8006CCFDFFF20EE0BF02050D9262150DA222C
:101EB8006DCFDFFF20EE0EF02050D9262150DA2218
:101EC80065AC02D0010E01D0000EDF6E20EE0DF0E1
:101ED8002050D9262150DA2265500F0BDF6E20EEF4
:101EE8000CF02050D9262150DA2262A602D0010E29
:101EF80001D0000EDF6E62B64DD061CF9CF00001BC
:101F08009D6B9E6B9F6B030ED89000019C379D378D
:101F18009E379F37E82EF8D720C0D9FF21C0DAFFB7
:101F28009CC0DEFF9DC0DEFF9EC0DEFF9FC0DEFFBF
:101F38006238E842070B070B236E20C0D9FF21C087
:101F4800DAFFDECF9CF0DECF9DF0DECF9EF0DECF55
:101F58009FF0235000019C250001A06F000E000196
:101F68009D210001A16F000E00019E210001A26FBA
:101F7800000E00019F210001A36F20C0D9FF21C0DE
:101F8800DAFFA0C0DEFFA1C0DEFFA2C0DEFFA3C053
:101F9800DEFF8FD064CF9CF000019D6B9E6B9F6B22
:101FA80020C0D9FF21C0DAFF9CC0DEFF9DC0DEFF44
:101FB8009EC0DEFF9FC0DEFF63CF9CF000019D6BDB
:101FC8009E6B9F6B9EC09FF09DC09EF09CC09DF035
:101FD80000019C6B20C0D9FF21C0DAFF00019C5191
:101FE800DE269D51DE229E51DE229F51DE2262A016
:101FF8000CD020C0D9FF21C0DAFF000EDE12000E7F
:10200800DE12010EDE12000EDE1262A20CD020C01B
:10201800D9FF21C0DAFF000EDE12000EDE12020E1A
:10202800DE12000EDE1262AA0CD020C0D9FF21C039
:10203800DAFF000EDE12000EDE12040EDE12000EB3
:10204800DE1262AC0CD020C0D9FF21C0DAFF000E2E
:10205800DE12000EDE12080EDE12000EDE1262AE76
:102068000CD020C0D9FF21C0DAFF000EDE12000E0E
:10207800DE12100EDE12000EDE1261CF9CF000019F
:102088009D6B9E6B9F6B150ED89000019C379D37FA
:102098009E379F37E82EF8D720C0D9FF21C0DAFF36
:1020A80000019C51DE129D51DE129E51DE129F519D
:1020B800DE12609E1200000E0B6E74BE0B8074BCA4
:1020C8000B820F0150AF43D101C0D9FF02C0DAFF24
:1020D800DE6ADE6ADE6ADD6A20EE04F00150D92687
:1020E8000250DA2256CFDFFF20EE05F00150D92644
:1020F8000250DA2257CFDFFF20EE06F00150D92632
:102108000250DA2258CFDFFF20EE07F00150D9261F
:102118000250DA2259CFDFFF20EE08F00150D9260D
:102128000250DA225ACFDFFF20EE09F00150D926FB
:102138000250DA225BCFDFFF20EE0AF00150D926E9
:102148000250DA225CCFDFFF20EE0BF00150D926D7
:102158000250DA225DCFDFFF20EE0EF00150D926C3
:102168000250DA220F0155AD02D0010E01D0000E47
:10217800DF6E20EE0DF00150D9260250DA220F0151
:1021880055510F0BDF6E20EE0CF00150D92602508E
:10219800DA220F0152A702D0010E01D0000EDF6E25
:1021A8000F0152B744D051CF03F0046A056A066A9A
:1021B800030ED8900336043605360636E82EF9D7CE
:1021C80001C0D9FF02C0DAFF03C0DEFF04C0DEFF92
:1021D80005C0DEFF06C0DEFF0F015239E842070BDB
:1021E800070B0C6E01C0D9FF02C0DAFFDECF03F087
:1021F800DECF04F0DECF05F0DECF06F00C5003246E
:10220800076E000E0420086E000E0520096E000EF1
:1022180006200A6E01C0D9FF02C0DAFF07C0DEFF40
:1022280008C0DEFF09C0DEFF0AC0DEFF8DD054CF34
:1022380003F0046A056A066A01C0D9FF02C0DAFF22
:1022480003C0DEFF04C0DEFF05C0DEFF06C0DEFF00
:1022580053CF03F0046A056A066A05C006F004C095
:1022680005F003C004F0036A01C0D9FF02C0DAFF19
:102278000350DE260450DE220550DE220650DE2200
:102288000F0152A10CD001C0D9FF02C0DAFF000E25
:10229800DE12000EDE12010EDE12000EDE120F013B
:1022A80052A30CD001C0D9FF02C0DAFF000EDE1223
:1022B800000EDE12020EDE12000EDE120F0152AB0D
:1022C8000CD001C0D9FF02C0DAFF000EDE12000EEA
:1022D800DE12040EDE12000EDE120F0152AD0CD01B
:1022E80001C0D9FF02C0DAFF000EDE12000EDE12B6
:1022F800080EDE12000EDE120F0152AF0CD001C024
:10230800D9FF02C0DAFF000EDE12000EDE12100E38
:10231800DE12000EDE1251CF03F0046A056A066A67
:10232800150ED8900336043605360636E82EF9D74A
:1023380001C0D9FF02C0DAFF0350DE120450DE12DA
:102348000550DE120650DE120F01509F120060AEDB
:10235800120001C0D9FF02C0DAFFDE6ADE6ADE6A57
:10236800DD6A20EE04F00150D9260250DA2266CF49
:10237800DFFF20EE05F00150D9260250DA2267CFA0
:10238800DFFF20EE06F00150D9260250DA2268CF8E
:10239800DFFF20EE07F00150D9260250DA2269CF7C
:1023A800DFFF20EE08F00150D9260250DA226ACF6A
:1023B800DFFF20EE09F00150D9260250DA226BCF58
:1023C800DFFF20EE0AF00150D9260250DA226CCF46
:1023D800DFFF20EE0BF00150D9260250DA226DCF34
:1023E800DFFF20EE0EF00150D9260250DA2265AC4C
:1023F80002D0010E01D0000EDF6E20EE0DF001506C
:10240800D9260250DA2265500F0BDF6E20EE0CF051
:102418000150D9260250DA2262A602D0010E01D05C
:10242800000EDF6E62B643D061CF03F0046A056A1E
:10243800066A030ED8900336043605360636E82EAB
:10244800F9D701C0D9FF02C0DAFF03C0DEFF04C01C
:10245800DEFF05C0DEFF06C0DEFF6238E842070B7C
:10246800070B0C6E01C0D9FF02C0DAFFDECF03F004
:10247800DECF04F0DECF05F0DECF06F00C500324EB
:10248800076E000E0420086E000E0520096E000E6F
:1024980006200A6E01C0D9FF02C0DAFF07C0DEFFBE
:1024A80008C0DEFF09C0DEFF0AC0DEFF88D064CFA7
:1024B80003F0046A056A066A01C0D9FF02C0DAFFA0
:1024C80003C0DEFF04C0DEFF05C0DEFF06C0DEFF7E
:1024D80063CF03F0046A056A066A05C006F004C003
:1024E80005F003C004F0036A01C0D9FF02C0DAFF97
:1024F8000350DE260450DE220550DE220650DE227E
:1025080062A00CD001C0D9FF02C0DAFF000EDE12B3
:10251800000EDE12010EDE12000EDE1262A20CD0D8
:1025280001C0D9FF02C0DAFF000EDE12000EDE1273
:10253800020EDE12000EDE1262AA0CD001C0D9FF14
:1025480002C0DAFF000EDE12000EDE12040EDE12EA
:10255800000EDE1262AC0CD001C0D9FF02C0DAFF57
:10256800000EDE12000EDE12080EDE12000EDE1263
:1025780062AE0CD001C0D9FF02C0DAFF000EDE1235
:10258800000EDE12100EDE12000EDE1261CF03F016
:10259800046A056A066A150ED890033604360536AD
:1025A8000636E82EF9D701C0D9FF02C0DAFF03507A
:1025B800DE120450DE120550DE120650DE12609E56
:1025C80012000001C06F0001C005D8A456D0000158
:1025D800BB29D8A452D0B7C0BCF0B8C0BDF0B9C0B0
:1025E800BEF0BAC0BFF0040E06D00001D890BF33C9
:1025F800BE33BD33BC33E82EF8D7BCC0C1F0BDC074
:10260800C2F0BEC0C3F0BFC0C4F00001C151000198
:10261800C16FC26BC36BC46BC1C018FF070E00014A
:10262800B7150001C16F000E0001B8150001C26F97
:10263800000E0001B9150001C36F000E0001BA15A4
:102648000001C46FC1C0BCF0C2C0BDF0C3C0BEF0C1
:10265800C4C0BFF0050ED8900001BC37BD37BE37E7
:10266800BF37E82EF8D7BCC0C1F0BDC0C2F0BEC0AD
:10267800C3F0BFC0C4F0C1C019FF020E0001C019E9
:10268800D8A456D00001BB29D8A452D0B7C0BCF0FA
:10269800B8C0BDF0B9C0BEF0BAC0BFF0040E06D0D5
:1026A8000001D890BF33BE33BD33BC33E82EF8D712
:1026B800BCC0C1F0BDC0C2F0BEC0C3F0BFC0C4F052
:1026C8000001C1510001C16FC26BC36BC46BC1C0B3
:1026D8001CFF070E0001B7150001C16F000E0001B5
:1026E800B8150001C26F000E0001B9150001C36FD3
:1026F800000E0001BA150001C46FC1C0BCF0C2C011
:10270800BDF0C3C0BEF0C4C0BFF0050ED890000134
:10271800BC37BD37BE37BF37E82EF8D7BCC0C1F0CD
:10272800BDC0C2F0BEC0C3F0BFC0C4F0C1C01DFF71
:102738000001C005D8A487D0F70E0001BB19D8A4A2
:1027480082D00001B7510001C16FC26BC36BC46B6B
:10275800C1C01BFF000E0001B7150001C16FFF0EBD
:102768000001B8150001C26F000E0001B915000183
:10277800C36F000E0001BA150001C46FC1C0BCF0E0
:10278800C2C0BDF0C3C0BEF0C4C0BFF0BDC0BCF085
:10279800BEC0BDF0BFC0BEF00001BF6BBCC0C1F081
:1027A800BDC0C2F0BEC0C3F0BFC0C4F0C1C01AFFF4
:1027B8000001B9A103D00F01198102D00F011991AD
:1027C8000001B9A303D00F01198302D00F01199397
:1027D8000001B9A503D00F01198B02D00F01199B75
:1027E8000001B9A703D00F01198D02D00F01199D5F
:1027F8000001B9A903D00F01198F02D00F01199F49
:10280800B7C0BCF0B8C0BDF0B9C0BEF0BAC0BFF028
:10281800160E06D00001D890BF33BE33BD33BC338B
:10282800E82EF8D7BCC0C1F0BDC0C2F0BEC0C3F02E
:10283800BFC0C4F00001C1510001C16FC26BC36BBE
:10284800C46BC1C018FF020E0001C019D8A4120041
:10285800F70E0001BB19D8A412000001B7510001FE
:10286800C16FC26BC36BC46BC1C01FFF000E0001F8
:10287800B7150001C16FFF0E0001B8150001C26F46
:10288800000E0001B9150001C36F000E0001BA1552
:102898000001C46FC1C0BCF0C2C0BDF0C3C0BEF06F
:1028A800C4C0BFF0BDC0BCF0BEC0BDF0BFC0BEF06C
:1028B8000001BF6BBCC0C1F0BDC0C2F0BEC0C3F058
:1028C800BFC0C4F0C1C01EFF0001B9A103D00F01F1
:1028D8001D8102D00F011D910001B9A303D00F0182
:1028E8001D8302D00F011D930001B9A503D00F016C
:1028F8001D8B02D00F011D9B0001B9A703D00F014A
:102908001D8D02D00F011D9D0001B9A903D00F0133
:102918001D8F02D00F011D9FB7C0BCF0B8C0BDF01D
:10292800B9C0BEF0BAC0BFF0160E06D00001D890EC
:10293800BF33BE33BD33BC33E82EF8D7BCC0C1F0BB
:10294800BDC0C2F0BEC0C3F0BFC0C4F00001C151D9
:102958000001C16FC26BC36BC46BC1C01CFF120006
:102968000001CE6F800EE0EC19F0000E706E000EC4
:10297800716E000E726E0001C741E842C00B000183
:10298800C76F0001C75170120001C85170120001D1
:10299800CE5171120001C539E842F80B0001C56F2C
:1029A8000001C55171120001C9A5718C0001C9B19E
:1029B800718E0001C65172120001C9B3728C0001F8
:1029C800C951600B606E0001C951100BFF0AD8B4E1
:1029D800608460CF50FF000E0001B76F000EB86F23
:1029E800000EB96F000EBA6FF70E0001BB6F010E33
:1029F800E5EC12F0000E0001B76F000EB86F000E84
:102A0800B96F000EBA6FF70E0001BB6F020EE5EC4E
:102A180012F00FD0F70E0001CF6F07D00001CF6979
:102A28000001D06928D00001CF69F70E0001D06FEE
:102A380022D09F0E0001CA6FFF0E0001CB6F00016C
:102A4800C951600B0001CC6FCD6B0001CA51000168
:102A5800CC130001CB510001CD130001CD51000A68
:102A6800D8A4E1D70001CC51BF0AD8B4D7D7600A9F
:102A7800D8B4D0D7D8D7000E0001B76F000EB86F02
:102A8800000EB96F000EBA6FCFC0BBF0000EB4ECE9
:102A980000F0000E0001B76F000EB86F000EB96F9E
:102AA800000EBA6FCFC0BBF0010EB4EC00F0000E00
:102AB8000001B76F000EB86F000EB96F000EBA6F45
:102AC800D0C0BBF0020EB4EC00F0000E0001B76FEE
:102AD800000EB86F000EB96F000EBA6FD0C0BBF011
:102AE800030EB4EC00F0000E0001B76F000EB86FD3
:102AF800000EB96F000EBA6FD0C0BBF0040EB4EC74
:102B080000F0000E0001B76F000EB86F000EB96F2D
:102B1800000EBA6FD0C0BBF0050EB4EC00F0000E8A
:102B2800E0EC19F01200020E2518261027102810C4
:102B3800D8A478D03EA00DD02DC029F02EC02AF000
:102B48002FC02BF030C02CF08C888C9A8C9C8C84F5
:102B58000BD03604D8A402D08C8A829A020E36187A
:102B6800D8A402D08C8C82982DC0B7F02EC0B8F0B3
:102B78002FC0B9F030C0BAF00001B71FB81FB91F95
:102B8800BA1FB72B000EB823B923BA232950000166
:102B9800B7250001BB6F2A500001B8210001BC6FA6
:102BA8002B500001B9210001BD6F2C500001BA2142
:102BB8000001BE6F0001BE510001BD1108E1C30E46
:102BC8000001BB5D010E0001BC59D8A02BD0000E3E
:102BD8008CBC010E0001DF6F8CAA04D00001B76B1A
:102BE800B72B02D00001B76B0001E051D8A402D086
:102BF800010E01D0000E0001B7110001DF6F8CA893
:102C080004D00001B76BB72B02D00001B76B0001ED
:102C1800E051D8A402D0010E01D0000E0001B71176
:102C28000001DF6F060E2518261027102810D8B4CB
:102C38003EB049D037C031F0326A31500001B76F29
:102C48003650316EB7C032F039C033F0346A335081
:102C58000001B76F3850336EB7C034F033503124A9
:102C68000001B76F345032200001B86FD8900001CE
:102C7800B8310001BA6F0001B7310001B96F000126
:102C8800B9510001DE6F335031240001B76F345061
:102C980032200001B86FD8900001B8310001BA6F36
:102CA8000001B7310001B96FBAC0B9F00001BA6BC1
:102CB8000001B9510001DD6F0001DD51D8A403D036
:102CC800800E0001DD6F090E251826102710281028
:102CD800D8A4120036C0E0F012000600E9CFABF02D
:102CE800EACFACF0E1CFADF0E2CFAEF0D9CFAFF0A4
:102CF800DACFB0F0F3CFB1F0F4CFB2F0F6CFB3F053
:102D0800F7CFB4F0F8CFB5F0F5CFB6F0A4A091D0D6
:102D18008CA602D0010E01D0000EFF0A0001A86F98
:102D28000001A847A847A8478C500001A819F70B2D
:102D3800A8198C6EF6EC19F00009D8B479D06D0E8C
:102D4800206E000E216EB7EC0DF0020E00016D1919
:102D580000016E1100016F1100017011D8A43FD05D
:102D680000017B05D8A43BD08CA402D0010E01D071
:102D7800000EFF0A0001A86F0001A847A8478C5061
:102D88000001A819FB0BA8198C6E2DC029F02EC0C4
:102D98002AF02FC02BF030C02CF0030E366ED1EC89
:102DA80019F0E806D8A4FBD7020E00019C6F000EAC
:102DB8009D6F000E9E6F000E9F6F360E0001A06F74
:102DC800000E0001A16F080E0001A26FBC0E0001E9
:102DD800A36FFDEC09F08C888C9A8C9C8C84000184
:102DE8007BA102D03E8001D03E906DC025F06EC020
:102DF80026F06FC027F070C028F03E84000E246EC5
:102E0800070E246401D014D02450010D710EF32450
:102E1800D96E000EF420DA6E2450010D360EF3241C
:102E2800E16E000EF420E26EDFCFE7FF242AE8D738
:102E3800A490B6C0F5FFB5C0F8FFB4C0F7FFB3C0A3
:102E4800F6FFB2C0F4FFB1C0F3FFB0C0DAFFAFC005
:102E5800D9FFAEC0E2FFADC0E1FFACC0EAFFABC036
:102E6800E9FFAAC0FBFFA9C0FAFF3F9211005DEC81
:102E780018F08C848C868C808C828C888C8C8C8AC4
:102E8800010E0001BE6FF40EBD6F60EC19F08C945A
:102E98008C968C908C928C988C9C8C9A3EA40ED09C
:102EA80097EC15F0AA0E0001DB6FAA0E0001E16F86
:102EB800000E0001E26FD9EC17F03E943EA6EED763
:102EC8008CA402D0010E01D0000EFF0A0001D16FC0
:102ED8000001D147D1478C500001D119FB0BD11902
:102EE8008C6EC0EC18F000016B5100019419D8B435
:102EF80017D0050E0001B76F000EB86F000EB96F3E
:102F0800000EBA6F940E0001BB6F000E0001BC6F7B
:102F1800080E0001BD6FBC0E0001BE6F37EC06F055
:102F280000018C5100016019D8B41DD000018D51E9
:102F380000016119D8B417D0030E0001B76F000E55
:102F4800B86F000EB96F000EBA6F8C0E0001BB6F20
:102F5800000E0001BC6F080E0001BD6FBC0E000121
:102F6800BE6F37EC06F000016A5100018419D8B42D
:102F78001AD0010E0001856F040E0001B76F000E14
:102F8800B86F000EB96F000EBA6F840E0001BB6FE8
:102F9800000E0001BC6F080E0001BD6FBC0E0001E1
:102FA800BE6F37EC06F03E9679D7000E0001BC6F75
:102FB800050E0001BC6501D01AD00001BC51010DFD
:102FC800DB0EF324D96E000EF420DA6EDF50D8A49D
:102FD8000BD00001BC51010DDB0EF324D96E000E9D
:102FE800F420DA6E010EDF6E0001BC2BE1D7000E73
:102FF80000016C6F010E0001BD6F050E0001BD657B
:1030080001D01BD00001BD51010DD20EF324D96EA1
:10301800000EF420DA6E0001BD51010DDB0EF32421
:10302800E16E000EF420E26EDE50E618D8A402D05D
:1030380000016C2B0001BD2BE0D7ACA21200050EDD
:1030480000016C19D8B412008CA002D0010E01D076
:10305800000EFF0A0001BA6F8C500001BA19FE0B6E
:10306800BA198C6EDB0E0001B86F000E0001B96F43
:10307800AEEC19F0000E0001BE6F050E0001BE6532
:1030880001D012000001BE51010DDB0EF324D96EF0
:10309800000EF420DA6E0001BE51010DD20EF324A9
:1030A800E16E000EF420E26EDFCFE7FF0001BE2BD9
:1030B800E4D74F0EAB16AC9ACF0E9D16060E000144
:1030C800C56F050E0001C66F010E0001C76F030E24
:1030D8000001C86F9D0E0001C96F040EB4EC14F016
:1030E800800EE0EC19F0020E0001B76F000EB86F09
:1030F800000EB96F000EBA6FFF0E0001BB6F000E15
:10310800B4EC00F0000EE0EC19F0000E0001B86F0E
:10311800670EB76F7C0E02EC19F0AB8ED08EA492BE
:10312800A4909E9AA592A5809F9AA382A3809D8A27
:10313800000E896E7D0E926E000E8A6EFB0E936EE7
:10314800000E8B6EBF0E946E000E8C6E000E956E88
:10315800000E8D6E040E966EC180C182C184C18638
:10316800010EB16EA192A292630EB36EC00EB26E42
:10317800A082F28EF28C1200AA0E00017C19D8A44B
:103188001200AA0E00018219D8A412008CA202D043
:10319800010E01D0000EFF0A0001B76F0001B7470A
:1031A8008C500001B719FD0BB7198C6E94C06BF0E9
:1031B8008CC060F08DC061F084C06AF000017D05AC
:1031C800D8A403D0000E00018E6F020E00017D19F5
:1031D800D8A403D0010E00018E6F7FC08CF07EC092
:1031E8008DF0800E00018D19D8A403D0000E0001C7
:1031F8008D6F80C094F081C084F012000001B96F17
:10320800000EAC6E000EAB6E0001B9B1AC880001C7
:10321800B9A302D0AC8CAB8C0001B9B5AC8E00015F
:10322800B9A702D0AB8801D0AB8A0001B9B9AC8488
:103238009E980001B9BBAB860001B9AD02D09D8A4A
:1032480001D09D9A9E9A0001B9AF02D09D8801D005
:103258009D98B7C0AFFF0001B851B06EAC8AAB8E75
:10326800949C948EACA81200ACBE1200948C1200F0
:1032780000EE60F03C0EEE6AE806FDE13E6A00EE04
:1032880025F0190EEE6AE806FDE1160EF66E340E0C
:10329800F76E000EF86E00EED2F010EE11F0090095
:1032A800F5CFEEFFE550E150FAE13F903F92000E76
:1032B800F86E00013BEF17F0DAC0B7F00001B86B09
:1032C800BDC0B9F0BEC0BAF07DEC19F0B7C068F067
:1032D800B8C069F007D0500EE82EFED70001680785
:1032E800D8A069070001685100016911D8B412001B
:1032F800F2D70001B7510001B903F3CFBBF0F4CF07
:10330800BCF00001B7510001BA03F3500001BC271B
:103318000001B8510001B903F3500001BC27BBC03C
:10332800B7F0BCC0B8F01200000E066E0ED09EAA10
:10333800FED7C2EC19F0056E02C0D9FF03C0DAFF50
:1033480005C0DFFF024A032A062A0450065CD8B0EB
:103358001200EDD7ACA2FED7B8C0D9FFB9C0DAFFCA
:10336800DF5001EC1AF0B8C0D9FFB9C0DAFF00018C
:10337800B84BB92BDF50D8B41200ECD7F20E351683
:10338800ABAC03D03590ABB03580ABB43584ABB2C1
:103398003586AECF01F001501200010E206E0F01EC
:1033A80040A708D00F0130A705D00F0120A702D0F1
:1033B800000E206E205012000001B76FB7C06FFFDB
:1033C8006E50E00B0001B719D8B41200F9D7010EFE
:1033D800016E60BE05D00F0150BF02D0000E016E15
:1033E80001501200010E206E60BE05D00F0150BFC3
:1033F80002D0000E206E205012000001B76FACAC56
:1034080003D0AC9035B2AC80B7C0ADFF1200AA00B3
:1034180000000000AA0014AA0000000000AA000092
:020000040020DA
:08000000FFFFFFFFFFFFFFFF00
:020000040030CA
:0E000000FF021F0EFF8281FF0FC00FE00F40B6
:00000001FF
